:100000000C94DE000C94FB000C945A2E0C948C2C57
:100010000C94FB000C94FB000C94FB000C94FB0074
:100020000C94FB000C94FB000C94FB000C94FB0064
:100030000C94FB000C94FB000C94FB000C94CA285D
:100040000C94FB000C94FB000C94FB000C94FB0044
:100050000C94FB000C94FB000C941D2E0C94FB00E4
:100060000C94FB000C94FB000C94FB000C94FB0024
:100070000C94FB000C94702E0C94FB000C946029E3
:100080000C9489290C94B2290C94FB000C94FB006D
:10009000813081308F306E307830783088308830E1
:1000A0009D306A30B630B630B630B6307B30F0377F
:1000B000EB37FA37F5370938FF3704380009121BD8
:1000C000242D363F48415A536C657E7719100B0238
:1000D0003D342F265158434A757C676E323B2029A8
:1000E000161F040D7A7368615E574C452B22393018
:1000F0000F061D14636A7178474E555C646D767FF8
:100100004049525B2C253E3708011A137D746F66F7
:1001100059504B42353C272E1118030A565F444D67
:10012000727B60691E170C053A3328214F465D54D7
:100130006B627970070E151C232A31384148535AD7
:10014000656C777E09001B122D243F3658514A43B7
:100150007C756E671019020B343D262F737A616827
:10016000575E454C3B3229201F160D046A63787197
:100170004E475C55222B3039060F141D252C373E77
:100180000108131A6D647F7649405B523C352E2777
:1001900018110A03747D666F5059424B171E050CE7
:1001A000333A21285F564D447B7269600E071C1557
:1001B0002A233831464F545D626B707911241FBE7B
:1001C000CFEFCDBFDFE3DEBF19E2A0E0B8E2E9E5A3
:1001D000F8EA02C005900D92AC32B107D9F721E3DD
:1001E000ACE2B9E201C01D92A030B207E1F70E9473
:1001F000E3480C94E74D0C940000621B730B840BD6
:10020000950B0895A4E0B0E0E8E0F1E00C94C04D57
:100210008C010E94BC0169837A838B839C83F801E3
:100220008285938597FF0EC0E091FE30F091FF30FC
:10023000309741F06AEF70E3CE0101960995F8011D
:1002400082879387F801828593851816190694F49E
:10025000092E000CAA0BBB0B49815A816B817C8152
:100260006A017B01C81AD90AEA0AFB0AC982DA8242
:10027000EB82FC8289819A81AB81BC814091FA300A
:100280005091FB306091FC307091FD30841B950BD8
:10029000A60BB70B89839A83AB83BC83B801CE01CD
:1002A00001960E947A0169817A818B819C812496D2
:1002B000E8E00C94D94D0FB6F8946093F630709343
:1002C000F7308093F8309093F9300FBE0895FC0119
:1002D0000FB6F8946091F6307091F7308091F83055
:1002E0009091F9300FBE309721F060837183828343
:1002F00093830895A4E0B0E0E0E8F1E00C94C04DF1
:100300006C017B01E091FE30F091FF30309729F0D5
:100310006AEF70E309958C0102C00FEF1FEFF60141
:1003200040815181628173818091FA309091FB30DC
:10033000A091FC30B091FD30840F951FA61FB71F10
:10034000101611064CF4A801012E000C660B770B59
:10035000840F951FA61FB71F89839A83AB83BC8325
:10036000B701CE0101960E946702F7010287138749
:100370002496E8E00C94D94DA0E0B0E0E2ECF1E086
:100380000C94BC4DEC01EE81FF818F0104561109E4
:10039000B9F0CF01855691096C0197FF03C023E0A6
:1003A000C20ED11CD594C794D594C7946CE97FEF45
:1003B0000E94FC48C60ED71E8FEFC81AD80A02C08A
:1003C000C12CD12C2DE631E0D8010E9466490D2CBC
:1003D000000CEE08FF08C60ED71EE81EF91E8B8122
:1003E000082E000C990B8C01015011092D8122302F
:1003F0002CF4222379F1015E1F4F2CC0CF018459C8
:10040000984F0E942E03282F30E0255C3F4F200F8D
:10041000311F8D81082E000C990B029785309105B4
:1004200014F027563F4F65E070E00E94FC48AC0195
:1004300097FF02C04F5F5F4F559547959DE3949F8F
:100440008001959F100D1124020F131F80FF02C021
:10045000015E1F4FC801110FAA0BBB0B9C01AD0120
:100460002C0D3D1D4E1D5F1D60E871E581E090E0A3
:100470000E94A64D4B015C01AA810A2E000CBB0B09
:1004800020E13EE00E9466496B017C01A9810A2EB1
:10049000000CBB0B2CE330E00E946649C60ED71E51
:1004A000E81EF91E6881862F660F990BAA0BBB0BFD
:1004B0008C0D9D1DAE1DBF1DBC01CD01680D791DAC
:1004C0008A1D9B1DCDB7DEB7ECE00C94D54DA8E09E
:1004D000B0E0EDE6F2E00C94C04D8B01FC016081D0
:1004E00071818281938120E831E541E050E00E94F2
:1004F000104969017A012CE330E040E050E00E94AD
:10050000324929833A834B835C8389819A81AB8109
:10051000BC81F80160836CE370E00E94FC48DC0160
:10052000CB01F801A1838283C601069667E070E0E3
:100530000E94E84884832DEA3EE840E050E0C7018D
:10054000B6010E94324929833A836D837E838F836B
:10055000988789819A8124E6289F6001299FD00C81
:1005600011246D817E818F81988525EB35E040E0F7
:1005700050E00E94324929833A836D837E83E9806B
:10058000FA80EE0CFF1CEE0CFF1CEC0CFD1C8D81A8
:100590009E81F5E6EF16F10410F0019604C024E602
:1005A000E216F10419F021E030E002C020E030E072
:1005B000A90144595E4F4817590768F46DE671E088
:1005C000821B930B0E94FC48DC01CB01E80EF91E54
:1005D000CD0120E030E044E6E40EF11CF801E682B3
:1005E000F78280879187255C3F4F8217930748F4F5
:1005F0006FE170E00E94FC48DC01CB01F8018583CB
:1006000022C069E970E0821B930B0E94FC48DC0168
:10061000CB01F82EFF0CFF0CF80E6DE370E0CD015E
:100620000E94FC48DC01CB01E82EEE0C6FE170E08B
:10063000CD010E94FC48DC01CB0122E0280FF20E24
:10064000FE0CF801F582A383F801128613868381DC
:100650008F5F83832896E8E00C94D94D9C0123702A
:100660003327232B59F464E670E00E94FC48892B61
:1006700039F46370772781E0672B19F080E00895E3
:1006800081E0089588EDA89584BF80910001816084
:10069000809300018091010181FDFCCFFFCFCF93BA
:1006A000FC01C081C053C53048F48C2F0E94240C3B
:1006B0008C2F0E94354884E19CED02C088E19CEDBE
:1006C000CF910C945E4A81E59CED9F938F9387E5D3
:1006D0009CED9F938F930E94484A0F900F900F902C
:1006E0000F9008958EE59CED9F938F9387E59CED89
:1006F0009F938F930E94484A0F900F900F900F90F6
:10070000089580912F2990913029009769F09F9347
:100710008F9388E59CED9F938F930E94484A0F909A
:100720000F900F900F90089582E69CED9F938F930A
:100730000E94484A0F900F9008950F931F93CF93F4
:10074000DF93CDB7DEB7C85CD109CDBFDEBF8E0168
:100750000F5F1F4FC8010E94E706811103C01F935E
:100760000F9304C08EE69CED9F938F930E94484A9E
:100770000F900F90C853DF4FCDBFDEBFDF91CF91F9
:100780001F910F910895EF92FF921F93CF93DF93E4
:10079000CDB7DEB72897CDBFDEBF64E87CED0E9401
:1007A00096499E012F5F3F4F790110E0009771F04D
:1007B000133039F11F5FF701819391937F0166E850
:1007C0007CED80E090E00E949649F0CF113021F05E
:1007D000C8F11430B8F515C069817A814EE150E056
:1007E00084EF9FE20E94E54962ED7BED83E190E3B7
:1007F0000E94DE4969E87CED82E390E30E94DE49D5
:1008000016C069817A814EE150E084EF9FE20E9438
:10081000E5496B817C814EE150E083E190E30E94E9
:10082000E54982E390E0809332309093333042E3A5
:1008300050E363E170E384EF9FE20E945F0C8BE87A
:100840009CED02C081E99CED9F938F930E94484AE2
:100850000F900F902896CDBFDEBFDF91CF911F91F3
:10086000FF90EF9008950E94E11E0E94E42184E130
:100870009CED0C945E4AAF92BF92CF92DF92EF92C2
:10088000FF921F93CF93DF93C9ECDCED0E94BC294C
:10089000882309F47EC00E94C329E09132298D305B
:1008A00019F08A3009F066C0F0E0ED5CF64D108278
:1008B00090913129911155C091E08A3029F420910D
:1008C0002E292D3009F490E080932E29992309F4E4
:1008D0004CC060E270E083E399E20E94CA497C0167
:1008E000009719F0DC011D927D01E3E3F9E201902C
:1008F0000020E9F73197E353F9421E2F88EFC82E05
:100900008DEDD82EF601A080B180B50183E399E288
:100910000E94D549F50101900020E9F73197EA19C5
:10092000FB0981110CC01E130AC0D6011296ED916D
:10093000FC911397309719F0C70109950EC0B4E0E8
:10094000CB0ED11CE8E1CE16EEEDDE06D9F6DF9334
:10095000CF930E94484A0F900F90809131298823AD
:1009600021F082EB9DED0E945E4A10923229109296
:1009700031298CCFE43648F491E09E0F90933229D0
:10098000F0E0ED5CF64D808381CF81E080933129EA
:100990007DCF62E370E080E090E0DF91CF911F9126
:1009A000FF90EF90DF90CF90BF90AF90089580912F
:1009B00040088091440887FDFACF809145088068FF
:1009C0008093450842E350E060E070E080E098E208
:1009D0000C941D2C80932F29909330290895E09139
:1009E0009729F0919829309759F0A081B1812C91E5
:1009F000022E000C330B482F50E02417350789F0E6
:100A00009F012B5F3F4F79F00580F681E02D4081FB
:100A1000042E000C550B90E04817590721F4C9012A
:100A20000895CF01089580E090E00895823049F460
:100A300077276130710539F06230710511F462E099
:100A400003C08FE20CC061E0423040F482E090E0ED
:100A50000E949F4387FF08C08DE001C086E180931C
:100A600099298FEF9FEF0895082E000C990B089598
:100A7000AF92BF92CF92DF92EF92FF920F931F93AC
:100A8000CF93DF93CDB7DEB76097CDBFDEBF8C01CC
:100A90005B016A010E94EF047C01892BA9F1F50139
:100AA0008191919189839A832EE0DE0113960190C2
:100AB0000D922A95E1F78230910519F589839A8381
:100AC0004C2DBE016F5F7F4F802F0E9445448823CD
:100AD00091F0873F71F08A3FB9F417FF02C086E2B8
:100AE00011C0AB2811F481E30DC0CD28C1F786E118
:100AF00009C085E007C082E0F701848380E090E0D0
:100B000005C08FE2809399298FEF9FEF6096CDBF4C
:100B1000DEBFDF91CF911F910F91FF90EF90DF909B
:100B2000CF90BF90AF900895809397299093982984
:100B30000895CF92DF92EF92FF920F931F93CF937E
:100B4000DF93232B11F086E11BC0EA017B016C01CE
:100B500000E010E098010E940E458823A1F0823F3A
:100B600071F08A3F99F4D7FE02C086E209C0EF28EF
:100B700011F48EE005C0CD2B31F788E201C087E388
:100B80008093992903C080E090E002C08FEF9FEF2F
:100B9000DF91CF911F910F91FF90EF90DF90CF9059
:100BA0000895CF93C82F0E94EF04009711F0FC0125
:100BB00014828C2F0E947D45882351F0873F21F0BD
:100BC0008A3F49F489E001C085E08093992903C0F8
:100BD00080E090E002C08FEF9FEFCF9108959827BB
:100BE0008927982708950E94EF04009719F0FC01C7
:100BF0008481089580E00895EF92FF920F931F93F0
:100C0000CF93DF93232B11F086E11BC0EA018B0108
:100C10007C0120E030E00E94A8448823A9F0823FB4
:100C200079F08A3F99F4F7FE02C086E20AC0012BF0
:100C300011F48EE006C0C937D54030F388E201C018
:100C400087E38093992902C0CE0102C08FEF9FEF06
:100C5000DF91CF911F910F91FF90EF900895EF9248
:100C6000FF920F931F93CF93DF93E82EF62EEA01A6
:100C70000E94EF048C01892B09F448C086E0F81625
:100C800041F18F1520F0A5E0FA1641F03FC0B7E022
:100C9000FB16C9F1E9E0FE1659F038C02097B1F112
:100CA000898187FD0BC083E0D80114968C932EC0F8
:100CB000209761F1888199810097D1F48E2DEE0CF7
:100CC000990BDF91CF911F910F91FF90EF900C94B2
:100CD000D1052097D9F06A817B811616170674F723
:100CE000D8011296ED91FC911397888199810AC0E1
:100CF0006A817B816115710509F3D8011296ED9126
:100D0000FC911397099583E0F8018483DF91CF91DB
:100D10001F910F91FF90EF900895CF92DF92EF9285
:100D2000FF920F931F93CF93DF93CDB7DEB7269734
:100D3000CDBFDEBFE0919A29E11102C091E03AC037
:100D40000097B9F161157105A1F169017A01AB0153
:100D5000BC01CE0101960E948E198111EFCFA7012F
:100D6000960168E17EEDCE0101960E945A1B811129
:100D7000E5CFA7019601205F314F4F4F5F4F6CE1E8
:100D80007EEDCE0101960E945A1B8111D7CFA8019A
:100D900060E27EEDCE0101960E94F31A8111CECF62
:100DA00060E070E0CE0101960E94E11991E08111AE
:100DB00001C090E0892F2696CDBFDEBFDF91CF9195
:100DC0001F910F91FF90EF90DF90CF900895EF92D9
:100DD000FF920F931F93CF93DF93CDB7DEB7C25827
:100DE000D109CDBFDEBFF82EE92E80E890E0CF57C5
:100DF000DF4F88839983C158D0408AE098E20E94EF
:100E0000B20C882311F081E03BC08BE1E5E6FEEDFA
:100E1000DE01969601900D928A95E1F7BE016F5B17
:100E20007F4F80E090E00E943E0F8111ECCF9E0149
:100E30002F573F4F8E010F5F1F4FA8016BE570E0EA
:100E4000CE0186960E94A5118111DDCFCF57DF4FCD
:100E5000E881F981C158D040E00FF11F10821F9343
:100E60000F9384E29EED9F938F93EF92FF920E94E7
:100E7000BE4A0F900F900F900F900F900F9080E050
:100E8000CE57DF4FCDBFDEBFDF91CF911F910F91C6
:100E9000FF90EF900895CF92DF92EF92FF920F9321
:100EA0001F93CF93DF93EC018AE098E20E94B20C8B
:100EB000811128C088EE9CE20E94C71B811121C0CD
:100EC00088EEE82E8CE2F82E6E0182E1C80ED11C6D
:100ED00000E61EEDF70181917F011F928F931F9312
:100EE0000F93DF93CF930E94BE4A22960F900F90EC
:100EF0000F900F900F900F90CC16DD0659F780E001
:100F000001C081E0DF91CF911F910F91FF90EF9091
:100F1000DF90CF90089580E398E20E94FC0C8AE075
:100F200098E20E94B20C882319F010929A29089531
:100F300080E090E00E94DF1181E080939A2908957B
:100F4000CF93DF93CDB7DEB76097CDBFDEBF2981EA
:100F5000217F2E7F298328E03DE2288739878D87EE
:100F60009E876C87CE0101960E9410216096CDBFAE
:100F7000DEBFDF91CF9108950C940C1FCF93DF93C8
:100F8000CDB7DEB76D97CDBFDEBFCE0101962DE1A7
:100F9000FC0111922A95E9F722E02D872AE030E042
:100FA0002E873F8726EF3EE22A8B3B8BEEE2FDE267
:100FB000EA8FFB8F01900020E9F73197EE52FD4256
:100FC000E88FF98F0E9474206D96CDBFDEBFDF9150
:100FD000CF9108958091EF308D7F84608E7F8093D4
:100FE000EF3060E070E0CB0108950F931F93CF9333
:100FF000DF93CDB7DEB72C97CDBFDEBF8B018B3132
:1010000009F444C020F4893009F45EC082C08C32F7
:1010100019F0823309F17DC0DB018C9181110DC083
:1010200042E350E060E070E08CE398E20E941D2C07
:101030008091EF3081608093EF30E0919B29F091B7
:101040009C29309709F465C08091EF3080FD61C024
:10105000D8018C9109955DC080E89EED0E94D9452C
:10106000811157C08091EF3080FF09C08CE398E276
:101070000E94ED2B8091EF308E7F8093EF30809136
:10108000EF3082608B7F8093EF3043C0FB01808123
:101090009181009709F43DC024812B8325812A8307
:1010A000268129838C5697408F839887828181502F
:1010B0008E8383818C831B861C86CE0101960E94C1
:1010C00002010E945B0125C0FB01ED59FF4F8081A9
:1010D00081111FC0319780814AE0BE016F5F7F4F51
:1010E00090E00E941B4AB8016F5D7F4FAE014F5FD9
:1010F0005F4FC8010E945F0C88EDA89584BF809166
:1011000000018160809300018091010181FDFCCF8D
:10111000FFCF2C96CDBFDEBFDF91CF911F910F91F6
:1011200008950E94623F64EF71E080E090E00895CE
:1011300080E090E00E94323E62E370E080E090E068
:1011400008950F931F93CF93DF93CDB7DEB72E97FC
:10115000CDBFDEBF8E010F5F1F4F8EE0F8011192F1
:101160008A95E9F785EF97E089839A830E947D430A
:1011700080E090E00E948D340E949D2E80915A2F35
:1011800090915B2F80939B2990939C290E94C62E5F
:10119000C8010E94F63D0E9463432E96CDBFDEBF7C
:1011A000DF91CF911F910F910895CF93DF93CDB72A
:1011B000DEB7C858D109CDBFDEBF9E012F5F3F4FBC
:1011C00088E8D9011D928A95E9F789E0E4EDFBED05
:1011D000D90101900D928A95E1F7FE013A9688E1D6
:1011E000DF011D928A95E9F791E09AA38AE08CA32A
:1011F0008BE0E5EFFBEDDE01959601900D928A956F
:10120000E1F7FE01F09680E1DF011D928A95E9F792
:1012100021969FAF219780EC23968FAF239788EA82
:1012200024968FAF249725969FAF259726969FAF3C
:10123000269741E064E378E2C9010E940B3FC8575A
:10124000DF4FCDBFDEBFDF91CF910895CF93C62F83
:1012500080935A2F90935B2F0E94A108C11103C065
:101260000E94D50808C044EF51E060E070E080E5DE
:1012700098E20E941D2C42E350E060E070E086E4BA
:1012800098E2CF910C941D2C1092A02910929F29C6
:1012900060E070E0CB0108954115510561057105CD
:1012A00041F04093C82F5093C92F6093CA2F709379
:1012B000CB2F08950F931F931092C82F1092C92F10
:1012C0001092CA2F1092CB2F8091EF308D7F809398
:1012D000EF3010929F2910929E290E94A1086CE481
:1012E00079E08FE296E00E9496430E94B71E8AE062
:1012F000EAEEFFE2DF011D928A95E9F7CF010E9435
:1013000094050E94E11EFC01808991898093EA2F57
:101310009093EB2F8CEB97E08093EC2F9093ED2F35
:1013200082E390E30E9478490FEF10E023E130E37D
:10133000482F6FE184EF9FE20E94013F882339F03C
:101340008091EF3084608093EF3080E011C08EE5B3
:1013500098E20E94ED2B40E157E260E070E088E601
:1013600098E20E941D2C10929D2981E080939F2974
:101370008093A02960E070E0CB011F910F91089548
:101380001092A029089544EF51E060E070E082E7F8
:1013900098E20C941D2C4F925F926F927F928F92E5
:1013A0009F92AF92BF92CF92DF92EF92FF920F93F4
:1013B0001F93CF93DF93CDB7DEB76397CDBFDEBF6B
:1013C00081E08E831F828E010F5F1F4F3E018BE0F5
:1013D000680E711C28018CECA82E8FE2B82E94E9BF
:1013E000C92E9EEDD92E2CE5E22E2FE2F22E31E809
:1013F000832E38E4932EBF92AF92DF92CF92FF926A
:10140000EF920E94BE4AD8011996ED92FC921A976B
:10141000F70101900020E9F73197EC55FF4217964C
:10142000ED93FC9318971B961C92E092C02FF092BC
:10143000C12F8092C22F9092C32F80EC9FE20E9416
:101440004A260B5F1F4F0F900F900F900F900F9039
:101450000F900615170579F6C2010E948E218111A1
:1014600010927C286396CDBFDEBFDF91CF911F9194
:101470000F91FF90EF90DF90CF90BF90AF909F9033
:101480008F907F906F905F904F9008958F929F9272
:10149000AF92BF92CF92DF92EF92FF920F931F9382
:1014A000CF93DF93CDB7DEB76497CDBFDEBF0E9489
:1014B000E11E8C018091A029811117C080919E2985
:1014C00081112AC0FF24F394F0929E2988E698E2C5
:1014D0000E94ED2B40ED57E060E070E08EE598E271
:1014E0000E941D2CF0929D2917C080919F29811187
:1014F00013C00E947120833079F080919D29811161
:101500000BC040E157E260E070E088E698E20E949C
:101510001D2C81E080939F298091EF3081FD09C0CF
:101520000E947120833009F068C1C8010E94E42143
:101530005FC1D8015096ED91FC9151978081082EA2
:10154000000C990B0E94F305F82E0E9449204B01D4
:101550005C0180E090E00E946701672B682B692B9B
:10156000C9F00E9471208330A9F480915A2890918B
:101570005B28A0915C28B0915D2888169906AA0680
:10158000BB0641F080925A2890925B28A0925C287A
:10159000B0925D28B1E0BF1528F4E3E0FE1609F42F
:1015A00079C026C10E94B71E8091C82F9091C92F83
:1015B000A091CA2FB091CB2F892B8A2B8B2B09F4AA
:1015C0001CC182E090E089839A838BEB91E00E94BA
:1015D000EF058B839C838091C82F9091C92FA09198
:1015E000CA2FB091CB2F8D839E83AF83B8870E9483
:1015F000E11E8C01DC015096ED91FC9151978081A8
:10160000082E000C990B0E94F30581111CC0F801F3
:10161000E088F18841E050E061E070E082E090E035
:101620000E941605D7018C93D8015096ED91FC913C
:101630005197808187FD07C00E94EF04009719F041
:1016400021E0FC012483D8015096ED91FC91519743
:101650008081082E000C990B0E94F305813009F05F
:10166000CCC0D8015096ED91FC915197808140E11A
:1016700050E0BE016F5F7F4F082E000C990B0E9457
:101680003805882309F4B9C08091EF3084608093D5
:10169000EF30A2C00E947120811157C080E090E01D
:1016A0000E9467016B017C01672B682B692B09F491
:1016B00048C08E010F5F1F4FC8010E944B071F9348
:1016C0000F9387EA9EED9F938F930CEC1FE21F937D
:1016D0000F930E94BE4A1F930F9380EF9EED9F933E
:1016E0008F9388EF9EED9F938F9384E09FED9F9360
:1016F0008F938BEA9EED9F938F9386EF9EE29F934D
:101700008F930E94BE4A1F930F938DED9EED9F9382
:101710008F9388E09DE29F938F930E94BE4AA7011A
:10172000960120583C4B4249574C04E01FED68ECB1
:1017300071E08EE29DE20E948D060E94BE07CDBF41
:10174000DEBF81E080937C2858C0C8010E942E240F
:10175000C8010E9424220E94E11EDC011C96CD904B
:10176000DC901D970E94E11EFC01E084F1840E9440
:10177000E11EDC015096ED91FC915197808120E0B3
:1017800030E0A601B701082E000C990B0E949905C4
:101790000E947120833089F58091EF308B7F809398
:1017A000EF3088E698E20E94ED2B8EE598E20E94E9
:1017B000ED2B10929E2910929F2980917C288111F7
:1017C0000E94CB090E94492061317E40810591052C
:1017D000A4F0C8010E94E421D8015096ED91FC913B
:1017E00051978081082E000C990B0E94D10505C0ED
:1017F0008091EF3084608093EF3064EF71E080E09F
:1018000090E06496CDBFDEBFDF91CF911F910F9125
:10181000FF90EF90DF90CF90BF90AF909F908F9010
:1018200008950E947120833021F40E94E11E0C94DF
:10183000E42108950E94712091E0833009F090E046
:10184000892F08950C94A007682F8FE390E00C94E3
:10185000924DCF92DF92EF92FF920F931F93CF930F
:10186000DF936B017A018C0180E090E0EC0121961E
:101870000E948A4DF80181938F01CE01CF31D105AD
:10188000A9F786016E01FFEFCF1ADF0ACE010E9491
:101890008A4DF80181938F01E601CE33D10591F78E
:1018A0008EE390E00E948A4DF7018083DF91CF9113
:1018B0001F910F91FF90EF90DF90CF900895AF921E
:1018C000BF92CF92DF92EF92FF920F931F93CF932D
:1018D0006C018B017A01FC0101900020E9F731973E
:1018E000CE2FC81B5C01C5018C199D09CF3F39F073
:1018F000F50161915F010E94924DC150F4CFF80152
:1019000001900020E9F73197CE2FC01B8FE190E0C6
:10191000CF3F61F0F80161918F016C01FFEFCF1AA9
:10192000DF0A0E94924DC150C601F2CFF7016081DB
:101930008EE390E0CF911F910F91FF90EF90DF9099
:10194000CF90BF90AF900C94924D8091A12990912F
:10195000A2290E940D1C811104C01092A12910928D
:10196000A22908950F931F93CF93DF93EC018091E9
:10197000A1299091A229892B11F00E94A50C8BE43A
:1019800090E3809334309093353088E390E38093F4
:1019900036309093373064E370E3CE010E94DC1B55
:1019A000811125C084E390E38093A1299093A2291B
:1019B00089818330D9F420913430309135302F5FD4
:1019C0003F4F01E010E043E150E060E070E080E074
:1019D0000E942A0E81110BC0E091A129F091A22949
:1019E0000190F081E02D8181887F818380E0DF910B
:1019F000CF911F910F910895CF93DF930097D1F06E
:101A0000EC010E94051C892B11F481EE14C0CE015B
:101A10000E94091C892BC9F38091A1299091A229C8
:101A2000892B11F00E94A50CC093A129D093A22963
:101A300080E001C082EEDF91CF9108950F931F9354
:101A4000F801309719F18370833001F1108211820F
:101A5000922F977050E0292F30E0823041F063E000
:101A6000440F551F6A95E1F7242B352B0BC0542FDB
:101A70004427242B352B93E0660F771F9A95E1F7C7
:101A8000262B372B2083318380E001C082EE1F910B
:101A90000F910895FA013097E1F1A091A129B09139
:101AA000A22912960D90BC91A02D11960D90BC917B
:101AB000A02D11969C9191110BC0813091F028F0CE
:101AC000823039F580E290E01AC088E590E017C0D6
:101AD000813039F018F0823039F01BC080E890E096
:101AE0000EC080E490E00BC06830710518F484E209
:101AF00090E005C06830710531F480EA91E08083A0
:101B0000918380E008956031710518F488E490E0D5
:101B1000F6CF82EE0895AF92BF92CF92DF92EF920E
:101B2000FF920F931F93CF93DF93CDB7DEB7C95CBE
:101B3000D109CDBFDEBFF82E6801012B09F43FC0EB
:101B400084E0E81619F080E2E81239C0E091A1299A
:101B5000F091A229A080B1808E0108531F4F8F2DD4
:101B60000E941E0D81112CC080E2E81203C08F2D4F
:101B70008068F82EFC82C853DF4F88819981C85C49
:101B8000D0408D839E83BE016F5F7F4FC5010E9451
:101B90005D1D811115C06091A1297091A229CE010E
:101BA00001960E94641C81110BC04E2D50E0BE01B5
:101BB000685F7F4FC6010E94A84980E001C082EEA5
:101BC000C753DF4FCDBFDEBFDF91CF911F910F9184
:101BD000FF90EF90DF90CF90BF90AF900895CF929D
:101BE000DF92EF920F931F93CF93DF93CDB7DEB7C2
:101BF000A097CDBFDEBF009709F16C0180E2E82E0F
:101C00008E010F5F1F4F20E040E060E070E080E059
:101C10000E948B0D811113C084E0F801D601019060
:101C20000D928A95E1F7D601149685E0FE0139966A
:101C300001900D928A95E1F780E001C082EEA096B6
:101C4000CDBFDEBFDF91CF911F910F91EF90DF905D
:101C5000CF9008952F923F924F925F926F927F9212
:101C60008F929F92AF92BF92CF92DF92EF92FF92AC
:101C70000F931F93CF93DF93CDB7DEB7A597CDBF5B
:101C8000DEBF19A21AA2833010F082EE93C0823018
:101C900019F460317105C8F70115110511F480E0E0
:101CA00089C02115310589F328012CA33DA35A01D0
:101CB0001B01F82EAE014F5D5F4F0E944A0D81114E
:101CC00079C029A13AA1C8018A0D9B1D281739079F
:101CD000E0F2350165E0769467946A95E1F720E2D9
:101CE0002BA3C12CD12C812C912C84149504B8F6F3
:101CF0008BA18032C1F489A19AA1930155E0220FF2
:101D0000331F5A95E1F7821B930B809760F46401AF
:101D1000CA0CDB1CD694C794D694C79497E0C9220A
:101D2000DD2424E02BA3EBA08E010F5F1F4F2C2D91
:101D3000462DB1018F2D0E948B0D81113BC0C30137
:101D400023E0880F991F2A95E1F78C0D9D1D880FC0
:101D5000991F880F991F8A159B0520F4B501681BF0
:101D6000790B02C060E070E02BA1822F90E0861B0F
:101D7000970B8201081919098017910708F48C0143
:101D800081E090E08C0F9D1F680F791FA8018CA146
:101D90009DA1880D991D0E94A849800E911E9BA1AE
:101DA000903221F42FEF621A720A9FCF8FEFC81A78
:101DB000D80A9BCFA596CDBFDEBFDF91CF911F91F3
:101DC0000F91FF90EF90DF90CF90BF90AF909F90DA
:101DD0008F907F906F905F904F903F902F900895DD
:101DE000EF92FF921F93CF93DF93CDB7DEB7C75C1F
:101DF000D109CDBFDEBF7901E091A129F091A229DF
:101E0000208131818C836D837E834115510541F0A2
:101E100083E0FA01DE01179601900D928A95E1F7B1
:101E2000BE016F5F7F4FC9010E94211D182F8111D4
:101E30001AC06091A1297091A229CE0101960E9439
:101E4000641C182F81110FC0E114F10461F04F815F
:101E5000453048F050E043505109BE01685F7F4F64
:101E6000C7010E94A849812FC953DF4FCDBFDEBFF4
:101E7000DF91CF911F91FF90EF9008959B0140E07B
:101E800050E0BC0180E00C94F00E0F931F93CF93B1
:101E9000DF93CDB7DEB7C75CD109CDBFDEBFFA0196
:101EA000A091A129B091A2294D915C91982F937096
:101EB0008C836D837E83923010F494E107C093305D
:101EC00069F585FF02C090E401C090E2DE0117963B
:101ED00001900D929A95E1F78901BE016F5F7F4FE6
:101EE000CA010E943A1D81111CC06091A129709104
:101EF000A229CE0101960E94641C811112C0011515
:101F0000110571F08F81833258F080E2FE0138961E
:101F1000D80101900D928A95E1F702C082EE01C0CE
:101F200080E0C953DF4FCDBFDEBFDF91CF911F915E
:101F30000F910895807C4032510511F4836004C0F4
:101F40004034510541F4836220E030E0AB0160E0B1
:101F500070E00C94450F82EE08950F931F93CF937A
:101F6000DF93CDB7DEB7C75CD109CDBFDEBF41156A
:101F7000510549F18A01E091A129F091A22920811E
:101F800031818C836D837E83BE016F5F7F4FC9017A
:101F90000E94671D81111AC06091A1297091A22928
:101FA000CE0101960E94641C811110C04F81453002
:101FB00060F050E043505109BE01685F7F4FC80197
:101FC0000E94A84902C082EE01C080E0C953DF4FE1
:101FD000CDBFDEBFDF91CF911F910F910895CF92BA
:101FE000DF92EF92FF920F931F93CF938C016B01BF
:101FF0007A0180E090E00E94E611811123C0E09117
:10200000A129F091A2290190F081E02D80818330F7
:1020100019F4C0E280E402C0C0E080E040E250E099
:10202000B6010E949A0F81110DC0A701B8018C2F33
:102030008068CF911F910F91FF90EF90DF90CF902C
:102040000C94AD0FCF911F910F91FF90EF90DF9007
:10205000CF900895FB018A3110F48F5B089596EEBE
:10206000980F9A3110F4895B08959CEC980F9A3080
:1020700010F4845008958E3311F4808108958F33C5
:1020800011F481810895803411F4828108958FEFD5
:1020900008952F923F924F925F926F927F928F920C
:1020A0009F92AF92BF92CF92DF92EF92FF920F93E7
:1020B0001F93CF93DF93CDB7DEB72897CDBFDEBF99
:1020C0007C016B014F8358872B833C83452B39F070
:1020D000892B29F0232B19F00115110531F41F92DA
:1020E00082EE8F9382E79FED23C0CB0163E070E027
:1020F0000E94E84821E030E0892B11F420E030E034
:10210000C60163E070E00E94E848260F371F220FE7
:10211000331F220F331FD80113966C916623D1F021
:10212000862F837079F01F9282EE8F938BEF9FED55
:102130009F938F930E94484A0F900F900F900F909B
:1021400082EEEDC070E0C9010E94E848660F771F7B
:10215000260F371F2F5F3F4FEB81FC8180819181DC
:102160008217930778F41F928DEE8F9386E390EE9B
:102170009F938F930E94484A0F900F900F900F905B
:102180008DEECDC0AB81BC811D921C92212C312CD7
:10219000612C712C812C912CEF81F885E60DF71DB7
:1021A0008C149D0408F0ACC0D80113966C91662382
:1021B000D9F081149104C1F070E0C3018219930930
:1021C0000E94E848892B81F4BDE0B083F301319689
:1021D0002F813885E20FF31F32E0630E711C4AE055
:1021E000408352E0250E311C8F819885860D971D06
:1021F00089839A83D7018C91B801869586950E9430
:102200002A10E981FA818083D7018C9183708295AD
:10221000807F93012F5F3F4FEF81F885E20FF31F1F
:10222000ED83FE832E5F3F4F2901A3014C5F5F4F7B
:102230005A0194012F5F3F4F2C153D05F0F552E0F8
:10224000650E711C11969C9192959F70B801892B17
:102250000E942A10AD81BE818C93F70181818F701D
:10226000880F880F2F813885620E731E94012E5FB0
:102270003F4F2C153D05C8F4928192959695969501
:102280009370B801892B0E942A10D3018C933501D9
:10229000AF80B884A40CB51CF7018281B8018F739C
:1022A0000E942A10D5018C931DC0B8010E942A10EB
:1022B000F30180833501D8010EC0B8010E942A10B5
:1022C000ED81FE818083D80112968C911297E9816D
:1022D000FA818283350112968C91EF81F885E40DA5
:1022E000F51D8083F3E08F0E911C23E0E20EF11CBC
:1022F00053CF9301215031098291811105C03901D9
:1023000032E063167104A8F74F815885460D571DBA
:10231000DA011C92EB81FC816082718280E0289658
:10232000CDBFDEBFDF91CF911F910F91FF90EF9056
:10233000DF90CF90BF90AF909F908F907F906F90E5
:102340005F904F903F902F9008950F931F9301E857
:1023500018E20E9449101F910F9108950F931F9347
:10236000CF93DF93CDB7DEB7C75CD109CDBFDEBF5A
:10237000E091A129F091A229208131818E010F5F86
:102380001F4F97ECF80111929A95E9F78C836D83B2
:102390007E83B801C9010E94301D811107C0609180
:1023A000A1297091A229C8010E94641CC953DF4F62
:1023B000CDBFDEBFDF91CF911F910F910895880FA0
:1023C000880F60E070E082600C94AE110F931F9351
:1023D000CF93DF93CDB7DEB7C75CD109CDBFDEBFEA
:1023E0008C01E091A129F091A229808191811C8228
:1023F0001D821E82BE016F5F7F4F0E94531D81119F
:102400001AC06091A1297091A229CE0101960E9463
:10241000641C811110C09F81933261F40115110574
:1024200051F090E2FE013896D80101900D929A95F4
:10243000E1F701C086EEC953DF4FCDBFDEBFDF91AC
:10244000CF911F910F9108952F923F924F925F92DB
:102450006F927F928F929F92AF92BF92CF92DF92B4
:10246000EF92FF920F931F93CF93DF93CDB7DEB719
:10247000C455D140CDBFDEBFC55BDE4F8883998395
:10248000CB54D140C15BDE4F288339834A835B83C1
:10249000CF54D140CB5CDE4F6883C553D140CA5C7A
:1024A000DE4F7883C653D140CF5BDE4F188219824E
:1024B0001A821B82C154D1409E012F5B3F4FCF5DDA
:1024C000DE4F28833983C152D140AE014F535F4F55
:1024D000CD5DDE4F48835983C352D14088559F4F0D
:1024E000C35BDE4F88839983CD54D140CF5BDE4FF1
:1024F000688179818A819B81C154D140C15BDE4F63
:10250000488059806A807B80CF54D140641575051E
:102510008605970509F4CCC3BE016F5F7F4FC95C88
:10252000DE4F68837983C753D140FB01CB5CDE4F1C
:10253000A881B981C553D1408C91838311968C9128
:102540001197828312968C911297818313968C91A6
:102550001397808314963496CF5DDE4F88819981DE
:10256000C152D140E817F90739F7C95CDE4F28801E
:102570003980C753D1403101D10114964D915D91FD
:102580006D917C911797D8968D919D910D90BC91EE
:10259000A02DE4E02E0E311C6A017B0117E0F694B9
:1025A000E794D794C7941A95D1F78A019B01E9E182
:1025B000000F111F221F331FEA95D1F7C02AD12A1D
:1025C000E22AF32A4A015B01FEE0880C991CAA1C4E
:1025D000BB1CFA95D1F78A019B01E2E1369527955C
:1025E00017950795EA95D1F7082919292A293B2932
:1025F0000C251D252E253F256A017B01F3E0F6946D
:10260000E794D794C794FA95D1F70C251D252E256C
:102610003F25F301C080D180E280F380F10140A129
:1026200051A162A173A1C40ED51EE61EF71EC00EF5
:10263000D11EE21EF31E8C019D014FE0000F111F01
:10264000221F331F4A95D1F7AC01BD01E1E1769518
:10265000679557954795EA95D1F7042B152B262BAF
:10266000372BAC01BD01FDE0440F551F661F771FDE
:10267000FA95D1F72C013D01E3E1769467945794E4
:102680004794EA95D1F7442A552A662A772A4026A4
:10269000512662267326FAE0B695A79597958795F9
:1026A000FA95D1F7482659266A267B264C0C5D1CE4
:1026B0006E1C7F1CD101DC964D925D926D927C92D6
:1026C000DF97CD5DDE4FE881F981C352D1402E16F0
:1026D0003F0609F050CFC55BDE4F28803980CB54D0
:1026E000D140F8E82F0E311C9E012F5F3E4FCD5A8E
:1026F000DE4F28833983C355D140C901F10141918F
:10270000519161917191DC014D935D936D937D9336
:10271000CD01C35BDE4F48805980CD54D140E415D4
:10272000F50569F7CD5ADE4FA881B981C355D1406F
:102730005C966D907D908D909C905F97C95BDE4F0D
:10274000688279828A829B82C754D14058964D9084
:102750005D906D907C905B97C35CDE4F48825982A0
:102760006A827B82CD53D14054964D905D906D909E
:102770007C905797C75CDE4F488259826A827B8281
:10278000C953D14050968D919D910D90BC91A02D33
:10279000CD5ADE4FE881F981C355D1404484558438
:1027A00066847784CB5DDE4F488259826A827B8261
:1027B000C552D1404084518462847384CF5CDE4F23
:1027C000488259826A827B82C153D14044805580BD
:1027D00066807780C35DDE4F488259826A827B8241
:1027E000CD52D14000811181228133814DE650EEDE
:1027F000CB5BDE4F48835983C554D140CB5BDE4F62
:10280000E881F981C554D140419151916191719113
:10281000CB5BDE4FE883F983C554D1404C015D01A9
:10282000EAE1880C991CAA1CBB1CEA95D1F76C0143
:102830007D01F6E0F694E794D794C794FA95D1F722
:10284000C828D928EA28FB282C013D01E5E1440CE1
:10285000551C661C771CEA95D1F74C015D01FBE025
:10286000B694A79497948794FA95D1F784289528DD
:10287000A628B7288C249D24AE24BF246C017D019A
:10288000E9E1F694E794D794C794EA95D1F72C013F
:102890003D01F7E0440C551C661C771CFA95D1F7F6
:1028A000C428D528E628F728C824D924EA24FB24FC
:1028B000C95CDE4FE881F981C753D1408190919086
:1028C000A190B190C95CDE4FE883F983C753D14032
:1028D000480D591D6A1D7B1D4C0D5D1D6E1D7F1D14
:1028E0002C013D014094509460947094C35CDE4F81
:1028F00088809980AA80BB80CD53D1404820592040
:102900006A207B20C75CDE4FC880D980EA80FB80CC
:10291000C953D140C822D922EA22FB22C424D5249B
:10292000E624F7244C0D5D1D6E1D7F1DC95BDE4F37
:10293000A880B980CA80DB80C754D1404A0D5B1D96
:102940006C1D7D1DCB5DDE4FC880D980EA80FB8089
:10295000C552D140C40ED51EE61EF71EC75DDE4F20
:10296000C882D982EA82FB82C952D140480159010A
:10297000EEE1880C991CAA1CBB1CEA95D1F76801F2
:102980007901F2E0F694E794D794C794FA95D1F7D9
:10299000C828D928EA28FB2828013901E3E1440C9A
:1029A000551C661C771CEA95D1F748015901FDE0DA
:1029B000B694A79497948794FA95D1F74828592804
:1029C0006A287B28C424D524E624F7242801390169
:1029D000E6E17694679457944794EA95D1F74801D5
:1029E0005901FAE0880C991CAA1CBB1CFA95D1F776
:1029F00084289528A628B728240135014C245D2475
:102A00006E247F24CB5DDE4F488259826A827B82AE
:102A1000C552D140C35DDE4F488059806A807B80BB
:102A2000CD52D140CF5CDE4F88809980AA80BB8098
:102A3000C153D140482459246A247B244022512286
:102A400062227322C35DDE4FC880D980EA80FB809A
:102A5000CD52D140C820D920EA20FB20C424D5245F
:102A6000E624F724CB5DDE4F488059806A807B8066
:102A7000C552D140C40CD51CE61CF71CC40ED51E93
:102A8000E61EF71EC35CDE4F688079808A809B80DB
:102A9000CD53D140C95BDE4F688279828A829B82A6
:102AA000C754D140CF5CDE4F88809980AA80BB801C
:102AB000C153D140CB5DDE4F88829982AA82BB820E
:102AC000C552D140CB5BDE4F48815981C554D140BE
:102AD0004D56514ED9F1C75CDE4F488059806A800F
:102AE0007B80C953D140C35CDE4F488259826A82E1
:102AF0007B82CD53D140C75CDE4F88839983AA8304
:102B0000BB83C953D140C75DDE4F88819981AA81BB
:102B1000BB81C952D140C35DDE4F688079808A8015
:102B20009B80CD52D140CF5CDE4F688279828A8211
:102B30009B82C153D140C35DDE4F088319832A8332
:102B40003B83CD52D1409701860158CECF5FDE4FF7
:102B5000C882D982EA82FB82C150D140CB5FDE4F6E
:102B6000088319832A833B83C550D140C35DDE4F60
:102B7000488059806A807B80CD52D140C75FDE4F4C
:102B8000488259826A827B82C950D140C75DDE4F3C
:102B9000688079808A809B80C952D140CF5EDE4FA9
:102BA000688279828A829B82C151D140CB5EDE4F9E
:102BB00088839983AA83BB83C551D140C75CDE4F0C
:102BC00088809980AA80BB80C953D140C75EDE4F00
:102BD00088829982AA82BB82C951D140C35CDE4FF0
:102BE000A880B980CA80DB80CD53D140C35EDE4F60
:102BF000A882B982CA82DB82CD51D140CF5CDE4F40
:102C0000C880D980EA80FB80C153D140C35FDE4FCA
:102C1000C882D982EA82FB82CD50D140CD5ADE4FA4
:102C2000E881F981C355D14081919191A191B191F0
:102C3000CD5ADE4FE883F983C355D140F10140817D
:102C4000518162817381840F951FA61FB71F8193E5
:102C50009193A193B1931F01C35BDE4F48805980CC
:102C6000CD54D1404E165F06C9F6CF5BDE4F2881AA
:102C700039814A815B81C154D1402F5F3F4F4F4F13
:102C80005F4FCF5BDE4F288339834A835B83C15418
:102C9000D140CB5CDE4F48815981C553D140405C67
:102CA0005F4FCB5CDE4F48835983C553D1401ECC68
:102CB000CC5ADE4FCDBFDEBFDF91CF911F910F9178
:102CC000FF90EF90DF90CF90BF90AF909F908F904C
:102CD0007F906F905F904F903F902F90089528EADB
:102CE000FC0111922A95E9F7ADE6B1EEFC01E85737
:102CF000FF4F88559F4F4D915D916D917D9141930F
:102D0000519361937193E817F907A9F708952F92EA
:102D10003F924F925F926F927F928F929F92AF926B
:102D2000BF92CF92DF92EF92FF920F931F93CF93B8
:102D3000DF93EC018B0149015A018C819D81AE81A9
:102D4000BF8140E4C42ED12CE12CF12CC81AD90A41
:102D5000EA0AFB0A8C149D04AE04BF0410F475014A
:102D600064010896A601B8018C0F9D1F0E94A84916
:102D70008C819D81AE81BF81880D991DAA1DBB1DCF
:102D800080349105A105B105B8F48C839D83AE8391
:102D9000BF83DF91CF911F910F91FF90EF90DF9054
:102DA000CF90BF90AF909F908F907F906F905F90EB
:102DB0004F903F902F9008951E0188E0280E311CFF
:102DC00021E030E040E050E0B101CE010E94241249
:102DD0008C189D08AE08BF082401350186E0769462
:102DE0006794579447948A95D1F7B8016C0D7D1D6F
:102DF000A3019201CE010E942412D301C2010196C7
:102E0000A11DB11D26E0880F991FAA1FBB1F2A957F
:102E1000D1F7488159816A817B81840F951FA61F54
:102E2000B71F88839983AA83BB83B501A4014F731D
:102E30005527662777274C835D836E837F8336E033
:102E4000440C551C3A95E1F7C40CD51CC8018C0DF7
:102E50009D1DBC01C101DF91CF911F910F91FF908A
:102E6000EF90DF90CF90BF90AF909F908F907F902A
:102E70006F905F904F903F902F900C94A8498F9245
:102E80009F92AF92BF92CF92DF92EF92FF920F93F9
:102E90001F93CF93DF93EC018B014C815D816E8199
:102EA0007F81C880D980EA80FB80C40ED51EE61ED3
:102EB000F71EC882D982EA82FB8283E0CC0CDD1C3B
:102EC000EE1CFF1C8A95D1F787EF9FEFAFEFBFEFA6
:102ED000841B950BA60BB70B4C015D012FE38222DF
:102EE0009924AA24BB24DB01CA010196A11DB11DAE
:102EF0008C839D83AE83BF83FE01E40FF51F20E822
:102F00002087A4014C5F5F4F089660E070E08C0F53
:102F10009D1F0E94C3498C819D81AE81BF81880D18
:102F2000991DAA1DBB1DAC01BD014C5F5F4F6F4FCA
:102F30007F4FFE01E40FF51FF086AC01BD014B5F32
:102F40005F4F6F4F7F4FFE01E40FF51FE086AC012E
:102F5000BD014A5F5F4F6F4F7F4FFE01E40FF51FCA
:102F6000D086AC01BD01485F5F4F6F4F7F4F4C83F0
:102F70005D836E837F830796A11DB11DFE01E80F5F
:102F8000F91FC0869A01AB0196E056954795379593
:102F900027959A95D1F7BE01685F7F4FCE010E94B9
:102FA0002412C801FE01E857FF4FC855DF4F9C01AE
:102FB0002C5F3F4FD90140814E9340815181628106
:102FC0007381452F562F672F772740835183628364
:102FD0007383A817B90779F73496C901EC17FD0771
:102FE00031F7DF91CF911F910F91FF90EF90DF901C
:102FF000CF90BF90AF909F908F900895CF92DF9227
:10300000EF92FF920F931F93CF93DF93CDB7DEB76D
:10301000C05CD109CDBFDEBF6C018B017A01CE014E
:1030200001960E946F16980140E050E0B601CE0173
:1030300001960E948716B701CE0101960E943F17A4
:1030400080E090E0C054DF4FCDBFDEBFDF91CF9175
:103050001F910F91FF90EF90DF90CF900895611531
:1030600071058105910559F0E3ECF9E03197F1F72D
:1030700000C000006150710981099109F0CF0895E5
:103080000E941B2880E0089580E00895CF93DF938D
:103090001F92CDB7DEB7898389810E9423288823B8
:1030A000D9F360E070E087E299E20E94112861E0C4
:1030B00070E0CE0101960E94A12880E00E94B32812
:1030C0000E947C288130E1F30F90DF91CF91089529
:1030D00080E00895FF920F931F93CF93DF93F82E14
:1030E000EB018A018F2D0E9423288823D9F3B80190
:1030F000CE010E94A12860E070E089E299E20E947E
:10310000162880E00E94B3280E947C288130E1F3D9
:10311000DF91CF911F910F91FF90089583E0FB0104
:1031200080834F5F5F4F88E50E946A1880E00895B2
:10313000CF93DF931F92CDB7DEB782E0898341E062
:1031400050E0BE016F5F7F4F88E50E946A1880E003
:103150000F90DF91CF910895CF93DF931F92CDB75A
:10316000DEB781E0898341E050E0BE016F5F7F4FB1
:1031700088E50E946A1880E00F90DF91CF91089552
:10318000FF920F931F93CF93DF93F82EEB018A01E9
:103190008F2D0E9423288823D9F3B801CE010E94E5
:1031A000A12881E00E94B3280E947C288130E1F3AD
:1031B000DF91CF911F910F91FF900895FA01408107
:1031C000518188E50E94C01880E00895CF93DF9375
:1031D000CDB7DEB72897CDBFDEBF41E060E070E03D
:1031E00080E00E94461887E893E10197F1F700C05C
:1031F0000000809110DC909111DCA09112DCB09164
:1032000013DC89839A83AB83BC8344E050E0BE0126
:103210006B5F7F4F88E50E94C018FE013596DE0186
:1032200011969E01275F3F4F81E041919D91491387
:1032300080E0E217F307C9F7811102C080EF01C0F7
:1032400080E02896CDBFDEBFDF91CF910895FB01CE
:10325000DC018C91811124C080E498E1808391830A
:1032600084E498E1828393838EED98E1868397834B
:103270008EE898E1848395838CEA98E1848795872A
:1032800086EE98E18087918788E998E18287938725
:1032900088E698E186879787108A118A80E00895EA
:1032A00080EF0895811103C0CB010C94681881EE62
:1032B0000895CF93DF93DC01892B69F1ED91FC91A7
:1032C0001197309741F114962D913C911597211546
:1032D000310509F112968D919C911397019728174A
:1032E0003907C8F4E20FF31FEF01219788818E326E
:1032F00041F42F5F3F4F14962D933C9315978BE726
:1033000009C08B3741F02F5F3F4F14962D933C93AC
:1033100015978CE28083DF91CF910895EF92FF9211
:103320000F931F93CF93DF9300D0CDB7DEB70097F5
:10333000E1F161157105C9F141155105B1F19A012C
:10334000AB017C01FC01608371832283338314828F
:10335000158229833A830DE718E29E012F5F3F4FC4
:103360006BE170E080EA91EE0E944910811120C06B
:10337000F7014481558129813A81240F351F248327
:10338000358342815381415051092417350778F420
:1033900040815181B9016F5F7F4F64837583FA016A
:1033A000E20FF31F9EE2908303C082EE01C084EE21
:1033B0000F900F90DF91CF911F910F91FF90EF90A1
:1033C00008958F929F92AF92BF92CF92DF92EF9229
:1033D000FF920F931F93CF93DF9300D0CDB7DEB74B
:1033E000FC015B01892B09F4EEC0A081B18110972B
:1033F00009F4E9C082819381892B09F4E4C08481B6
:103400009581009709F4DFC0AD01480F591F9A015B
:1034100021503109D9012C912D3731F00196848347
:1034200095838DE7DA018C932481358160E070E02B
:103430006217730759F0A081B181A60FB71F8C9155
:103440006F5F7F4F8E32A1F76B0101C069014901A7
:103450008C189D08C401805C9F4F880F991F880FAE
:10346000991F63E070E00E94E84882819381821B8B
:10347000930B6D5F7F4F8617970710F484EEA4C0FF
:103480007F0120813181B9016C0D7D1DA401820F66
:10349000931F0E94B149F7012281338129833A8326
:1034A0000190F081E02DAF014C0D5D1DD701149608
:1034B0008D919C911597B901681B790BCB010DE794
:1034C00018E29E012F5F3F4FB4018E0F9F1F0E9495
:1034D0004910811179C069817A816C0D7D1DD701F8
:1034E00014966D937C93159712964D915C9113975A
:1034F000CA01885591096817790708F0BFCF8D91E7
:103500009C9140525109480F591F0E94FE1781118A
:103510005BC0F7016081718182819381AC0140546D
:103520005109460F571F8097680F791FC5010E94E8
:10353000EF0F811149C0D7012D913C91119714963D
:103540008D919C911597AC014F5F5F4F14964D93F1
:103550005C931597F901E80FF91F2EE2208312966C
:103560002D913C91139714964D915C911597C9013B
:10357000841B950B89839A83ED91FC914E0F5F1FFD
:10358000C901805491099E012F5F3F4F60E470E0B4
:103590008E0F9F1F0E944910F70124813581898178
:1035A0009A81820F931F84839583228133818217AE
:1035B000930708F063CF20813181F901E80FF91FEB
:1035C000108280E001C082EE0F900F90DF91CF91CA
:1035D0001F910F91FF90EF90DF90CF90BF90AF9031
:1035E0009F908F900895CF92DF92EF92FF920F936A
:1035F0001F93CF93DF93EC01892B09F44FC088818F
:103600009981892B09F44AC08A819B81892B09F40D
:1036100045C06115710509F441C041155105F1F12D
:103620006A017B01CE010E9459198C819D814A81DA
:103630005B818A01081B190BDF92CF92FF92EF92F8
:103640002DE831EE3F932F931F930F9328813981FB
:10365000820F931F9F938F930E948E4A6C01092EB5
:10366000000CEE08FF082DB73EB7265F3F4F2DBF79
:103670003EBF1C141D041E041F0494F4A80160E046
:1036800070E0C416D506E606F70654F42C813D8199
:10369000820F931F8C839D8380E003C082EE01C064
:1036A00081EEDF91CF911F910F91FF90EF90DF900E
:1036B000CF900895AF92BF92CF92DF92EF92FF9298
:1036C0000F931F93CF93DF93EC01892B09F451C023
:1036D00088819981892B09F44CC08A819B81892B2F
:1036E00009F447C06115710509F443C0A52EB42E35
:1036F000C32ED22E7B01CE010E9459198C819D814F
:103700004A815B818A01081B190BAF92BF92CF924D
:10371000DF92FF92EF9227E931EE3F932F931F93B1
:103720000F9328813981820F931F9F938F930E945B
:103730008E4A6C01092E000CEE08FF082DB73EB72B
:10374000245F3F4F2DBF3EBF1C141D041E041F04E9
:1037500094F4A80160E070E0C416D506E606F7060A
:1037600054F42C813D81820F931F8C839D8380E0D4
:1037700003C082EE01C081EEDF91CF911F910F91C6
:10378000FF90EF90DF90CF90BF90AF900895CF93D0
:103790000E94EF0DC82F882361F01F928F938CEB4E
:1037A00091EE9F938F930E94484A0F900F900F9035
:1037B0000F908C2FCF9108950F931F93CF93DF938A
:1037C000FB010097E1F03097D1F0608171816115C4
:1037D0007105A9F022813381232B89F0EF018C013F
:1037E000FC0181810E94DE1C81110AC06A817B81FB
:1037F000C801DF91CF911F910F910C94681E82EE4A
:10380000DF91CF911F910F910895FC0180819181EB
:103810000895FC01828193810895009729F0FC01AD
:10382000828193810C94FE1D82EE0895CF93DF93E5
:10383000FB019081913031F0D0F0923039F093302B
:1038400049F011C093E120EE36EE1CC094E124EA69
:1038500036EE18C09181983271F0983681F096E179
:1038600022E636EE0FC090E020E030E00BC09EE094
:1038700029E137EE07C096E120E236EE03C096E17B
:103880002EED35EE4FEF5FEF4283538340E0491753
:1038900089F0D9012D5F3F4FE901239758815813D3
:1038A00007C011968D919C9112978283938302C0D9
:1038B0004F5FEDCF82819381019611F482EF01C0B9
:1038C00080E0DF91CF910895AF92BF92CF92DF92C7
:1038D000EF92FF921F93CF93DF9300D0CDB7DEB767
:1038E0007C016B01DB016D917C91FC0182810E9466
:1038F000161C811157C0D601ED91FC911197A28041
:10390000B38012968D919C9113970E94D61D182F0B
:10391000811142C0F701418150E0B701D6011296F2
:103920008D919C9113970E94CA1D182F811134C04C
:10393000B50180E090E00E942F18B6E0EB0EF11C7C
:1039400080ECF70111928A95E9F780EC90E0898389
:103950009A83AE014F5F5F4FB701D60112968D91EA
:103960009C9113970E94D01D182F811115C0898139
:103970009A818430910520F4892B69F417EE0CC0EC
:10398000C7010E94711D182F811106C0C7010E9436
:103990009E1D182F01C016EEF601828193810E94B0
:1039A000ED1D812F0F900F90DF91CF911F91FF9010
:1039B000EF90DF90CF90BF90AF90089561157105A3
:1039C00029F0FB018083118280E0089582EE089542
:1039D0000F931F93CF93DA01FB018B01080F191F7F
:1039E00020E030E00E171F07C9F0C19168E070E0D9
:1039F00091E0832F881F8827881F220F331F41E003
:103A00005C2F592309F440E0481719F085E0282776
:103A10003058990F6150710961F7E4CF2C931196DA
:103A20003C93CF911F910F910895BC016F5F7F4F21
:103A3000FC018181825090E0AB01480F591F0C942A
:103A4000E81CFB0180E48283838184FF02C08AE05A
:103A500001C087E08183CF010E94151D80E0089599
:103A6000CB0127E1FB01228327E021830E94151D62
:103A700080E00895FB018381982F937026E12283D3
:103A8000923010F48BE107C0933059F485FF02C0E7
:103A900087E401C087E28183CF010E94151D80E089
:103AA000089582EE0895CB012BE1FB01228327E0EC
:103AB00021830E94151D80E00895CB0122E0FB01C7
:103AC000228327E021830E94151D80E00895CB0109
:103AD00021E4FB01228327E021830E94151D80E061
:103AE0000895EF92FF920F931F93CF93DF9300D02F
:103AF000CDB7DEB77C01FC0180818250082F10E039
:103B0000AE014F5F5F4FB701C8010E94E81CF7018B
:103B1000E00FF11F99818081981306C09A818181FD
:103B2000981302C080E001C085EE0F900F90DF91E6
:103B3000CF911F910F91FF90EF900895FC0120818C
:103B4000243031F581818730D9F048F48130A1F0FB
:103B5000F8F0833099F08530C9F486ED08958F3000
:103B600089F020F4883091F48AEF0895813161F072
:103B70008F3F61F484ED089581ED089582ED0895FD
:103B800087ED089584EF089583EF089581EE0895F9
:103B900080E00895DC011796ED91FC911897099447
:103BA000DC011996ED91FC911A970994CF93DF935C
:103BB000EC01EB85FC850995803D61F469E170E0DD
:103BC00080E090E00E942F18EB85FC85CE01DF910C
:103BD000CF910994DF91CF910895CF93DC011D9689
:103BE000ED91FC911E970995C82F61E070E080E08F
:103BF00090E00E942F188C2FCF910895009731F0FC
:103C0000FC016189728980810C94521982EE0895B9
:103C10000F931F93CF93DF93EC018B0189819A81DE
:103C20000E942719F801808191818B839C83828176
:103C300093818D839E83848195818F8398878681EC
:103C4000978189879A87808591858B879C878485D2
:103C500095858F87988B828593858D879E878089B0
:103C60009189898B9A8B80E0DF91CF911F910F9181
:103C700008950F931F93CF93DF93CDB7DEB762976D
:103C8000CDBFDEBF8C01BE016F5F7F4F0E94081E5B
:103C9000D80111966D917C9112971396ED91FC913C
:103CA0001497CE010196099581110AC089899A89D4
:103CB000F801818B928B0580F681E02DC801099572
:103CC0006296CDBFDEBFDF91CF911F910F91089516
:103CD000009761F06115710549F0FC012081FB013D
:103CE000208381839283CB010C94391E82EE089548
:103CF00062E070E00E94A12860E070E080E090E067
:103D00000E94112882E008951F93CF93DF9300D083
:103D10001F92CDB7DEB7182F6B83812F0E94232807
:103D20008823D9F3BE016F5F7F4F88E79EE10E9431
:103D3000112861E070E0CE0103960E94A12860E0A6
:103D400070E089E299E20E9416280E94C7280E942A
:103D50007C288130E1F389819A81982789279827E7
:103D60002396CDBFDEBFDF91CF911F910895CF93F2
:103D7000DF930E946E20C7E0DAE218821982A3EA7C
:103D8000B9E21D921C921197E7E9FBE2C083D1834F
:103D900080E991E084839583C283D383168217825E
:103DA000A087B18784E690E084879587A287B38750
:103DB0001686178685E898E2808B918BDF91CF91EC
:103DC000089587E99BE20895FC014681578160814F
:103DD00071810088F189E02D808120E030E0082E9B
:103DE000000C990B0E94FC0521E0181619060CF036
:103DF00020E0822F0895DC015096ED91FC915197BF
:103E00008081082E000C990B0E94D10521E0892B9E
:103E100009F020E0822F08950F931F93CF938C0118
:103E2000C62F8FE99BE20E94A1254C2F50E0B801DC
:103E30008FE99BE2CF911F910F910C94A92581E00E
:103E40008093B02B60E070E0CB01089581E0809317
:103E5000AF2B2091E12B3091E22B32272327322701
:103E600021503109A8EEB3E00E945749089581E03E
:103E70008093AE2B60E375E780E090E0089520E04A
:103E8000382F3F77880F892F881F990B91950097BE
:103E900009F03068FB01E20FF11D30832F5F0097BE
:103EA00079F7822F08953F924F925F926F927F929F
:103EB0008F929F92AF92BF92CF92DF92EF92FF923A
:103EC0000F931F93CF93DF93CDB7DEB7CE53D1407F
:103ED000CDBFDEBF8E01035D1E4F20E1D8011D92D4
:103EE0002A95E9F7FE01E753FF4FC35CDE4FE883F5
:103EF000F983CD53D14024E611922A95E9F79E012A
:103F00002F5F3F4F690128ECD6011D922A95E9F7F2
:103F100008967C0141E050E0B8010E941A26B801E1
:103F20006F5F7F4F41E050E0C7010E941A26F80101
:103F3000828187FF15C041E050E0B8016D5F7F4F7F
:103F4000C7010E941A26D80113968C9187FF08C0DA
:103F500041E050E0B8016C5F7F4FC7010E941A2614
:103F6000F801412C512C3201812C912C5401839465
:103F70003180A32DAF77B0E0A50194010E946D4977
:103F8000460E571E681E791E87E0880C991CAA1CD5
:103F9000BB1C8A95D1F737FE02C03196E9CF42E0CB
:103FA00050E0B8016B5F7F4FC7010E941A2629ECD1
:103FB00030E02C0F3D1FF801278330874581568163
:103FC000542745275427B901C7010E941A26D80152
:103FD00015968D919C9116979827892798274EEFD3
:103FE0005FEF6FEF7FEF481B590B61097109440DBB
:103FF000551D661D771D1C96CD92DC921D97B6014E
:10400000C7010E941A260E944F266C01F801A58064
:10401000B680BA24AB24BA24678070844C01F8E0DF
:104020008F0E911CC114D104A1F0A501B301D601DA
:104030008D919C910E949B49892B59F4F8016485CC
:104040007585D6011296ED91FC911397C3010995E0
:1040500006C0B4E0CB0ED11CC814D90419F7C701AF
:104060000E94A12583E0C25CDE4FCDBFDEBFDF91A1
:10407000CF911F910F91FF90EF90DF90CF90BF9065
:10408000AF909F908F907F906F905F904F903F90F8
:104090000895CF92DF92EF92FF92C090AA2BD0901A
:1040A000AB2BE090AC2BF090AD2BC114D104E1040C
:1040B000F10461F080E090E00E946701A7019601A1
:1040C000FF90EF90DF90CF900C94FD0060E070E0E7
:1040D000CB01FF90EF90DF90CF9008951092A92B25
:1040E00008958091A92B0895CF93DF93FC018DE172
:1040F000A4EDBBE2ED0119928A95E9F78091D42BEA
:104100008F7080618093D42B84E08093DA2B9DE4C0
:104110009093DB2B91E59093DC2B94E59093DD2B32
:104120009093DE2B8093DF2B6789708D611571056D
:1041300021F483899489892B11F082EC01C082E0FB
:104140008093E02B858596859827892798278093EB
:10415000E12B9093E22BA189B289A093E52BB09338
:10416000E62BED0109900020E9F721979E012A1B1B
:104170003B0B2093E32B3093E42B4091E02B46FF45
:104180000AC0818D928D8093ED2B9093EE2B6093DE
:10419000EB2B7093EC2B47FF16C085899689809393
:1041A000E92B9093EA2B638974896093E72B7093D2
:1041B000E82B8091EB2B9091EC2B860F971F0496A8
:1041C000820F931F01C0C9010C968093EF2B90932F
:1041D000F02B407CB1F08091EB2B9091EC2B982749
:1041E000892798278093EB2B9093EC2B8091E72BDA
:1041F0009091E82B9827892798278093E72B909315
:10420000E82B3227232732272093E32B3093E42B0C
:1042100081E08093F22B8093A92BDF91CF910895B9
:10422000CF93DF93FC0180E1A4ECBBE2ED01199296
:104230008A95E9F78091A92B833009F06BC09091A2
:10424000C42B9F7090639093C42B808183FB88273D
:1042500080F980FB93F99093C42B80818670997FBD
:10426000982B9093C42B892F8E70883019F4977FE8
:104270009093C42B90818091C42B90FB80F9809304
:10428000C42B878190858093CB2B9093CC2BA781D7
:10429000B085ED0109900020E9F72197CE018A1B36
:1042A0009B0B8093C92B9093CA2B2081269523705A
:1042B00061F021852093CD2B22852093CE2B22E007
:1042C00030E02093D22B3093D32B24853585209357
:1042D000D02B3093D12B43854093CF2B2091D22BE1
:1042E0003091D32B2E5F3F4F240F311D280F391FE4
:1042F0002093D22B3093D32B98278927982780930C
:10430000C92B9093CA2B8091F22B84608093F22B5F
:1043100081E001C080E0DF91CF910895CF93DF93DA
:10432000FC0183E1A1EBBBE2ED0119928A95E9F76B
:104330008091A92B833009F043C08091B12B897003
:1043400082688093B12B85818093B62B8681809380
:10435000B72B4091C22B5091C32B27813085922FD0
:10436000832F8093B82B9093B92B8185928580936E
:10437000BA2B9093BB2B83858093BC2B848595852A
:10438000782F692F6093BD2B7093BE2B6685778540
:104390006093BF2B7093C02B60896093C12B240F57
:1043A000351F280F391F285F3F4F2093C22B3093B2
:1043B000C32B8091F22B88608093F22B81E001C0A7
:1043C00080E0DF91CF9108950F931F93CF93DF93F8
:1043D00000D0CDB7DEB72091A92B2250223058F55E
:1043E0008C0180E998E20E94ED2B19821A82C801A3
:1043F0000E94A125C80108960E94A1258981887084
:10440000806E877F898341E050E0BE016F5F7F4F00
:10441000C8010E94A92541E050E0BE016E5F7F4FB8
:10442000C8010E94A925C8010E94E41E81111092B2
:10443000F22B1092A92B8091A92B0F900F90DF9156
:10444000CF911F910F910895CF92DF92EF92FF923B
:104450000F931F93CF93DF9300D0CDB7DEB78C01BE
:104460008091A92B823020F0833009F492C0DEC104
:104470008091F22B80FFDAC1C8010E94A125C801FA
:1044800008960E94A12541E050E064ED7BE2C8015E
:104490000E94A92565ED7BE28091EF2B9091F02B96
:1044A0000E943F1F482F50E065ED7BE2C8010E944B
:1044B000A9254AE050E069ED7BE2C8010E94A925E8
:1044C00042E050E063EE7BE2C8010E94A9256091C2
:1044D000E52B7091E62BFB0101900020E9F7319765
:1044E000AF01461B570BC8010E94A9258091EB2BF9
:1044F0009091EC2B892B31F48091E72B9091E82B54
:10450000892B51F142E050E067EE7BE2C8010E9446
:10451000A9254091E72B5091E82B54274527542794
:104520006091E92B7091EA2BC8010E94A92542E015
:1045300050E06BEE7BE2C8010E94A9254091EB2B75
:104540005091EC2B5427452754276091ED2B709107
:10455000EE2BC8010E94A9258091F22B80FF66C135
:10456000C8010E94E41E882309F460C18091F22BE7
:104570008E7F8093F22B40E355E760E070E08AE99C
:1045800098E20E941D2C82E08093A92B1092B02B00
:104590004DC12091F22B222309F448C180E030E084
:1045A000482FB901082E02C0759567950A94E2F765
:1045B00060FD02C08F5FF4CF81E090E001C0880F02
:1045C0004A95EAF7883009F4B9C0803221F0843086
:1045D00009F02CC141C08091AF2B882309F426C17A
:1045E0001092AF2B19821A82C8010E94A125C8011E
:1045F00008960E94A12589818170806C8E7F8983B5
:104600001A8241E050E0BE016F5F7F4FC8010E94F7
:10461000A92541E050E0BE016E5F7F4FC8010E94B6
:10462000A9258091F22B85FF01C1C8010E94E41EDB
:10463000882309F4FBC08091F22B8F7D8093F22BAD
:104640008091F12B80618093F12B40E355E760E08E
:1046500070E086E898E2E8C080E998E20E94ED2BDD
:10466000C8010E94A125C80108960E94A12541E029
:1046700050E064EC7BE2C8010E94A92565EC7BE276
:104680008091D22B9091D32B0E943F1F482F50E056
:1046900065EC7BE2C8010E94A92542E050E069EC8C
:1046A0007BE2C8010E94A9254091C92B5091CA2BD9
:1046B0005427452754276091CB2B7091CC2BC801F0
:1046C0000E94A9258091C42B8670823071F441E04C
:1046D00050E06EEC7BE2C8010E94A92541E050E069
:1046E0006DEC7BE2C8010E94A9254091CF2B50E0E0
:1046F0006091D02B7091D12BC8010E94A925809187
:10470000F22B82FD04C08091C42B83FFA4C0C8019A
:104710000E94E41E882309F49EC08091F22B8B7FB7
:104720008093F22B8091C42B8670823009F08BC06D
:104730008091F12B80628093F12B85C0C8010E948B
:10474000A125C80108960E94A12541E050E061EB37
:104750007BE2C8010E94A92562EB7BE28091C22B1B
:104760009091C32B0E943F1F482F50E062EB7BE2E9
:10477000C8010E94A92541E050E067EB7BE2C80137
:104780000E94A92541E050E066EB7BE2C8010E944F
:10479000A92588EBE82E8BE2F82E92ECC92E9BE23D
:1047A000D92E42E050E0B701C8010E94A925F701C7
:1047B0004081518154274527542762817381C80164
:1047C0000E94A925B7016C5F7F4F41E050E0C8010E
:1047D0000E94A925F5E0EF0EF11CCE14DF0409F7C5
:1047E0008091F22B83FF0FC0C8010E94E41E882332
:1047F00051F08091F22B877F8093F22B8091F12BE7
:1048000084608093F12B2091E12B3091E22B3227B1
:104810002327322721503109A8EEB3E00E945749DF
:10482000AB01BC0180E998E20E941D2C8091A92B6C
:104830000F900F90DF91CF911F910F91FF90EF900C
:10484000DF90CF9008952091E12B3091E22B21153C
:10485000310561F3DCCF1092A92BE8CFCF92DF9224
:10486000EF92FF920F931F93CF93DF93CDB7DEB7F5
:104870002A97CDBFDEBFFC011A8626853785909129
:10488000A92B232B11F4892F50C17F01923021F0E5
:10489000933009F477C047C18091B02B81116CC06F
:1048A0000091E12B1091E22B8AE998E20E94ED2B16
:1048B000670188E0C80ED11C41E050E0BE01665F90
:1048C0007F4FC6010E94EC258A85807F803209F0E7
:1048D00053C0BE016F5F7F4F84E0FB0111928A9548
:1048E000E9F741E050E0C6010E941A2641E050E09D
:1048F000BE016E5F7F4FC6010E941A2641E050E064
:10490000BE016D5F7F4FC6010E941A2641E050E054
:10491000BE016C5F7F4FC6010E941A268C818823DE
:1049200011F080E001C083E08093A92B833009F06F
:10493000FAC0302F212F2115310589F08091F22BFB
:1049400080628093F22B21503109A8EEB3E00E94DF
:104950005749AB01BC0180E998E20E941D2C80E020
:1049600090E00E9467016093AA2B7093AB2B809319
:10497000AC2B9093AD2BD7C01092A92BC7010E94EE
:10498000FB1ED1C08F01085F1F4F41E050E0BE0108
:10499000665F7F4FC8010E94EC259A8592959F70B3
:1049A000943009F48DC038F4933009F0BCC0C701CD
:1049B0000E94531FB8C0993041F19D3009F0B3C037
:1049C0008091F12B84FF25C08091AE2B811121C0F5
:1049D00086E898E20E94ED2B19821A8241E050E0AD
:1049E000BE016F5F7F4FC8010E941A268091E12BA4
:1049F0009091E22B892B29F08091F22B8062809399
:104A0000F22BC8010E94A1258EC08091F12B82FD5E
:104A100004C082E08093A92B86C0BE016F5F7F4FE8
:104A2000FB0111929A95E9F741E050E0C8010E941C
:104A30001A2641E050E0BE016E5F7F4FC8010E9420
:104A40001A2641E050E0BE016A5F7F4FC8010E9414
:104A50001A2641E050E0BE01695F7F4FC8010E9405
:104A60001A269F818091B62B981711F0F12C1DC04A
:104A70009E818091B72B9813F9CF41E050E0BE01A1
:104A8000685F7F4FC8010E941A268885803871F3BD
:104A90009091BC2B981750F38985803839F3909109
:104AA000C12B981718F383E0F82E8091F12B8B7FA0
:104AB0008093F12BC8010E94A125F092A92B33C04D
:104AC000BE016F5F7F4FFB0111929A95E9F741E0BC
:104AD00050E0C8010E941A2641E050E0BE016E5F1E
:104AE0007F4FC8010E941A2641E050E0BE016C5F72
:104AF0007F4FC8010E941A2641E050E0BE016D5F61
:104B00007F4FC8010E941A269B818091CD2B98135C
:104B10000AC09C818091CE2B981305C08091F12B07
:104B20008F7D8093F12B8091A92B2A96CDBFDEBF7C
:104B3000DF91CF911F910F91FF90EF90DF90CF9079
:104B40000895FC018081918182839383168217826C
:104B50000895EF92FF920F931F93CF93DF93FC0181
:104B6000EB017A0100811181648175819B012150E3
:104B70003109200F311F82819381801B910B468167
:104B80005781840F951F0E94E848D801A80FB91FCC
:104B9000AE014E0D5F1DC417D507B1F02A173B07B4
:104BA00010F4A081B18186819781892B29F08281BF
:104BB0009381A817B90741F089918D9386819781D8
:104BC000019686839783E7CFC701DF91CF911F912D
:104BD0000F91FF90EF9008950F931F93CF93DF9362
:104BE000FC01C281D381248135812150310980812A
:104BF0009181280F391F8B0180E090E08417950781
:104C0000A1F0668177818617970778F4BE01680F57
:104C1000791FDB016C91D8016D938D012C173D0735
:104C200010F4C081D1810196E9CFDF91CF911F911E
:104C30000F910895CF93DF93FC012481358121509A
:104C4000310980819181280F391FEB0180E090E0CC
:104C500084179507E1F066817781672BC1F0A28107
:104C6000B3816C916993628173816F5F7F4F6283BF
:104C70007383A681B7811197A683B7832617370759
:104C800020F460817181628373830196E1CFDF91AB
:104C9000CF91089580934F30909350300895809134
:104CA0004F3090915030089541E068ED81E690E0FA
:104CB0000E944B2E80E00895E0EAF8E0848188604D
:104CC0008483858181608583E3EFFBE280818E7F31
:104CD000808313868EE00895E3EFFBE280818E7F70
:104CE0008083138680E00895E0EAF8E084818360A1
:104CF0008483E3EFFBE280818E7F8083138680E0F4
:104D00000895E3EFFBE28081886080838181880FD2
:104D100081608093A70884E008950C948126E3EFD6
:104D2000FBE28081886080838181880F8093A7085F
:104D300083E008950C948F268091F32B877F8093D6
:104D4000F32B82E08093FE2BE091032CF091042C56
:104D500080910F2C9091102C0995823021F0833096
:104D600021F40C948F260C9481260C947426E0EA8E
:104D7000F8E084818B7F848384E00895E0EAF8E0A2
:104D800084818B7F848383E00895E0EAF8E0848166
:104D900084608483848183608483E3EFFBE2808189
:104DA0008E7F8083138680E00895E0EAF8E08481B6
:104DB0008460848388E008958091A508886080934A
:104DC000A50882E08093FE2BE091012CF091022C4B
:104DD00080910D2C90910E2C0995823021F083301A
:104DE00021F40C948F260C9481260C945C26E0EA26
:104DF000F8E0848188608483858181608583E3EF26
:104E0000FBE280818E7F808382E083878EE008953D
:104E10008091A508806C8093A5088091F32B83FF77
:104E200007C08091A50884FF03C08FE08093FD2B0D
:104E30008091A50883FF03C080E18093FD2B8091C2
:104E4000A50882FF03C081E18093FD2BE091FD2B3B
:104E5000F0E0EE0FFF1FEC55F74D0190F081E02DD3
:104E600009958093FD2B089581E0089585E00895CC
:104E700090E0FC01EE0FFF1FE150F44D611571054C
:104E800051F060837183880F991FFC01E55FF34D3A
:104E900040835183089524E337E220833183880FD0
:104EA000991FFC01E55FF34D1082118208958091F6
:104EB000A50884FF13C0E091052CF091062C809189
:104EC000112C9091122C0995823021F0833021F41D
:104ED0000C948F260C9481260C9474268091F32BCD
:104EE000877F8093F32BE091F52BF091F62BCF0188
:104EF00001968093F52B9093F62B80818093A808E0
:104F00008091F72B9091F82B01978093F72B90933A
:104F1000F82B892B11F485E0089583E008958091A2
:104F2000F32B877F8093F32B8091F72B9091F82BB5
:104F30002091A4088130910511F4246001C02B7FD9
:104F40002093A40801978093F72B9093F82BE0917E
:104F5000F52BF091F62B892B09F58091A808808319
:104F60008091F52B9091F62B01968093F52B9093E1
:104F7000F62B8091F32B84608093F32BE091FF2B31
:104F8000F091002C80910B2C90910C2C0995825063
:104F9000823010F40C94D5260C94C5268091A80874
:104FA00080838091F52B9091F62B01968093F52BC1
:104FB0009093F62B8091A40882608093A40884E0EB
:104FC00008958091A50884FF0EC0E091052CF09112
:104FD000062C8091112C9091122C09958230B9F0F9
:104FE0008330B9F01AC08091F32B84608093F32B47
:104FF000E091FF2BF091002C80910B2C90910C2CC8
:105000000995833031F0843031F0823031F40C94E2
:1050100081260C948F260C9457270C9474260C949C
:105020008126AB01BC0180E00C943827AB01BC01A8
:1050300082E00C943827E0EAF8E08DE2868381EC88
:10504000838380E008959091F32B91FD53C080936A
:10505000F42B892F847F9EE09093FD2B24EF31E089
:105060002093FB2B3093FC2B826084608093F32B86
:1050700084E397E28093FF2B9093002C10920B2CEB
:1050800010920C2C8093012C9093022C10920D2CDA
:1050900010920E2C8093032C9093042C10920F2CC2
:1050A0001092102C8093052C9093062C1092112CAA
:1050B0001092122C86E397E28093072C9093082C91
:1050C0001092132C1092142C8091A4088860809365
:1050D000A4088091A50881608093A5088091A50807
:1050E000806C8093A5088091A308806C8093A308AE
:1050F00080E0089581E008958091A50882FF08C0AE
:105100008091F32B8E7F8093F32B82E08093FE2B94
:105110008091F32B80FD13C08D7F8093F32B8FEF55
:105120008093F42B8091A508806C8093A5088091D2
:10513000A3088F738093A3088091FE2B089581E0CC
:1051400008959C019091F32B92FF0CC02093F52BB6
:105150003093F62B6093F72B7093F82B892F8B7F6E
:105160008093F32B08959091F32B90FD0EC09160E6
:105170009093F32B882311F081E001C082E08093AB
:10518000FD2B0E94082780E0089581E0089580E0CB
:105190000C94B3281F920F920FB60F9211242F93E5
:1051A0003F934F935F936F937F938F939F93AF93AF
:1051B000BF93EF93FF930E940827FF91EF91BF9158
:1051C000AF919F918F917F916F915F914F913F919F
:1051D0002F910F900FBE0F901F90189580E00895AB
:1051E000E0E9F4E0808188608193E83984E0F807A1
:1051F000C9F7E0EBF4E0808188608193E83B84E0CC
:10520000F807C9F7E0E1F4E0808188608193E83134
:1052100084E0F807C9F7E0E3F4E0808188608193D7
:10522000E83384E0F807C9F7E0E5F4E080818860BE
:105230008193E83584E0F807C9F7E0E7F4E080817E
:1052400088608193E83784E0F807C9F7089581E022
:10525000089583E0089580914008E0913C2CEF5F31
:10526000EF7390913B2CE91759F0E0933C2CF0E060
:10527000E35CF34D808380913A2C8F5F80933A2CCE
:1052800008958091172C882389F0E091182CEF5F06
:10529000EF71E093182CF0E0E65EF34D808180938F
:1052A00042088091172C81508093172C8091172CE5
:1052B000811105C0809145088F7D80934508089530
:1052C0001F920F920FB60F9211242F933F934F937B
:1052D0005F936F937F938F939F93AF93BF93EF935E
:1052E000FF93E091CA28F091CB28309709F00995F7
:1052F000FF91EF91BF91AF919F918F917F916F91AE
:105300005F914F913F912F910F900FBE0F901F9083
:1053100018951F920F920FB60F9211242F933F935F
:105320004F935F936F937F938F939F93AF93BF93AD
:10533000EF93FF93E091C828F091C928309709F0C6
:105340000995FF91EF91BF91AF919F918F917F91BF
:105350006F915F914F913F912F910F900FBE0F90E2
:105360001F9018951F920F920FB60F9211240F9055
:105370000FBE0F901F90189590913A2C81E09111DB
:1053800001C080E0089580913A2C8823E1F3E091F8
:105390003B2CEF5FEF73E0933B2C0FB6F8940F922A
:1053A00080913A2C815080933A2C0F900FBEF0E000
:1053B000E35CF34D808108959091192C9F5F9F715C
:1053C0002091172C2032E1F3E92FF0E0E65EF34D57
:1053D00080839093192C0FB6F8940F928091172C1C
:1053E0008F5F8093172C0F900FBE809145088062CD
:1053F0008093450808950E94DC2980E090E008959C
:10540000E0E4F8E086E490E18087918780EC868391
:1054100083E0878310923B2C10923C2C10923A2C04
:105420001092182C1092192C1092172C8CEC98E2D8
:105430008093F2309093F33080E0089560E070E064
:10544000CB010895809141018111FCCF81E08093CF
:10545000400180934701809342010895E0E4F1E028
:1054600082818E7F82831092822C1092832C1092E4
:10547000842C1092852C10927D2C0895CF92DF926F
:10548000EF92FF920F931F930FEF1FEF20E030E09A
:1054900068017901C61AD70AE80AF90AC0927E2C77
:1054A000D0927F2CE092802CF092812C809141014F
:1054B00081FDFCCF80917E2C90917F2CA091802C3F
:1054C000B091812C80934801909349011F910F91D5
:1054D000FF90EF90DF90CF900895CF92DF92EF9200
:1054E000FF920F931F930091822C1091832C209197
:1054F000842C3091852C600F711F821F931F209187
:105500007D2C222319F1009148011091490120912D
:10551000430120FD03C020E030E004C00FEF1FEF87
:1055200020E030E0C0907E2CD0907F2CE090802C4A
:10553000F090812CDC01CB018C199D09AE09BF09CB
:10554000BC01CD01600F711F821F931F1F910F912E
:10555000FF90EF90DF90CF9008950F931F93CF931C
:10556000DF93C091882CD091892C60E070E0CB0152
:105570000E946D2A209781F00E811F812885398530
:10558000061B170B280B390B0E831F8328873987BF
:105590000C80DD81C02DEECF0091822C1091832CE8
:1055A0002091842C3091852C061B170B280B390B6E
:1055B0000093822C1093832C2093842C3093852C81
:1055C000DF91CF911F910F910895BF92CF92DF92FB
:1055D000EF92FF920F931F93CF93DF93EC01CE8056
:1055E000DF80E884F9840091882C1091892C1C823A
:1055F0001D828091822C9091832CA091842CB0915B
:10560000852CC816D906EA06FB0668F40E94AD2A66
:105610002FEFE21AF20AC61AD70AE80AF90ACE826E
:10562000DF82E886F986E0E0F0E0BB24B394011560
:10563000110561F0D80116964D915D916D917C91A7
:105640001997C416D506E606F70620F4B1E0BB129A
:1056500021C005C0B12CF80104811581E8CF6FEF9E
:105660007FEF80E090E00E943E2AB0924301E091FB
:10567000882CF091892C28E2EA3DF20719F4048085
:10568000F581E02DEC83FD83C093882CD093892C89
:1056900081E007C0848195818C839D83C483D583F9
:1056A00080E0DF91CF911F910F91FF90EF90DF90FD
:1056B000CF90BF9008950F931F93809142018E7FEA
:1056C00080934201E091882CF091892C309721F44D
:1056D0001F910F910C942E2A0091822C1091832CF3
:1056E0002091842C3091852C86819781A085B1856D
:1056F000BC01CD01601B710B820B930B6115710511
:1057000021E08207910508F18091822C9091832CF1
:10571000A091842CB091852C0197AF4FBF4F8093FF
:10572000E0289093E128A093E228B093E328E09347
:10573000DE28F093DF288AED98E28093882C9093FE
:10574000892C6FEF7FEF80E090E00E943E2A8091ED
:10575000420181608093420181E080937D2C1F9102
:105760000F910895FC0180819181892BA1F1809195
:1057700042018E7F80934201808191818617970735
:1057800061F4A081B18114968D919C9115978083CD
:1057900091830E945B2B81E008950190F081E02DC0
:1057A000A0E0B0E0309781F0E617F70741F484817C
:1057B000958114968D939C93159781E006C0DF0127
:1057C0000480F581E02DEECF80E090914201916060
:1057D00090934201089580E00895CF93DF93EC0108
:1057E000BC0188E89CE20E94B22B811105C0BE0179
:1057F00086E89CE20E94B22B1C821D82DF91CF9131
:105800000895FC01148215822091862C3091872CFA
:10581000232B29F48093862C9093872C0895E09174
:10582000862CF091872C248135812115310511F0CA
:10583000F901F9CF848395830895CF92DF92EF9297
:10584000FF92CF93DF93EC016A017B010E94ED2B65
:10585000809142018E7F80934201C701B6010E9470
:105860006D2A6E837F8388879987CE010E94E52AFF
:10587000882341F0DF91CF91FF90EF90DF90CF90A0
:105880000C945B2B80917D2C882329F08091420120
:10589000816080934201DF91CF91FF90EF90DF9084
:1058A000CF900895CF93DF938091862C9091872C91
:1058B000892B79F190914201809142018E7F8093F2
:1058C0004201C091862CD091872CE091862CF091DA
:1058D000872C248135812093862C3093872C1C8241
:1058E0001D8290FF05C0809142018160809342013A
:1058F000E881F9818A819B810995AB01BC01411541
:1059000051056105710529F0CE01DF91CF910C940D
:105910001D2CDF91CF9108951F920F920FB60F9219
:1059200011242F933F934F935F936F937F938F93A4
:105930009F93AF93BF93CF93DF93EF93FF938091A8
:10594000882C9091892CFC01C481D5814681578196
:10595000608571854093822C5093832C6093842CB6
:105960007093852C10927E2C10927F2C1092802C9C
:105970001092812CF8E28A3D9F0711F00E94012CC1
:10598000C093882CD093892C0E945B2B81E080935C
:105990004301FF91EF91DF91CF91BF91AF919F9123
:1059A0008F917F916F915F914F913F912F910F90C8
:1059B0000FBE0F901F90189502980A98E2E1F4E04C
:1059C0008081877F808380818F7780838081887FBB
:1059D000808365986D98E5E7F4E08081877F808318
:1059E00080818F7780838081887F84608083A69880
:1059F000AE98E6EBF4E080818860808380818F77C9
:105A000080838081887F8083019A0998E1E1F4E0B6
:105A10008081877F808380818F7780838081887F6A
:105A20008083049A0C98E4E1F4E08081877F80838E
:105A300080818F7780838081887F808303980B9813
:105A4000E3E1F4E08081877F808380818F778083AA
:105A50008081887F8083069A0E98E6E1F4E0808159
:105A6000877F808380818F7780838081887F808318
:105A700005980D98E5E1F4E08081877F808380813F
:105A80008F7780838081887F8083079A0F98E7E1F2
:105A9000F4E08081877F808380818F77808380811D
:105AA000887F8083A198A998E1EBF4E08081877FCB
:105AB000808380818F7780838081887F8083A09A94
:105AC000A898E0EBF4E08081877F808380818F77E6
:105AD00080838081887F8083A398AB98E3EBF4E098
