:100000000C94DE000C94FB000C949A4C0C94FF2989
:100010000C94FB000C94FB000C94FB000C94FB0074
:100020000C94FB000C94FB000C94FB000C94FB0064
:100030000C94FB000C94FB000C94FB000C94470800
:100040000C94FB000C94FB000C94FB000C94FB0044
:100050000C94FB000C94FB000C94142D0C94FB00EE
:100060000C94FB000C94FB000C94FB000C94FB0024
:100070000C94FB000C9492470C94FB000C94E1262A
:100080000C940A270C9433270C94FB000C94FB006F
:100090007A177A1789175C176A176F1781178117F4
:1000A0009A175717C317C317C317C3177417EC252D
:1000B000E625F825F2250A26FE2504260009121B4E
:1000C000242D363F48415A536C657E7719100B0238
:1000D0003D342F265158434A757C676E323B2029A8
:1000E000161F040D7A7368615E574C452B22393018
:1000F0000F061D14636A7178474E555C646D767FF8
:100100004049525B2C253E3708011A137D746F66F7
:1001100059504B42353C272E1118030A565F444D67
:10012000727B60691E170C053A3328214F465D54D7
:100130006B627970070E151C232A31384148535AD7
:10014000656C777E09001B122D243F3658514A43B7
:100150007C756E671019020B343D262F737A616827
:10016000575E454C3B3229201F160D046A63787197
:100170004E475C55222B3039060F141D252C373E77
:100180000108131A6D647F7649405B523C352E2777
:1001900018110A03747D666F5059424B171E050CE7
:1001A000333A21285F564D447B7269600E071C1557
:1001B0002A233831464F545D626B707911241FBE7B
:1001C000CFEFCDBFDFE3DEBF19E2A0E0B8E2EBEB9B
:1001D000FEEA02C005900D92A232B107D9F720E3E2
:1001E000A2E2B9E201C01D92A93BB207E1F70E9469
:1001F00052260C9498510C940000621B730B840BD4
:10020000950B0895A4E0B0E0E8E0F1E00C947151A2
:100210008C010E94BC0169837A838B839C83F801E3
:100220008285938597FF0EC0E091B730F091B8308A
:10023000309741F063EB70E3CE0101960995F80128
:1002400082879387F801828593851816190694F49E
:10025000092E000CAA0BBB0B49815A816B817C8152
:100260006A017B01C81AD90AEA0AFB0AC982DA8242
:10027000EB82FC8289819A81AB81BC814091B33051
:100280005091B4306091B5307091B630841B950BAD
:10029000A60BB70B89839A83AB83BC83B801CE01CD
:1002A00001960E947A0169817A818B819C812496D2
:1002B000E8E00C948A510FB6F8946093AF307093D5
:1002C000B0308093B1309093B2300FBE0895FC01EE
:1002D0000FB6F8946091AF307091B0308091B1302A
:1002E0009091B2300FBE309721F06083718382838A
:1002F00093830895A4E0B0E0E0E8F1E00C9471513C
:100300006C017B01E091B730F091B830309729F063
:1003100063EB70E309958C0102C00FEF1FEFF6014C
:1003200040815181628173818091B3309091B4306A
:10033000A091B530B091B630840F951FA61FB71F9E
:10034000101611064CF4A801012E000C660B770B59
:10035000840F951FA61FB71F89839A83AB83BC8325
:10036000B701CE0101960E946702F7010287138749
:100370002496E8E00C948A51A0E0B0E0E2ECF1E0D1
:100380000C946D51EC01EE81FF818F01045611092F
:10039000B9F0CF01855691096C0197FF03C023E0A6
:1003A000C20ED11CD594C794D594C7946CE97FEF45
:1003B0000E94BD4CC60ED71E8FEFC81AD80A02C0C5
:1003C000C12CD12C2DE631E0D8010E94084D0D2C16
:1003D000000CEE08FF08C60ED71EE81EF91E8B8122
:1003E000082E000C990B8C01015011092D8122302F
:1003F0002CF4222379F1015E1F4F2CC0CF018459C8
:10040000984F0E942E03282F30E0255C3F4F200F8D
:10041000311F8D81082E000C990B029785309105B4
:1004200014F027563F4F65E070E00E94BD4CAC01D0
:1004300097FF02C04F5F5F4F559547959DE3949F8F
:100440008001959F100D1124020F131F80FF02C021
:10045000015E1F4FC801110FAA0BBB0B9C01AD0120
:100460002C0D3D1D4E1D5F1D60E871E581E090E0A3
:100470000E9438514B015C01AA810A2E000CBB0B73
:1004800020E13EE00E94084D6B017C01A9810A2E0B
:10049000000CBB0B2CE330E00E94084DC60ED71EAB
:1004A000E81EF91E6881862F660F990BAA0BBB0BFD
:1004B0008C0D9D1DAE1DBF1DBC01CD01680D791DAC
:1004C0008A1D9B1DCDB7DEB7ECE00C948651A8E0E9
:1004D000B0E0EDE6F2E00C9471518B01FC0160811B
:1004E00071818281938120E831E541E050E00E94F2
:1004F000D14C69017A012CE330E040E050E00E94E9
:10050000485129833A834B835C8389819A81AB81EB
:10051000BC81F80160836CE370E00E94BD4CDC019B
:10052000CB01F801A1838283C601069667E070E0E3
:100530000E94A94C84832DEA3EE840E050E0C701C8
:10054000B6010E94485129833A836D837E838F834D
:10055000988789819A8124E6289F6001299FD00C81
:1005600011246D817E818F81988525EB35E040E0F7
:1005700050E00E94485129833A836D837E83E9804D
:10058000FA80EE0CFF1CEE0CFF1CEC0CFD1C8D81A8
:100590009E81F5E6EF16F10410F0019604C024E602
:1005A000E216F10419F021E030E002C020E030E072
:1005B000A90144595E4F4817590768F46DE671E088
:1005C000821B930B0E94BD4CDC01CB01E80EF91E8F
:1005D000CD0120E030E044E6E40EF11CF801E682B3
:1005E000F78280879187255C3F4F8217930748F4F5
:1005F0006FE170E00E94BD4CDC01CB01F801858306
:1006000022C069E970E0821B930B0E94BD4CDC01A3
:10061000CB01F82EFF0CFF0CF80E6DE370E0CD015E
:100620000E94BD4CDC01CB01E82EEE0C6FE170E0C6
:10063000CD010E94BD4CDC01CB0122E0280FF20E5F
:10064000FE0CF801F582A383F801128613868381DC
:100650008F5F83832896E8E00C948A519C01237075
:100660003327232B59F464E670E00E94BD4C892B9C
:1006700039F46370772781E0672B19F080E00895E3
:1006800081E0089541E068ED81E690E00E940B383A
:1006900080E0089580910E2D90910F2D08950E9475
:1006A00062210E94E52A0E9471470E94924C0E949A
:1006B00086130E9442030E9481270E94B1070E9474
:1006C000F32C0E94A3270E94E82B0E94E62B08959A
:1006D0000F931F93CF93DF9300D000D0CDB7DEB739
:1006E000082F0E943534DC01CB019F70AA27BB275D
:1006F000803A9340A105B10508F4B0C0AE014F5F48
:100700005F4F60E174E180E090E00E942448182F80
:100710008111A5C089819A81AB81BC819F78A8781D
:10072000B87F9C01AD0130614161516029833A83FA
:100730004B835C8360E174E180E090E00E94274895
:100740000023E1F120E030E0A90168E072E081E0FF
:1007500090E00E9427482BEA30E040E050E06CE057
:1007600072E081E090E00E94274821E030E040E024
:1007700050E064E172E081E090E00E94274820E0D0
:1007800030E0A9016CE172E081E090E00E9427482E
:1007900021E830E040E050E064E072E081E090E089
:1007A0000E94274868E172E081E090E00E942148C1
:1007B0006130710581059105A9F73BC020E030E06B
:1007C000A90168E072E081E090E00E94274829EBEF
:1007D00030E040E050E06CE072E081E090E00E94A8
:1007E000274821E030E040E050E064E172E081E041
:1007F00090E00E94274820E030E0A9016CE172E01F
:1008000081E090E00E94274821E830E040E050E09D
:1008100064E072E081E090E00E94274868E172E0C5
:1008200081E090E00E9421486130710581059105C9
:10083000A9F789819A81AB81BC819F78A878B87F1C
:100840009C01AD01416029833A834B835C8360E165
:1008500074E180E090E00E94274801C010E0812F01
:100860002496CDBFDEBFDF91CF911F910F910895E8
:10087000DC01211531054105510549F0E62FF72F1F
:1008800081918D932150310941095109C9F708958A
:10089000FC01211531054105510531F061932150CD
:1008A000310941095109D1F70895FC012081222322
:1008B00041F0319680E090E0019621912111FCCF2A
:1008C000089580E090E008958091122D8D7F8460DE
:1008D0008E7F8093122D60E070E0CB0108950F931E
:1008E0001F93CF93DF93CDB7DEB72C97CDBFDEBF7D
:1008F0008B018B3109F444C020F4893009F45EC0C7
:1009000082C08C3219F0823309F17DC0DB018C91F9
:1009100081110DC042E350E060E070E088E098E2B1
:100920000E9470298091122D81608093122DE09198
:100930002429F0912529309709F465C08091122D62
:1009400080FD61C0D8018C9109955DC080E793EE70
:100950000E941645811157C08091122D80FF09C059
:1009600088E098E20E945C298091122D8E7F80930E
:10097000122D8091122D82608B7F8093122D43C0A7
:10098000FB0180819181009709F43DC024812B8374
:1009900025812A83268129838C5697408F839887C7
:1009A000828181508E8383818C831B861C86CE013D
:1009B00001960E9402010E945B0125C0FB01ED59D6
:1009C000FF4F808181111FC0319780814AE0BE01B5
:1009D0006F5F7F4F90E00E94B64DB8016F5D7F4F13
:1009E000AE014F5F5F4FC8010E94E81188EDA895E6
:1009F00084BF80910001816080930001809101019A
:100A000081FDFCCFFFCF2C96CDBFDEBFDF91CF9114
:100A10001F910F9108950E94663D64EF71E080E0A0
:100A200090E0089580E090E00E94FE3B62E370E079
:100A300080E090E008950F931F93CF93DF93CDB79D
:100A4000DEB72E97CDBFDEBF8E010F5F1F4F8EE04A
:100A5000F80111928A95E9F78FE694E089839A83E9
:100A60000E94F04180E090E00E941E220E94BF4759
:100A70008091102D9091112D8093242990932529F8
:100A80000E94EA47C8010E94C23B0E94D6412E96AE
:100A9000CDBFDEBFDF91CF911F910F910895CF930E
:100AA000DF93CDB7DEB7C858D109CDBFDEBF9E01F9
:100AB0002F5F3F4F88E8D9011D928A95E9F789E0B9
:100AC000E4E3F3EED90101900D928A95E1F7FE017E
:100AD0003A9688E1DF011D928A95E9F791E09AA3A1
:100AE0008AE08CA38BE0E5E5F3EEDE0195960190BC
:100AF0000D928A95E1F7FE01F09680E1DF011D92EB
:100B00008A95E9F721969FAF219780EC23968FAFC6
:100B1000239788EA24968FAF249725969FAF259731
:100B200026969FAF269741E060E078E2C9010E94D7
:100B30000B3DC857DF4FCDBFDEBFDF91CF9108958A
:100B4000CF93C62F8093102D9093112D0E941B05DB
:100B5000C11103C00E944F0508C044EF51E060E09E
:100B600070E08CE198E20E94702942E350E060E07E
:100B700070E082E198E20E947029CF910895E0EA46
:100B8000F8E0848188608483858181608583E6E2E2
:100B9000F9E280818E7F808313868EE00895E6E2FD
:100BA000F9E280818E7F8083138680E00895E6E2FB
:100BB000F9E28081886080838181880F81608093E1
:100BC000A70884E008950E94D70508950E94D705DC
:100BD0000895E6E2F9E28081886080838181880F50
:100BE0008093A70883E008950E94E9050895E0EA4C
:100BF000F8E084818B7F848384E00895E0EAF8E064
:100C000084818B7F848383E00895E0EAF8E0848127
:100C10008460848388E00895E0EAF8E08481886055
:100C20008483858181608583E6E2F9E280818E7F1D
:100C3000808382E083878EE00895CF93DF93E0EA9C
:100C4000F8E08581806C85838091262983FF07C029
:100C50008091A50884FF03C08FE0809330298091A4
:100C6000A50883FF03C080E1809330298091A50807
:100C700082FF03C081E180933029C6E2D9E2EA8590
:100C8000F0E0EE0FFF1FEA5DF74D0190F081E02DDF
:100C900009958A87DF91CF91089581E0089585E0D5
:100CA00008956115710581F090E0FC01EE0FFF1FC2
:100CB000EE5CF64D60837183880F991FFC01E25C46
:100CC000F64D40835183089590E0FC01EE0FFF1F25
:100CD000EE5CF64D2DE436E020833183880F991FBA
:100CE000FC01E25CF64D108211820895E0EAF8E022
:100CF000858188608583A6E2B9E282E01B968C93A9
:100D00001B971E96ED91FC911F975A968D919C9181
:100D10005B970995823019F0833021F006C00E945C
:100D2000D70508950E94E90508950E94BF0508951A
:100D3000E0EAF8E084818460848384818360848332
:100D4000E6E2F9E280818E7F8083138680E0089559
:100D5000CF93DF93E6E2F9E28081877F808384810D
:100D60009581019731F4E0EAF8E08481846084831E
:100D700005C0E0EAF8E084818B7F8483E6E2F9E253
:100D800084819581019784839583892BA9F0DF0164
:100D9000C281D381E0EAF8E08085888312968D9144
:100DA0009C911397019612968D939C93139784812F
:100DB0008260848384E026C0A6E2B9E21296ED91B7
:100DC000FC9113978091A808808312968D919C9135
:100DD0001397019612968D939C9313978C91846030
:100DE0008C931C96ED91FC911D9758968D919C913A
:100DF000599709958250823018F40E94050602C066
:100E00000E949806DF91CF910895E0EAF8E084818E
:100E100083608483E6E2F9E280818E7F808313869B
:100E200080E00895A6E2B9E28C91877F8C9382E0FE
:100E30001B968C931B975096ED91FC9151975C9665
:100E40008D919C915D970995823019F0833021F046
:100E500006C00E94D70508950E94E90508950E94E2
:100E6000050708958091A50884FF19C0A6E2B9E29C
:100E70005296ED91FC9153975E968D919C915F9760
:100E80000995823019F0833021F006C00E94D70501
:100E900008950E94E90508950E9405070895E6E275
:100EA000F9E28081877F8083A281B381CD010196A1
:100EB000828393838C918093A80884819581019784
:100EC00084839583892B11F485E0089583E0089548
:100ED0008091A50884FF19C0A6E2B9E25296ED916F
:100EE000FC9153975E968D919C915F970995823006
:100EF00019F0833021F006C00E94D70508950E94A2
:100F0000E90508950E9405070895A6E2B9E28C91CB
:100F100084608C931C96ED91FC911D9758968D9151
:100F20009C9159970995833039F0843041F0823093
:100F300049F40E94D70508950E94E90508950E948A
:100F4000320708950E9405070895AB01BC0180E0B7
:100F50000E9451060895AB01BC0182E00E94510637
:100F60000895E0EAF8E08DE2868381EC838380E0F7
:100F700008959091262991FD36C0E6E2F9E2818339
:100F8000892F847F9EE0928724EF31E0208731878C
:100F90008260846080838DE496E084879587108EDC
:100FA000118E86879787128E138E808B918B148E6D
:100FB000158E828B938B168E178E8FE496E0848B22
:100FC000958B10A211A2E0EAF8E084818860848306
:100FD0008581816085838581806C85838381806C38
:100FE000838380E0089581E008958091A50882FFC1
:100FF00007C0E6E2F9E280818E7F808382E083870A
:101000008091262980FD17C0E6E2F9E28D7F80837A
:101010008FEF8183A0EAB8E015968C911597806CCC
:1010200015968C93159713968C9113978F7313962F
:101030008C938385089581E008959C0190912629E1
:1010400092FF09C0E6E2F9E2228333836483758369
:10105000892F8B7F808308959091262990FD11C060
:10106000E6E2F9E291609083882321F081E08093A9
:10107000302903C082E0809330290E941D0680E061
:10108000089581E0089580E00E942C0808951F9241
:101090000F920FB60F9211242F933F934F935F93AC
:1010A0006F937F938F939F93AF93BF93EF93FF9330
:1010B0000E941D06FF91EF91BF91AF919F918F917B
:1010C0007F916F915F914F913F912F910F900FBE44
:1010D0000F901F901895813011F00E94724C089566
:1010E000CF92DF92EF92FF9280E090E00E94670142
:1010F0006B017C010E94874C8823D9F020914A29FA
:1011000030914B2940914C2950914D29C701B6018E
:101110000E94FD00161617061806190654F4C09210
:101120004A29D0924B29E0924C29F0924D290E94F5
:101130001626B69B0E947E4CB59905C08091122D53
:1011400082608093122D8091122D81FD02C06B9AD6
:1011500001C06B9882FD02C0689A01C068980E9425
:10116000874C811102C06A9A01C06A9864E670E0F7
:1011700080E090E0FF90EF90DF90CF900895CF93C4
:1011800088EDA89584BF80910001807F8093000145
:101190000E944F030E94CC2C0E94AA1E84E598E274
:1011A0000E94BE1E84E598E20E94EE2C78940E9474
:1011B000204941E55DE262E37DE283E19DE20E9438
:1011C000B0118091132D8F3FC9F489E0E4E8F3EE6C
:1011D000A3E1BDE201900D928A95E1F78AE0EDE886
:1011E000F3EEA2E3BDE201900D928A95E1F74AE0A9
:1011F00061E57DE282E090E00E94B64D84E598E2F0
:101200000E94884684E598E20E94BE1E84E598E22A
:101210000E94E62C86B361E0C82FC07486FF60E0B0
:101220008BE698E00E94A005CC2361F084E598E26B
:101230000E94754C44E650E060E070E08AE498E279
:101240000E9470290E94CC2CCF9108950E94C82939
:101250000895611571058105910559F0E3ECF9E0F8
:101260003197F1F700C000006150710981099109BF
:10127000A9F7089585E00E94022D08950F931F930A
:1012800065E088E10E948012A0E0B0E0072E73E1E3
:10129000880F991FAA1FBB1F7A95D1F7702D9C014B
:1012A000AD01012E13E155954795379527951A9570
:1012B000D1F7102DA4E6B0E00E940F4D8B019C01E8
:1012C000992324F4015F1F4F2F4F3F4FD901C801CD
:1012D000689413F8B595A795979587951694D1F7C7
:1012E0001F910F910895E0914E29F0914F29309769
:1012F00001F1A081B1812C91022E000C330B482FFB
:1013000050E02417350761F0359669F0A081B1816E
:101310002C91022E000C330B90E02817390731F482
:101320008E2F9F2F089580E090E0089580E090E058
:1013300008953596EBCF823049F4772761307105F7
:1013400089F06230710541F462E00DC08FE2809354
:1013500050298FEF9FEF08958FE2809350298FEFF0
:101360009FEF089561E0423038F482E090E00E94FF
:10137000124288236CF406C086E1809350298FEFD7
:101380009FEF08958DE0809350298FEF9FEF089590
:10139000082E000C990B0895AF92BF92CF92DF9266
:1013A000EF92FF920F931F93CF93DF93CDB7DEB7EA
:1013B0006097CDBFDEBF8C016B015A010E9473099B
:1013C0007C01892B09F44FC0F601819191918983A9
:1013D0009A832EE0DE01139601900D922A95E1F793
:1013E0000297D9F582E090E089839A834A2DBE0165
:1013F0006F5F7F4F802F0E941443882341F1873F06
:1014000001F18A3F99F5112334F486E28093502943
:101410008FEF9FEF2DC0CD2831F481E380935029C9
:101420008FEF9FEF25C0AB2831F486E180935029E0
:101430008FEF9FEF1DC086E2809350298FEF9FEFC3
:1014400017C085E0809350298FEF9FEF11C082E095
:10145000F701848380E090E00BC08FE280935029F5
:101460008FEF9FEF05C08FEF9FEF02C08FEF9FEFD1
:101470006096CDBFDEBFDF91CF911F910F91FF909E
:10148000EF90DF90CF90BF90AF90089580934E295A
:1014900090934F290895CF92DF92EF92FF920F938E
:1014A0001F93CF93DF93232B31F086E18093502954
:1014B0008FEF9FEF37C06A017B01EC0100E010E085
:1014C00098010E941B44882341F1823F01F18A3F29
:1014D00039F5DD2334F486E2809350298FEF9FEFB6
:1014E00021C0EF2831F48EE0809350298FEF9FEFD9
:1014F00019C0CD2831F488E2809350298FEF9FEFF7
:1015000011C086E1809350298FEF9FEF0BC087E3D6
:10151000809350298FEF9FEF05C080E090E002C0DC
:101520008FEF9FEFDF91CF911F910F91FF90EF9081
:10153000DF90CF900895CF93C82F0E947309009732
:1015400011F0FC0114828C2F0E94AF44882381F09B
:10155000873F41F08A3F79F489E0809350298FEFEB
:101560009FEF0BC085E0809350298FEF9FEF05C060
:1015700080E090E002C08FEF9FEFCF910895982711
:101580008927982708950E947309009719F0FC0194
:101590008481089580E00895EF92FF920F931F9346
:1015A000CF93DF93232B31F086E1809350298FEF87
:1015B0009FEF37C0EA017B018C0120E030E00E9400
:1015C0009443882349F1823F09F18A3F41F5112371
:1015D00034F486E2809350298FEF9FEF22C0EF28EA
:1015E00031F48EE0809350298FEF9FEF1AC0C937F6
:1015F000D54030F088E2809350298FEF9FEF11C0E3
:1016000086E1809350298FEF9FEF0BC087E3809393
:1016100050298FEF9FEF05C08C2F9D2F02C08FEFB9
:101620009FEFDF91CF911F910F91FF90EF90089561
:10163000EF92FF920F931F93CF93DF93D82FC62F74
:101640007A010E9473098C01009709F45EC0C630CC
:1016500009F118F4C53031F058C0C730B1F0C930C5
:10166000A9F153C0E114F10409F44FC0D701119658
:101670008C91882324F083E0F801848346C08D2F69
:10168000DD0F990B0E949B0A40C083E0D80114969D
:101690008C933BC0E114F104C1F1F70162817381C5
:1016A000161617066CF4DC011296ED91FC91139757
:1016B000D7018D919C91099583E0F801848325C021
:1016C0008D2FDD0F990B0E949B0A1FC0E114F104BE
:1016D000E1F0D7018D919C911197009789F01296B6
:1016E0006D917C9113976115710551F0D801129697
:1016F000ED91FC911397099583E0F801848305C06F
:101700008D2FDD0F990B0E949B0ADF91CF911F91C6
:101710000F91FF90EF9008952F923F924F925F921A
:101720006F927F928F929F92AF92BF92CF92DF92F1
:10173000EF92FF920F931F93CF93DF93CDB7DEB756
:10174000CE54D140CDBFDEBFC55BDE4F88839983C9
:10175000CB54D140211531054105510509F445C44B
:10176000CF5BDE4F68837983C154D1400024369526
:1017700027950794369527950794322F202D6B01D6
:10178000C20ED31EC75BDE4FC882D982C954D14076
:101790008E010F5B1F4FCF5DDE4F08831983C1524F
:1017A000D1409E012F533F4FCD5DDE4F28833983BB
:1017B000C352D140AE014F5F5F4F1A01FA01CF5BB8
:1017C000DE4FA881B981C154D1408C918383119699
:1017D0008C911197828312968C9112978183139624
:1017E0008C911397808314963496CF5DDE4F688179
:1017F0007981C152D140E617F70739F7CB5DDE4F4B
:1018000028823982C552D140CB5DDE4F2881398193
:10181000C552D140D90114964D915D916D917C9145
:101820001797D8968D919D910D90BC91A02DF9019F
:101830003496CB5DDE4FE883F983C552D1402A014F
:101840003B01689416F876946794579447941694DD
:10185000D1F76A017B010B2EB9E1CC0CDD1CEE1C2B
:10186000FF1CBA95D1F7B02D4C285D286E287F2833
:101870006A017B010B2EBEE0CC0CDD1CEE1CFF1CB4
:10188000BA95D1F7B02D4A015B01072E72E1B694EB
:10189000A794979487947A95D1F7702DC828D92862
:1018A000EA28FB28C424D524E624F724689412F8F7
:1018B00076956795579547951694D1F74C255D25F4
:1018C0006E257F25F901C080D180E280F380CB5D59
:1018D000DE4FE881F981C552D14000A111A122A1BA
:1018E00033A10C0D1D1D2E1D3F1D040F151F261F9E
:1018F000371F6C017D010B2EBFE0CC0CDD1CEE1CF4
:10190000FF1CBA95D1F7B02DAC01BD01032E31E11A
:1019100076956795579547953A95D1F7302D4601BD
:101920005701842A952AA62AB72A6C017D010B2E1D
:10193000BDE0CC0CDD1CEE1CFF1CBA95D1F7B02D20
:10194000AC01BD01032E33E1769567955795479518
:101950003A95D1F7302D4C295D296E297F297501E3
:101960006401C426D526E626F726AC01BD01032E68
:101970003AE076956795579547953A95D1F7302D8A
:10198000D701C60184279527A627B727800F911F67
:10199000A21FB31F84AF95AFA6AFB7AFCD5DDE4F2B
:1019A000C880D980C352D140EC15FD0509F02CCF79
:1019B000C55BDE4F08811981CB54D14008571F4FBA
:1019C000CB5BDE4F08831983C554D1409E012F5F46
:1019D0003E4FCD5BDE4F28833983C354D140205E18
:1019E0003F4FC95BDE4F28833983C754D140CD5B5D
:1019F000DE4FE881F981C354D140D801C9014D912E
:101A00005D916D917D914193519361937193E8172D
:101A1000F907A9F7C35EDE4F488159816A817B814E
:101A2000CD51D140C35CDE4F488359836A837B83A9
:101A3000CD53D140C75EDE4F688179818A819B8119
:101A4000C951D140CB5CDE4F688379838A839B8305
:101A5000C553D140CB5EDE4F88819981AA81BB817D
:101A6000C551D140C75CDE4F88839983AA83BB836D
:101A7000C953D140CF5EDE4F88809980AA80BB8059
:101A8000C151D140C35FDE4FC880D980EA80FB805E
:101A9000CD50D140CB5DDE4FC882D982EA82FB8235
:101AA000C552D140C75FDE4FE880F9800A811B81B3
:101AB000C950D140C35DDE4FE882F9820A831B839F
:101AC000CD52D140CB5FDE4F088119812A813B8105
:101AD000C550D140CF5CDE4F088319832A833B83F6
:101AE000C153D140CF5FDE4F488059806A807B80F0
:101AF000C150D140E7E9F3EEC35BDE4FE883F983E1
:101B0000CD54D1403AC0C75CDE4F488159816A81CB
:101B10007B81C953D140CB5CDE4F488359836A83B4
:101B20007B83C553D140C75CDE4F88829982AA82ED
:101B3000BB82C953D140C75DDE4F88809980AA809F
:101B4000BB80C952D140CF5CDE4F688179818A81E8
:101B50009B81C153D140C35DDE4F688379838A8303
:101B60009B83CD52D140CF5CDE4F488259826A823E
:101B70007B82C153D14028013901C35BDE4FE8812C
:101B8000F981CD54D14081919191A191B191C35BE3
:101B9000DE4FE883F983CD54D140950184010F2EA7
:101BA000FAE1000F111F221F331FFA95D1F7F02D14
:101BB000B501A401689415F87695679557954795F2
:101BC0001694D1F76A017B01C02AD12AE22AF32AAE
:101BD000B501A401032E35E1440F551F661F771F81
:101BE0003A95D1F7302D950184010F2EFBE0369503
:101BF000279517950795FA95D1F7F02D042B152BFE
:101C0000262B372B0C251D252E253F25B501A4019C
:101C1000440F551F661F771F440F551F661F771F00
:101C2000440F551F661F771F440F551F661F771FF0
:101C3000440F551F661F771F440F551F661F771FE0
:101C4000440F551F661F771F750164010B2EB9E104
:101C5000F694E794D794C794BA95D1F7B02D4C2950
:101C60005D296E297F294027512762277327F101BB
:101C700001911191219131911F01800F911FA21F9C
:101C8000B31F840F951FA61FB71F75016401C09471
:101C9000D094E094F094CB5CDE4F088119812A81C6
:101CA0003B81C553D140C022D122E222F322C75C3E
:101CB000DE4F488159816A817B81C953D1404821D7
:101CC00059216A217B214C255D256E257F25840FB6
:101CD000951FA61FB71FC35CDE4F288139814A813B
:101CE0005B81CD53D140820F931FA41FB51FCB5DE5
:101CF000DE4F488159816A817B81C552D140480FAE
:101D0000591F6A1F7B1FC75DDE4F488359836A8353
:101D10007B83C952D140930182010F2EFEE1000F57
:101D2000111F221F331FFA95D1F7F02DB301A20125
:101D30007695679557954795769567955795479505
:101D4000402B512B622B732B930182010F2EF3E159
:101D5000000F111F221F331FFA95D1F7F02D7301C9
:101D600062010B2EBDE0F694E794D794C794BA9520
:101D7000D1F7B02DC02AD12AE22AF32AC426D526CB
:101D8000E626F726B301A201032E36E17695679584
:101D9000579547953A95D1F7302D930182010F2E33
:101DA000FAE0000F111F221F331FFA95D1F7F02D13
:101DB000402B512B622B732B97018601042715278B
:101DC00026273727CB5DDE4F088319832A833B8381
:101DD000C552D140CF5CDE4F088119812A813B81F9
:101DE000C153D140C35DDE4F488159816A817B81F7
:101DF000CD52D14004271527262737270421152146
:101E000026213721CF5CDE4F488159816A817B8151
:101E1000C153D140C35DDE4FC880D980EA80FB80CA
:101E2000CD52D1404C215D216E217F210427152701
:101E300026273727CB5DDE4F488159816A817B8118
:101E4000C552D140040F151F261F371F080F191F39
:101E50002A1F3B1FCB5CDE4F688179818A819B8181
:101E6000C553D140C35CDE4F688379838A839B83EB
:101E7000CD53D140CB5DDE4FC882D982EA82FB824E
:101E8000C552D140C35BDE4F88819981CD54D1408A
:101E90008759944E09F037CECF5FDE4F0883198300
:101EA0002A833B83C150D140CB5FDE4F48825982A9
:101EB0006A827B82C550D140CF5CDE4FC880D9801A
:101EC000EA80FB80C153D140C75FDE4FC882D98210
:101ED000EA82FB82C950D140C75DDE4FE880F980BD
:101EE0000A811B81C952D140CF5EDE4FE882F98260
:101EF0000A831B83C151D140CB5EDE4F8882998219
:101F0000AA82BB82C551D140C75CDE4F08811981CE
:101F10002A813B81C953D140C75EDE4F08831983B4
:101F20002A833B83C951D140CB5CDE4F2881398164
:101F30004A815B81C553D140C35EDE4F288339831C
:101F40004A835B83CD51D140C35DDE4F48815981C7
:101F50006A817B81CD52D140C35FDE4F4883598374
:101F60006A837B83CD50D140CB5BDE4F6881798122
:101F7000C554D140CD5BDE4F28813981C354D14057
:101F8000C95BDE4F48815981C754D140F901819125
:101F90009191A191B1919F01FB01C080D180E2801C
:101FA000F3808C0D9D1DAE1DBF1D81939193A19358
:101FB000B193BF012417350749F7CF5BDE4F088186
:101FC0001981C154D140005C1F4FCF5BDE4F0883A5
:101FD0001983C154D140C75BDE4F28813981C95470
:101FE000D1400217130709F0E5CBC25BDE4FCDBF2E
:101FF000DEBFDF91CF911F910F91FF90EF90DF90A7
:10200000CF90BF90AF909F908F907F906F905F9098
:102010004F903F902F90089528EAFC0111922A9545
:10202000E9F7E7E9F4EEDC01A857BF4F87EB94EE40
:1020300041915191619171914D935D936D937D9318
:10204000E817F907A9F708952F923F924F925F92F0
:102050006F927F928F929F92AF92BF92CF92DF92B8
:10206000EF92FF920F931F93CF93DF93EC018B01BD
:1020700049015A018C819D81AE81BF81C12CD12C37
:1020800076016894C6F8C81AD90AEA0AFB0A2C1520
:102090003D054E055F0510F469017A010896A60119
:1020A000B8018C0F9D1F0E944A4D8C819D81AE818D
:1020B000BF81880D991DAA1DBB1D80349105A10506
:1020C000B10528F48C839D83AE83BF8367C01E0156
:1020D00088E0280E311C21E030E040E050E0B10102
:1020E000CE010E948C0B8C189D08AE08BF082401FD
:1020F0003501689415F8769467945794479416942C
:10210000D1F7B8016C0D7D1DA3019201CE010E9493
:102110008C0BD301C2010196A11DB11D880F991F1F
:10212000AA1FBB1F880F991FAA1FBB1F880F991FCB
:10213000AA1FBB1F880F991FAA1FBB1F880F991FBB
:10214000AA1FBB1F880F991FAA1FBB1F4881598157
:102150006A817B81840F951FA61FB71F888399838F
:10216000AA83BB83B501A4014F7355276627772740
:102170004C835D836E837F83002456944794079439
:10218000569447940794542C402CC40CD51CC80179
:102190008C0D9D1DBC01C1010E944A4DDF91CF9164
:1021A0001F910F91FF90EF90DF90CF90BF90AF9075
:1021B0009F908F907F906F905F904F903F902F9067
:1021C00008958F929F92AF92BF92CF92DF92EF923B
:1021D000FF920F931F93CF93DF93EC01062F172FDE
:1021E0004C815D816E817F81C880D980EA80FB80CF
:1021F000C40ED51EE61EF71EC882D982EA82FB8273
:10220000CC0CDD1CEE1CFF1CCC0CDD1CEE1CFF1CE2
:10221000CC0CDD1CEE1CFF1C87EF9FEFAFEFBFEF78
:10222000841B950BA60BB70B4C015D012FE382229B
:102230009924AA24BB24DB01CA010196A11DB11D6A
:102240008C839D83AE83BF83FE01E40FF51F20E8DE
:102250002087A4014C5F5F4F089660E070E08C0F10
:102260009D1F0E94654D8C819D81AE81BF81880D2F
:10227000991DAA1DBB1DAC01BD014C5F5F4F6F4F87
:102280007F4FFE01E40FF51FF086AC01BD014B5FEF
:102290005F4F6F4F7F4FFE01E40FF51FE086AC01EB
:1022A000BD014A5F5F4F6F4F7F4FFE01E40FF51F87
:1022B000D086AC01BD01485F5F4F6F4F7F4F4C83AD
:1022C0005D836E837F830796A11DB11DFE01E80F1C
:1022D000F91FC0869A01AB01689415F85695479589
:1022E000379527951694D1F7BE01685F7F4FCE01D1
:1022F0000E948C0B202F312FFE01E857FF4FCE019B
:1023000088559F4F16C040814E9340815181628114
:102310007381452F562F672F772740835183628320
:1023200073832A173B0779F734969E01E817F9075C
:1023300021F0E9012496DE01E6CFDF91CF911F91D4
:102340000F91FF90EF90DF90CF90BF90AF909F9054
:102350008F900895682F8FE390E00E942451089594
:10236000CF92DF92EF92FF920F931F93CF93DF9361
:10237000C62ED72E7A018C0180E090E0EC012196E8
:102380000E941C51F80181938F01CE01CF31D105FC
:10239000A9F70C2D1D2D6E01FFEFCF1ADF0ACE011C
:1023A0000E941C51F80181938F01E601CE33D105C3
:1023B00091F78EE390E00E941C51F7018083DF913A
:1023C000CF911F910F91FF90EF90DF90CF900895E4
:1023D000AF92BF92CF92DF92EF92FF920F931F9333
:1023E000CF937B018A01FC0101900020E9F731972E
:1023F000CE2FC81BCF3F81F06C0180E090E0F6014A
:1024000061916F015C01FFEFAF1ABF0A0E94245176
:10241000C150C501CF3F99F7F70101900020E9F7BE
:102420003197CE2FCE19CF3F79F08FE190E0F701B1
:1024300061917F016C01FFEFCF1ADF0A0E942451E6
:10244000C150C601CF3F99F7F80160818EE390E05B
:102450000E942451CF911F910F91FF90EF90DF9038
:10246000CF90BF90AF9008950F931F93CF93DF93BA
:102470000097E1F061157105D9F0FB0120813181F0
:1024800021153105B9F042815381452BA9F0EB01AB
:102490008C01B901FC0181810E941E1681110DC0C1
:1024A0006A817B81C8010E94203E07C082EE05C080
:1024B00082EE03C082EE01C082EEDF91CF911F91C8
:1024C0000F910895FC01808191810895FC01828122
:1024D00093810895009731F0FC01828193810E94DD
:1024E000B53D089582EE089562E070E00E941D08F7
:1024F00060E070E080E090E00E94A50782E008952F
:102500001F93CF93DF9300D01F92CDB7DEB7182F64
:102510006B83812F0E94B9078823D9F3BE016F5FB7
:102520007F4F84E792E10E94A50761E070E0CE0151
:1025300003960E941D0860E070E084E196E20E942C
:10254000AB070E9443080E94F5078130E1F38981BF
:102550009A819827892798272396CDBFDEBFDF91E0
:10256000CF911F910895CF93DF93EB019881913024
:1025700009F43FC090F0923019F0933029F033C045
:1025800054E1EDE7F5EE40C099819832B1F198360B
:10259000C1F156E1EBE3F5EE37C02FEF3FEF2A83B1
:1025A0003B835EE0E2EFF5EE9081891311C008C035
:1025B000F9012D5F3F4FD90113974C9148130CC07F
:1025C000818192818A839B83019659F482EF21C095
:1025D0009F012D5F3F4F90E09F5F951748F382EF7B
:1025E00018C080E016C08FEF9FEF8A839B8382EF35
:1025F00010C053E1E9EBF5EE07C056E1E9EFF4EE68
:1026000003C056E1E7EBF4EE2FEF3FEF2A833B8365
:10261000CBCFDF91CF910895AF92BF92CF92DF924F
:10262000EF92FF921F93CF93DF9300D0CDB7DEB729
:102630006C017B01DB016D917C91FC0182810E9428
:10264000B312811157C0D701ED91FC911197A2806F
:10265000B38012968D919C9113970E948F3D182FF5
:10266000811142C0F601418150E0B601D7011296B6
:102670008D919C9113970E94813D182F811134C038
:10268000B50180E090E00E942909B6E0CB0ED11C94
:1026900080ECF60111928A95E9F780EC90E089834D
:1026A0009A83AE014F5F5F4FB601D70112968D91AD
:1026B0009C9113970E94883D182F811115C0898124
:1026C0009A818430910520F4892B69F417EE0CC0AF
:1026D000C6010E94BF16182F811106C0C6010E94B4
:1026E000F216182F01C016EEF701828193810E9425
:1026F000A43D812F0F900F90DF91CF911F91FF90FC
:10270000EF90DF90CF90BF90AF90089580E0089554
:1027100080915129909152290E946A12811104C01E
:10272000109251291092522908950F931F93CF931D
:10273000DF93EC018091512990915229892B11F05E
:102740000E948813E3E5FDE28AE69DE2808391839F
:1027500087E59DE282839383BF01CE010E943412FC
:10276000811126C083E59DE28093512990935229DF
:1027700089818330E1F42091532D3091542D2F5FC6
:102780003F4F01E010E043E150E060E070E080E0A6
:102790000E94421581110CC0E0915129F0915229FB
:1027A0000190F081E02D9181987F918301C080E0BC
:1027B000DF91CF911F910F910895CF93DF930097F1
:1027C000C1F0EC010E946212892BA9F0CE010E9497
:1027D0006612892B91F08091512990915229892B71
:1027E00011F00E948813C0935129D093522980E0A0
:1027F00005C082EE03C081EE01C081EEDF91CF9172
:1028000008950F931F930115110541F0837041F056
:102810008230A1F0813021F082EE1FC082EE1DC017
:1028200050E0440F551F440F551F440F551F27708C
:10283000422BF8014083518380E00FC0277030E0C5
:10284000342B660F771F660F771F660F771F262BB7
:10285000372BF8012083318380E01F910F91089579
:102860004115510509F45AC0E0915129F0915229BE
:102870000280F381E02D0180F281E02D91819111A0
:102880001BC0813059F018F0823079F049C088E5DA
:1028900090E0FA018083918380E0089580E490E0E5
:1028A000FA018083918380E0089580E290E0FA014C
:1028B0008083918380E00895813059F018F0823050
:1028C00079F030C080E890E0FA018083918380E065
:1028D000089580E490E0FA018083918380E0089578
:1028E0006830710538F484E290E0FA0180839183C6
:1028F00080E008956830710539F480EA91E0FA01CA
:102900008083918380E008956031710568F488E4E4
:1029100090E0FA018083918380E0089582EE08952B
:1029200082EE089582EE089582EE0895AF92BF92EE
:10293000CF92DF92EF92FF920F931F93CF93DF938B
:10294000CDB7DEB7C95CD109CDBFDEBFF82E6801B7
:10295000012BB1F1E0915129F0915229A080B18071
:1029600084E0E816D9F180E2E8122CC02EC08F2D49
:102970008068F82EFC82C853DF4F88819981C85C3B
:10298000D0408D839E83BE016F5F7F4FC5010E9443
:10299000AB1681112BC06091512970915229CE0143
:1029A00001960E940C13182F81110EC04E2D50E07D
:1029B000BE01685F7F4FC6010E944A4D812F16C03D
:1029C00082EE14C082EE12C011C08E0108531F4F58
:1029D0008F2D0E940114811109C0C9CF8E010853A7
:1029E0001F4F8F2D0E940114882321F2C753DF4F00
:1029F000CDBFDEBFDF91CF911F910F91FF90EF9080
:102A0000DF90CF90BF90AF900895CF92DF92EF927A
:102A10000F931F93CF93DF93CDB7DEB7A097CDBFB2
:102A2000DEBF009719F16C016894EE24E5F88E0181
:102A30000F5F1F4F20E040E060E070E080E00E9408
:102A40009614811114C029813A81F60120833183C3
:102A50002B813C8122833383D601149695E0FE01BD
:102A6000399601900D929A95E1F701C082EEA096F9
:102A7000CDBFDEBFDF91CF911F910F91EF90DF901F
:102A8000CF9008952F923F924F925F926F927F92D4
:102A90008F929F92AF92BF92CF92DF92EF92FF926E
:102AA0000F931F93CF93DF93CDB7DEB7A597CDBF1D
:102AB000DEBF19821A82833008F0A1C0823021F46F
:102AC0006031710508F09DC00115110509F49BC026
:102AD0002115310509F499C0680119012A016CA377
:102AE0007DA38BA3AE014F5F5F4F0E943014811115
:102AF0008FC029813A81C801840D951D2817390797
:102B000008F485C03201769467947694679476943D
:102B1000679476946794769467946894FF24F5F8A4
:102B2000812C912CA12CB12C80E2F8121CC089813F
:102B30009A819301220F331F22953295307F3227DD
:102B4000207F3227821B930B809768F442018A0C06
:102B50009B1C969487949694879497E08922992455
:102B60006894FF24F2F8EF2C8E010D5F1F4F282D83
:102B7000462D6CA17DA18BA10E949614811148C0A5
:102B8000C301880F991F880F991F880F991F880DFF
:102B9000991D880F991F880F991F8415950520F49A
:102BA000B201681B790B02C060E070E08F2D90E0ED
:102BB000861B970B86010A191B098017910708F4D9
:102BC0008C0183E090E08C0F9D1F680F791FA80196
:102BD000C1018A0D9B1D0E944A4DA00EB11E90E2BC
:102BE000F91204C08FEF681A780A03C09FEF891AA0
:102BF000990AAC14BD0408F497CF80E009C082EEB6
:102C000007C082EE05C080E003C082EE01C082EE04
:102C1000A596CDBFDEBFDF91CF911F910F91FF90A1
:102C2000EF90DF90CF90BF90AF909F908F907F906C
:102C30006F905F904F903F902F90089561157105B0
:102C400029F0FB018083118280E0089582EE0895CF
:102C5000EF92FF920F931F93CF93DF937A01009728
:102C600011F1EB018B01080F191F20E030E016C0B5
:102C7000A32FAA1FAA27AA1F220F331F71E09B2F81
:102C8000952309F470E07A1719F085E02827305869
:102C9000550F319769F7C017D10739F0B991E8E0BE
:102CA000F0E051E0E5CF20E030E0F7012083318310
:102CB000DF91CF911F910F91FF90EF900895BC018C
:102CC0006F5F7F4FFC018181825090E0AB01480F24
:102CD000591F0E9428160895FB0180E48283838196
:102CE00084FF03C08AE0818302C087E08183CF0133
:102CF0000E945F1680E00895CB0127E1FB0122834B
:102D000027E021830E945F1680E00895FB019381F4
:102D1000892F837026E12283823018F48BE181832E
:102D200009C0833061F495FF03C087E4818302C04A
:102D300087E28183CF010E945F1680E0089582EED2
:102D40000895CB012BE1FB01228327E021830E9420
:102D50005F1680E00895CB0122E0FB01228327E08B
:102D600021830E945F1680E00895CB0121E4FB01DE
:102D7000228327E021830E945F1680E00895EF926E
:102D8000FF920F931F93CF93DF9300D0CDB7DEB7A1
:102D90007C01FC0100818EEF800F082F10E0AE0156
:102DA0004F5F5F4FB701C8010E942816F701E00F7F
:102DB000F11F99818081981309C0F701E00FF11F7D
:102DC0009A818181981304C080E003C085EE01C020
:102DD00085EE0F900F90DF91CF911F910F91FF9093
:102DE000EF900895FC012081243049F581818730DE
:102DF000D1F040F4813089F020F1833081F08530CA
:102E000081F01BC08F3099F018F4883071F015C034
:102E1000813179F08F3F79F010C081ED089582ED16
:102E2000089586ED089587ED08958AEF089584EF5B
:102E3000089583EF089584ED089581EE089580E06C
:102E4000089580E00895CF93DF93CDB7DEB726973E
:102E5000CDBFDEBF89839A831B821C826D837E83F4
:102E6000BE016F5F7F4F83E00E9452452696CDBF23
:102E7000DEBFDF91CF910895AF92CF92DF92EF92B4
:102E8000FF920F931F93CF93DF93CDB7DEB72997B0
:102E9000CDBFDEBF898390E0FC01E15CF109EF303A
:102EA000F10508F070C0E85BFF4F0C94F34C6A83A7
:102EB0005B834C8335E079C0BB27A72F962F852FE6
:102EC000A11002C08A8302C080688A834B831C825F
:102ED00035E06BC01A821B821C8235E066C01A8204
:102EE0001B821C8235E061C08FEF8A838B838C83C9
:102EF00035E05BC06A835B834C83DD82CE8237E042
:102F000054C06A835B834C83ED82DE82CF8238E0DB
:102F10004CC0BB27A72F962F852FA11002C08A83F4
:102F200002C080688A834B833C832D831E830F837A
:102F300038E03BC06A835B834C833D832E831F83D1
:102F4000088739E032C02D91F0E0EE0FFF1FE22735
:102F5000E454FF4FE491415051096109710998F718
:102F6000DE01A80FB91FEE0F1196EC9301C031508E
:102F7000632F70E0CE0101960E94231791E0882311
:102F8000C9F090E017C090E015C0832F90E0019742
:102F9000AC01092E000C660B770B415051096109F9
:102FA0007109DE011196EFE7CECF8091532981118F
:102FB000DECFEBCF892F2996CDBFDEBFDF91CF913A
:102FC0001F910F91FF90EF90DF90CF90AF900895F9
:102FD000CF93DF93CDB7DEB72697CDBFDEBF198283
:102FE0001A828B839C836D837E83BE016F5F7F4FCC
:102FF00083E00E9452452696CDBFDEBFDF91CF9180
:1030000008950F931F93CF93DF931F92CDB7DEB731
:10301000082F8F3C21F08BE3800F823040F461E079
:1030200070E0CE0101960E94E817811120C01BE0DC
:1030300061E070E0CE0101960E94E817811119C08D
:103040008981081721F0115099F71BE001C01BE09E
:1030500061E070E0CE0101960E94E81781110BC07B
:103060008981882351F0115099F781E007C080E0F1
:1030700005C080E003C080E001C081E00F90DF91D7
:10308000CF911F910F9108955F926F927F928F92CF
:103090009F92AF92BF92CF92DF92EF92FF920F93E7
:1030A0001F93CF93DF9300D01F92CDB7DEB75C01A3
:1030B0007B01742EC12CD12C512C6894662465F8A8
:1030C00081E0E81680E2F80610F4870102C0052DC1
:1030D000162D0F2EFAE08F2E912CF02D61E070E06E
:1030E000CE0103960E94E81781112DC08B81829535
:1030F0008F708F3031F081E0881A910878F780E086
:1031000029C0181419040CF54801B801C5018C0D2B
:103110009D1D0E94E81781111AC071100CC080918A
:103120005329811108C062E070E0CE0101960E942F
:10313000E81781110EC0C00ED11EE818F90809F079
:10314000BFCF81E007C080E005C080E003C080E021
:1031500001C080E02396CDBFDEBFDF91CF911F91EC
:103160000F91FF90EF90DF90CF90BF90AF909F9026
:103170008F907F906F905F9008954F925F926F92C3
:103180007F929F92AF92BF92CF92DF92EF92FF9287
:103190000F931F93CF93DF93CDB7DEB72697CDBFA5
:1031A000DEBF2B013C0129833A834B835C8381E39F
:1031B000481651046104710410F483EC01C089ECD9
:1031C000B82E81E3481651046104710410F481E0C3
:1031D00001C080E0982E8AE08D83A92CC12CD12CCF
:1031E00076016894C2F809811A812B813C81B30170
:1031F000A2018B2D0E943C178E83813031F48B2DE0
:103200000E9401188E83813009F161E070E080E056
:1032100090E00E94C147A12CC12CD12C760100E086
:1032200010E0980140E050E0BA018FEC0E943C179A
:103230008FEC0E94011861E070E080E090E00E9455
:10324000C1478D8181508D838111C7CF8E81269694
:10325000CDBFDEBFDF91CF911F910F91FF90EF9017
:10326000DF90CF90BF90AF909F907F906F905F90D6
:103270004F9008953F924F925F926F927F928F92FC
:103280009F92AF92BF92CF92DF92EF92FF920F93F5
:103290001F93CF93DF93CDB7DEB72697CDBFDEBFA9
:1032A0002B013C014D835E838FEF4816510461046E
:1032B000710409F010F484EC01C08AEC882EEFEF61
:1032C0004E1651046104710409F010F481E001C04C
:1032D00080E0382E0F2EFAE0BF2EF02DA32CC12C4B
:1032E000D12C76016894C2F800E010E09801B30197
:1032F000A201882D0E943C17982EF1E08F1326C062
:10330000882D0E940118982E81E098121FC0432D2D
:1033100064E070E0CE0101960E944418982EE1E02E
:103320008E1314C02A818B8190E0A0E0B0E0DC0114
:1033300099278827922B2981822B2C81B22BED8112
:10334000FE8180839183A283B3831FC061E070E01C
:1033500080E090E00E94C147A12CC12CD12C7601C5
:1033600000E010E0980140E050E0BA018FEC0E94CC
:103370003C178FEC0E94011861E070E080E090E063
:103380000E94C147BA94B110A9CF892D2696CDBF0E
:10339000DEBFDF91CF911F910F91FF90EF90DF90F3
:1033A000CF90BF90AF909F908F907F906F905F90E5
:1033B0004F903F900895AF92CF92DF92EF92FF929D
:1033C0000F931F93A12CC12CD12C760100E010E0AB
:1033D000980140E050E0BA018FEC0E943C178FEC5E
:1033E0000E94011880E01F910F91FF90EF90DF90F5
:1033F000CF90AF9008951092532980E00895CF9315
:10340000DF9300D000D0CDB7DEB7AE014F5F5F4F86
:103410000E943A1969817A818B819C812496CDBF63
:10342000DEBFDF91CF9108950E943A19813011F0EB
:103430008AEF089580E008950E94BD18813011F050
:103440008AEF089580E00895CF93DF93CDB7DEB77C
:103450002897CDBFDEBF1D821E821F821886109264
:103460005329AE014B5F5F4F64E278EE80E090E05D
:103470000E943A1981110EC081E080935329AE0158
:103480004B5F5F4F64E278EE80E090E00E943A1973
:103490008823D9F180915329811117C08D819E8194
:1034A000AF81B88583789C01AD0120652D833E8373
:1034B0004F83588764E278EE80E090E00E94BD1868
:1034C000882319F181E080935329AE014F5F5F4F4C
:1034D00060E070E180E090E00E943A198823A1F05A
:1034E00064E278EE80E090E00E94FF19DC01CB01FD
:1034F0008F789C01AD01206564E278EE80E090E079
:103500000E941C1A80E001C08AEF2896CDBFDEBF62
:10351000DF91CF9108953F924F925F926F927F9289
:103520008F929F92AF92BF92CF92DF92EF92FF92D3
:103530000F931F93CF93DF9300D000D0CDB7DEB7AA
:103540002B013C014B835C8349010F2EFAE0BF2E17
:10355000F02D312C81E08816910431F4332433941A
:103560006894882481F8912C6401E12CF12CA12C21
:1035700000E010E09801B301A20188EC0E943C1722
:103580008130D1F488EC0E9401188130A9F43320F5
:1035900059F040E0B401CE0101960E94441899818F
:1035A000EB81FC81908306C040E0B4018B819C815B
:1035B0000E944418813001F161E070E080E090E009
:1035C0000E94C147A12CC12CD12C760100E010E053
:1035D000980140E050E0BA018FEC0E943C178FEC5C
:1035E0000E94011861E070E080E090E00E94C14715
:1035F000BA94B110AFCF02C080E001C08AEF249628
:10360000CDBFDEBFDF91CF911F910F91FF90EF9063
:10361000DF90CF90BF90AF909F908F907F906F90F2
:103620005F904F903F9008952F923F924F925F92FC
:103630006F927F928F929F92AF92BF92CF92DF92C2
:10364000EF92FF920F931F93CF93DF93CDB7DEB727
:103650002897CDBFDEBF6D837E838F8398873A0125
:1036600049010F2EFAE0BF2EF02D312C6894222450
:1036700025F881E08816910421F46894882481F863
:10368000912C6401E12CF12CA12C00E010E09801B8
:103690004D815E816F81788587EC0E943C17813077
:1036A00009F06FC087EC0E940118813009F069C0F1
:1036B00019821A828401E12CF12C6801013080E228
:1036C000180710F0C32CD22CE114F10431F40130AE
:1036D00080E2180740F081E009C0013080E218075D
:1036E00020F082E003C083E001C083E0806F8C8320
:1036F00061E070E0CE0104960E942317811141C061
:103700002701B601C3018E0D9F1D0E942317811151
:1037100038C080915329811108C062E070E0CE0169
:1037200001960E94231781112CC07201EC0CFD1C24
:103730000C191D0909F0C1CF47C013E001C012E008
:10374000612F70E0CE0101960E94E817811114C02C
:10375000812F90E0FE01E80FF91F208121110EC09A
:10376000EFEFFFEFEC0FFD1FE80FF91F21E0808165
:10377000833C29F020E003C020E001C020E021309C
:1037800009F161E070E080E090E00E94C147A12C67
:10379000C12CD12C760100E010E0980140E050E00F
:1037A000BA018FEC0E943C178FEC0E94011861E077
:1037B00070E080E090E00E94C147BA94B11059CF08
:1037C0008AEF08C080E006C080915329882309F45D
:1037D000B6CFB3CF2896CDBFDEBFDF91CF911F917B
:1037E0000F91FF90EF90DF90CF90BF90AF909F90A0
:1037F0008F907F906F905F904F903F902F900895A3
:103800000E94B10780E0089580E00895CF93DF9390
:103810001F92CDB7DEB7898389810E94B9078823BB
:10382000D9F360E070E082E196E20E94A50761E0D2
:1038300070E0CE0101960E941D0880E00E942C08D5
:103840000E94F5078130E1F30F90DF91CF91089549
:1038500080E00895EF92FF920F931F93CF93C82FAC
:103860008B017A018C2F0E94B9078823D9F3B70105
:10387000C8010E941D0860E070E084E196E20E94A9
:10388000AB0780E00E942C080E94F5078130E1F32D
:10389000CF911F910F91FF90EF90089583E0FB016E
:1038A00080834F5F5F4F88E50E942A1C80E0089567
:1038B000CF93DF931F92CDB7DEB782E0898341E0DB
:1038C00050E0BE016F5F7F4F88E50E942A1C80E0B8
:1038D0000F90DF91CF910895CF93DF931F92CDB7D3
:1038E000DEB781E0898341E050E0BE016F5F7F4F2A
:1038F00088E50E942A1C80E00F90DF91CF91089507
:10390000EF92FF920F931F93CF93C82F8B017A01F1
:103910008C2F0E94B9078823D9F3B701C8010E94F0
:103920001D0881E00E942C080E94F5078130E1F318
:10393000CF911F910F91FF90EF900895FA01408170
:10394000518188E50E94801C80E00895CF93DF9329
:10395000CDB7DEB72897CDBFDEBF41E060E070E0B5
:1039600080E00E94061C87E893E10197F1F700C010
:10397000000084E08D8381E18E8383E38F8383E481
:10398000888744E050E0BE016F5F7F4F88E50E946A
:10399000801CFE013196DE0115969D0141E091915A
:1039A0008D91981340E0E217F307C9F7411102C067
:1039B00080EF01C080E02896CDBFDEBFDF91CF91C0
:1039C000089588EDA89584BF80910001816080935F
:1039D00000018091010181FDFCCFFFCFCF93FC015D
:1039E000C081C053C53058F48C2F0E94AA118C2F6F
:1039F0000E94E32C8CE196EE0E94F94D04C080E217
:103A000096EE0E94F94DCF91089589E596EE9F9329
:103A10008F938FE596EE9F938F930E94E34D0F90C7
:103A20000F900F900F90089586E696EE9F938F93D8
:103A30008FE596EE9F938F930E94E34D0F900F902A
:103A40000F900F90089580915529909156290097D5
:103A500069F09F938F9380E696EE9F938F930E94D9
:103A6000E34D0F900F900F900F9008958AE696EE19
:103A70009F938F930E94E34D0F900F900895CF93E3
:103A8000DF93CDB7DEB7C85CD109CDBFDEBFCE01B5
:103A900001960E942346811109C0CE0101969F9391
:103AA0008F930E94E34D0F900F9008C086E796EE2B
:103AB0009F938F930E94E34D0F900F90C853DF4F59
:103AC000CDBFDEBFDF91CF910895EF92FF921F939C
:103AD000CF93DF93CDB7DEB72897CDBFDEBF6CE8BD
:103AE00076EE0E94384D009709F465C09E012F5F65
:103AF0003F4F790110E01F5FF701819391937F01A0
:103B00006EE876EE80E090E00E94384D009719F064
:103B1000133089F729C0113031F008F44CC014304B
:103B200008F049C021C069817A814EE150E083E10B
:103B30009DE20E94804D1092322D81E390E08093AF
:103B4000512D9093522D41E55DE262E37DE283E1E8
:103B50009DE20E94E81181E996EE9F938F930E9467
:103B6000E34D0F900F902FC069817A814EE150E0B4
:103B700083E19DE20E94804D6B817C814EE150E0AB
:103B800082E39DE20E94804D82E390E08093512D7C
:103B90009093522D41E55DE262E37DE283E19DE297
:103BA0000E94E81181E996EE9F938F930E94E34D66
:103BB0000F900F9008C087E996EE9F938F930E9415
:103BC000E34D0F900F902896CDBFDEBFDF91CF91D0
:103BD0001F91FF90EF9008950E94F4460E94AE2F2F
:103BE0008CE196EE0E94F94D08955F926F927F925C
:103BF0008F929F92AF92BF92CF92DF92EF92FF92FD
:103C00000F931F93CF93DF930EE118EE0F2EFFEC6F
:103C1000CF2EF6EEDF2EF02D0F2EFDE06F2EF02DC5
:103C20007724739470C00E9444278D3021F08A302D
:103C300009F05AC06DC0E0915829F0E0E75AF64DFE
:103C4000108280915729811146C06DC090915429EE
:103C5000809354299D3009F442C060E270E089E508
:103C600099E20E946C4D5C01009719F0DC011D92F5
:103C70005D01E9E5F9E201900020E9F73197E955A6
:103C8000F9425E2ECEEFD7EE88809980B40189E5A7
:103C900099E20E94774DF40101900020E9F73197F5
:103CA000E819F909811109C05E1207C0EA81FB8198
:103CB000309719F0C50109950AC02496C017D1079D
:103CC00019F7DF92CF920E94E34D0F900F908091F1
:103CD0005729882321F088EB97EE0E94F94D109226
:103CE0005829109257290FC0E0915829E43648F41A
:103CF00091E09E0F90935829F0E0E75AF64D8083AB
:103D000002C0709257290E943D2781118CCF0EC0AE
:103D1000E0915829F0E0E75AF64D1082909157292A
:103D20009111D9CF93CF6092542997CF62E370E07D
:103D300080E090E0DF91CF911F910F91FF90EF9085
:103D4000DF90CF90BF90AF909F908F907F906F90BB
:103D50005F900895E0E4F8E0808184818823E4F3B3
:103D6000E0E4F8E085818068858342E350E060E02C
:103D700070E088E698E20E947029089580935529A2
:103D8000909356290895FC01892B71F1208131818E
:103D90002115310549F184819581009729F14281EE
:103DA00053814150510984179507F0F4D901A80FA8
:103DB000B91F11974C914E3259F4AC014F5F5F4FD0
:103DC00044835583F901E80FF91F2BE720830895F9
:103DD0004B3751F0AC014F5F5F4F44835583F9017E
:103DE000E80FF91F2CE220830895EF92FF920F93C2
:103DF0001F93CF93DF9300D0CDB7DEB70097E1F1EB
:103E000061157105D9F141155105D1F19A01AB0147
:103E10007C01FC01608371832283338314821582C9
:103E200029833A830AEC18E29E012F5F3F4F6BE132
:103E300070E081E398EE0E943138811124C0F701CF
:103E40004481558129813A81240F351F248335838C
:103E500042815381415051092417350798F440811C
:103E60005181B9016F5F7F4F64837583FA01E20F5F
:103E7000F31F9EE2908307C082EE05C082EE03C06E
:103E800082EE01C084EE0F900F90DF91CF911F91D1
:103E90000F91FF90EF9008958F929F92AF92BF92F3
:103EA000CF92DF92EF92FF920F931F93CF93DF9306
:103EB00000D0CDB7DEB7FC015B01892B09F4FFC050
:103EC00080819181009709F4FCC022813381232BEA
:103ED00009F4F9C0448155814115510509F4F5C033
:103EE000DC01A40FB51F11972C912D3779F09A01A1
:103EF0002F5F3F4F24833583DC01A40FB51F2DE7CF
:103F00002C934481558141155105D1F0A081B18197
:103F10008C918E3259F404C08D918E3251F402C0CE
:103F2000C12CD12C6FEFC61AD60A0CC01196C12C29
:103F3000D12C7FEFC71AD70AC416D50668F302C082
:103F4000C12CD12C4A018C189D089401205C3F4F54
:103F5000220F331F220F331FABEABAEA0E94F94C3B
:103F60009695879522813381241B350B039628175C
:103F7000390708F4ACC07F0180819181BC016C0DD0
:103F80007D1DA401820F931F0E94534DD7011296ED
:103F90002D913C91139729833A83ED91FC911197D0
:103FA000AF014C0D5D1D14968D919C911597B90133
:103FB000681B790BCB010AEC18E29E012F5F3F4F83
:103FC000B4018E0F9F1F0E943138811185C0698115
:103FD0007A816C0D7D1DD70114966D937C93159796
:103FE00012962D913C911397C90188559109681734
:103FF000790708F06EC08D919C9120523109AC0177
:10400000420F531F0E94333E811166C0F701608149
:10401000718182819381AC0140545109460F571F31
:104020008097680F791FC5010E94462C811154C0EA
:10403000D7012D913C91119714968D919C911597D4
:10404000AC014F5F5F4F14964D935C931597F90148
:10405000E80FF91F2EE2208312962D913C911397C1
:1040600014964D915C911597C901841B950B89831A
:104070009A83ED91FC914E0F5F1FC9018054910905
:104080009E012F5F3F4F60E470E08E0F9F1F0E94E4
:104090003138F7012481358189819A81820F931FFC
:1040A000848395832281338182179307A0F4208132
:1040B0003181F901E80FF91F108280E00DC082EE16
:1040C0000BC082EE09C082EE07C082EE05C084EE0E
:1040D00003C084EE01C084EE0F900F90DF91CF916A
:1040E0001F910F91FF90EF90DF90CF90BF90AF9016
:1040F0009F908F900895CF92DF92EF92FF920F934F
:104100001F93CF93DF93009709F44FC0FC012081E8
:104110003181232B09F44BC022813381232B09F4F5
:1041200048C06115710509F446C04115510509F4EF
:1041300044C07A018B01EC010E94C31E8C819D81D9
:10414000CA80DB80C81AD90AFF92EF921F930F939F
:104150002EE138EE3F932F93DF92CF922881398161
:10416000820F931F9F938F930E94294EAC01092EBB
:10417000000C660B770B2DB73EB7265F3F4F2DBF68
:104180003EBF1416150616061706CCF4E12CF12CCA
:104190004C155D056E057F05A4F42C813D81820FD1
:1041A000931F8C839D8380E00DC082EE0BC082EE56
:1041B00009C082EE07C082EE05C082EE03C081EE28
:1041C00001C081EEDF91CF911F910F91FF90EF9091
:1041D000DF90CF900895AF92BF92CF92DF92EF928F
:1041E000FF920F931F93CF93DF93009709F454C06E
:1041F000DC01ED91FC911197EF2B09F44FC0129661
:10420000ED91FC911397EF2B09F44AC061157105EC
:1042100009F448C0052F142FA32EB22E6B01EC0118
:104220000E94C31E8C819D81EA80FB80E81AF90AF6
:104230000F931F93AF92BF92DF92CF9228E238EE96
:104240003F932F93FF92EF9228813981820F931F22
:104250009F938F930E94294E8C01092E000C220BF4
:10426000330B4DB75EB7445F5F4F4DBF5EBF101657
:10427000110612061306C4F4A70160E070E00417EB
:1042800015072607370794F42C813D81820F931F71
:104290008C839D8380E00BC082EE09C082EE07C054
:1042A00082EE05C082EE03C081EE01C081EEDF9197
:1042B000CF911F910F91FF90EF90DF90CF90BF9023
:1042C000AF900895E0E9F4E0808188608193E83957
:1042D00084E0F807C9F7E0EBF4E08081886081931F
:1042E000E83B84E0F807C9F7E0E1F4E0808188600A
:1042F0008193E83184E0F807C9F7E0E3F4E08081D6
:1043000088608193E83384E0F807C9F7E0E5F4E0DA
:10431000808188608193E83584E0F807C9F7E0E799
:10432000F4E0808188608193E83784E0F807C9F77A
:104330000895EEE6FDE283818F5F838308950895FB
:10434000CF93DF9300D000D0CDB7DEB71092702DA1
:1043500081E00E940948AE014F5F5F4F60E770E166
:1043600080E090E00E942448811111C089819A81E7
:10437000AB81BC819C01AD01226029833A834B83D0
:104380005C8360E770E180E090E00E94274824961B
:10439000CDBFDEBFDF91CF9108958091702D811147
:1043A00013C080916F2D811108C080916E2D8823DC
:1043B00021F00E945D35811108C0EEE6FDE28181A9
:1043C0008F5F818380E0089580E0089580916F2D54
:1043D000882329F0EEE6FDE281818150818380E02F
:1043E000089580916F2D882329F0EEE6FDE281810A
:1043F0008150818380916F2D811107C080916E2D36
:10440000882329F00E940535089580E0089580E012
:1044100008952AE130E040E050E060E08EE69DE261
:104420000E94480489E991E20E94F6478FE991E2EF
:104430008093822D9093832D80E00895CF930E94E6
:10444000CD21C82F2AE130E040E050E060E08EE668
:104450009DE20E9448048C2FCF9108954F925F9265
:104460006F927F928F929F92AF92BF92CF92DF9284
:10447000EF92FF920F931F93CF93DF93CDB7DEB7E9
:104480006697CDBFDEBFA82EB62E2A01390148019E
:10449000862F8F778A83A98288E090E08B839C8324
:1044A000012B49F08B819C818E0D9F1D8C0D9D1DD4
:1044B0008B839C8306C08B819C81820F931F8B838F
:1044C0009C830E94CD21811150C119861A861B86BA
:1044D0001C86198A1A8A1D861E861F86188A8D8553
:1044E0009E85AF85B8898A298D879E87AF87B88BCF
:1044F0008D859E85AF85B8899B298D879E87AF87DF
:10450000B88B2B813C814D855E856F857889C9018B
:10451000A0E0B0E0DC0199278827842B952BA62BFF
:10452000B72B8D879E87AF87B88B2D853E854F85AE
:1045300058896CE870E180E090E00E942748B82E2E
:10454000811110C11D861E861F86188A8D859E8545
:10455000AF85B88982608D879E87AF87B88B2D85A0
:104560003E854F85588968E770E180E090E00E94C1
:104570002748B82E8111F6C019861A861B861C861C
:10458000198A1A8A89899A89883E9340C8F5AE01AA
:10459000435F5F4F68E770E180E090E00E9424484D
:1045A00081112EC089899A89843F914040F0898980
:1045B0009A8961E070E080E090E00E94C1478D85BB
:1045C0009E85AF85B88981FD11C0AE01475F5F4F01
:1045D00060E074E085E190E00E942448B82E8823D2
:1045E00079F019861A861B861C86BCC089899A892F
:1045F0000196898B9A8B89899A89883E934038F2F3
:1046000089859A85AB85BC85892B8A2B8B2B09F4F0
:10461000A2C089859A85AB85BC858D839E83AF8337
:10462000B8878B819C818B839C836D817E818F81F8
:10463000988508E010E020E030E0AE014F5F5F4F6A
:104640000E94A548B82E81118DC08D819E81AF81B9
:10465000B8850896A11DB11D8D839E83AF83B88751
:104660004114510429F1C301A0E0B0E08B8B9C8B75
:10467000AD8BBE8B6D817E818F8198850B891C8966
:104680002D893E89A2010E94A548B82E81116AC0D9
:104690008D819E81AF81B8852B893C894D895E894A
:1046A000820F931FA41FB51F8D839E83AF83B8878E
:1046B0008114910449F18D819E81AF81B885C6181E
:1046C000D7088C0D9D1DA11DB11D8D839E83AF83C9
:1046D000B8876701E12CF12C6D817E818F819885EF
:1046E00097018601A4010E94A548B82E81113AC005
:1046F0008D819E81AF81B8858C0D9D1DAE1DBF1D26
:104700008D839E83AF83B88789859A85AB85BC8569
:10471000880F991FAA1FBB1F880F991FAA1FBB1FB5
:104720008D879E87AF87B88B8D859E85AF85B8892D
:1047300082608D879E87AF87B88B2D853E854F859C
:1047400058896CE670E180E090E00E942748B82E1E
:10475000811108C004C00E94F1218DEF06C00E94A3
:10476000F12103C00E94E6218B2D6696CDBFDEBFEE
:10477000DF91CF911F910F91FF90EF90DF90CF903D
:10478000BF90AF909F908F907F906F905F904F9071
:1047900008954F925F926F927F928F929F92BF92F5
:1047A000CF92DF92EF92FF920F931F93CF93DF93FD
:1047B000CDB7DEB72C97CDBFDEBF0F2EFEE6EF2EB6
:1047C000FDE2FF2EF02DDD24D394CD2C0F2EFAEF39
:1047D000BF2EF02D4FC1D70113968C9113978150A6
:1047E00013968C93AE01475F5F4F60E770E180E006
:1047F00090E00E9424488111F5CF898580FFF2CF97
:1048000080E00E94094889859A85AB85BC859C011A
:10481000AD012E7F29873A874B875C8760E770E17F
:1048200080E090E00E9427488111DCCFF701D2821E
:1048300089859A85AB85BC85B695A795979587950B
:10484000B695A795979587954C01FFE09F22811417
:10485000910441F219821A821B821C82AE014F5FC1
:104860005F4F64E870E180E090E00E942448182FD8
:10487000882321F08C2D0E940948FAC069817A8131
:104880008B819C81D70114966D937D938D939C931E
:104890001797840120E030E0F70100871187228715
:1048A000338704E010E020E030E0AE014B5F5F4F63
:1048B0000E942A48182F8F8198858F83988711230B
:1048C00021F08C2D0E940948D3C08F8198858816CD
:1048D000990669F08F8198859401281B390B253042
:1048E000310528F08C2D0E9409481B2DC1C08D81F7
:1048F0008130E9F4D7011C968D919C911D97892BED
:1049000009F4A9C01C96ED91FC911D976F817885E3
:104910008E8149805A806B807C80A3019201285F40
:104920003F4F4F4F5F4F68507109099594C08D817B
:104930008230D1F4F70186859785892B09F48BC0E5
:104940000684F785E02D6F8178858E8149805A80B5
:104950006B807C80A3019201285F3F4F4F4F5F4FD8
:1049600068507109099577C08D818430E9F4D701C9
:1049700050968D919C915197892B09F46CC050965B
:10498000ED91FC9151976F8178858E8149805A8095
:104990006B807C80A3019201285F3F4F4F4F5F4F98
:1049A00068507109099557C08D818630D1F4F7019F
:1049B00086899789892B09F44EC00688F789E02DEE
:1049C0006F8178858E8149805A806B807C80A301BD
:1049D0009201285F3F4F4F4F5F4F68507109099513
:1049E0003AC08D818730E1F4D70152968D919C9128
:1049F0005397892B81F15296ED91FC9153976F81DA
:104A000078858E8149805A806B807C80A3019201D9
:104A1000285F3F4F4F4F5F4F6850710909951BC08A
:104A20008D81853011F5F701808D918D892B99F05D
:104A3000008CF18DE02D6F8178858E8149805A80C0
:104A40006B807C80A3019201285F3F4F4F4F5F4FE7
:104A5000685071090995D70112968C91882341F00D
:104A60000E94A021811103C003C01B2D01C0182F7B
:104A70001111B8CEF70183818111ADCE2C96CDBF37
:104A8000DEBFDF91CF911F910F91FF90EF90DF90EC
:104A9000CF90BF909F908F907F906F905F904F903E
:104AA00008954F925F926F927F928F929F92AF92F2
:104AB000BF92CF92DF92EF92FF920F931F93CF930B
:104AC000C02F611571058105910531F04115510522
:104AD00019F02115310531F4CC2309F456C00E9498
:104AE000A0215AC0890120E030E0C090762DD090FE
:104AF000772DE090782DF090792DC016D106E20642
:104B0000F30608F444C0C090722DD090732DE0904D
:104B1000742DF090752D6C157D058E059F05C8F1DF
:104B20006B017C01C00ED11EE21EF31EEEE6FDE21B
:104B3000448055806680778080849184A284B38489
:104B4000840C951CA61CB71C8C149D04AE04BF04D9
:104B500010F10E942A4881111FC0EEE6FDE2048197
:104B60001581268137814085518562857385400F87
:104B7000511F621F731FC416D506E606F70611F013
:104B8000CC2351F00E94A02107C084EF05C084EF20
:104B900003C084EF01C084EFCF911F910F91FF906C
:104BA000EF90DF90CF90BF90AF909F908F907F90CD
:104BB0006F905F904F90089590E0FC013197E7303F
:104BC000F10570F5E95AFF4F0C94F34C60937C2D7E
:104BD00070937D2D80E0089560937A2D70937B2DE6
:104BE00080E0089560937E2D70937F2D80E008957E
:104BF0006093822D7093832D80E008956093842DBF
:104C00007093852D80E008956093802D7093812DA1
:104C100080E008956093862D7093872D80E008953D
:104C200084EF089581E0089583E00895CF93DF93A2
:104C30000E943E09EC010E943A09482FE92FCE015B
:104C4000DD2324F4882799278C1B9D0B24E630E074
:104C5000B9010E94BD4C9F938F93CE01B9010E9470
:104C6000BD4C7F936F93EF934F938DE498EE9F939A
:104C70008F938DEB99E29F938F930E94594E2DB79E
:104C80003EB7265F3F4F2DBF3EBF181619062CF4C6
:104C9000BC018DEB99E20E948F4C0E94D92CDF91D0
:104CA000CF9108950E94BF080E942609FDCFEF9280
:104CB000FF921F93CF93DF93CDB7DEB7C75CD109C7
:104CC000CDBFDEBF7901E0915129F09152292081B9
:104CD00031818C836D837E834115510539F0FA0152
:104CE000808191818F83988782818987BE016F5FE0
:104CF0007F4FC9010E946C16182F81111AC0609154
:104D0000512970915229CE0101960E940C13182F3F
:104D100081110FC0E114F10461F04F81453048F07A
:104D200050E043505109BE01685F7F4FC7010E94A8
:104D30004A4D812FC953DF4FCDBFDEBFDF91CF91E9
:104D40001F91FF90EF9008959B0140E050E0BC015F
:104D500080E00E945726089590914008E091282A0B
:104D6000EF5FEF738091272AE81759F0E093282A24
:104D7000F0E0E75DF54D90838091262A8F5F809368
:104D8000262A08958091032A882389F0E091042A35
:104D9000EF5FEF71E093042AF0E0EA5FF54D808168
:104DA000809342088091032A81508093032A809146
:104DB000032A811105C0E0E4F8E085818F7D8583B9
:104DC00008951F920F920FB60F9211242F933F93C5
:104DD0004F935F936F937F938F939F93AF93BF9303
:104DE000EF93FF93E0917428F0917528309709F0C4
:104DF0000995FF91EF91BF91AF919F918F917F9115
:104E00006F915F914F913F912F910F900FBE0F9037
:104E10001F9018951F920F920FB60F9211242F9387
:104E20003F934F935F936F937F938F939F93AF9332
:104E3000BF93EF93FF93E0917228F091732830971E
:104E400009F00995FF91EF91BF91AF919F918F91DB
:104E50007F916F915F914F913F912F910F900FBE76
:104E60000F901F9018951F920F920FB60F9211245A
:104E70000F900FBE0F901F9018959091262A81E0F9
:104E8000911101C080E008958091262A8823E1F3E2
:104E9000E091272AEF5FEF73E093272A0FB6F8948B
:104EA0000F928091262A81508093262A0F900FBE60
:104EB000F0E0E75DF54D808108952091052A2F5F90
:104EC0002F719091032A9032E1F3E22FF0E0EA5F34
:104ED000F54D80832093052A0FB6F8940F928091A8
:104EE000032A8F5F8093032A0F900FBEE0E4F8E05F
:104EF00085818062858308950E945D2780E090E02F
:104F00000895E0E4F8E086E490E18087918780EC02
:104F1000868383E087831092272A1092282A109292
:104F2000262A1092042A1092052A1092032A86E754
:104F300098E28093AB309093AC3080E0089560E0CD
:104F400070E0CB010895E0E4F1E081818111FDCFB3
:104F5000E0E4F1E081E08083878382830895E0E4E8
:104F6000F1E082818E7F828310926E2A10926F2AE6
:104F70001092702A1092712A1092692A08958F92C5
:104F80009F92AF92BF92CF92DF92EF92FF920F93D8
:104F90001F93CF93DF93EC010E811F812885398504
:104FA000A091742AB091752A1C821D8240916E2AAC
:104FB00050916F2A6091702A7091712A0417150719
:104FC0002607370708F05CC0C0906E2AD0906F2A81
:104FD000E090702AF090712A8091692A8823F1F07C
:104FE000E0E4F1E040855185838180FD03C060E00D
:104FF00070E004C04FEF5FEF60E070E080906A2ADD
:1050000090906B2AA0906C2AB0906D2AC818D9088D
:10501000EA08FB08C40ED51EE61EF71E109791F095
:10502000FD0146815781608571854C195D096E09C6
:105030007F0946835783608771870480F581E02D5F
:10504000309779F740916E2A50916F2A6091702ABB
:105050007091712A4C195D096E097F0940936E2A7F
:1050600050936F2A6093702A7093712A2F5F3F4F7D
:105070000C191D092E093F090E831F8328873987C4
:10508000109709F441C016964D915D916D917C91F8
:105090001997041715072607370758F435C04681B6
:1050A0005781608571850417150726073707B8F102
:1050B000DF011496ED91FC911597309781F72FC081
:1050C000818181FDFDCF40916A2A50916B2A6091C8
:1050D0006C2A70916D2AE0E4F1E04087518781E00D
:1050E000838388E2A438B80729F4909188288091B6
:1050F000892802C09A2F8B2F9C838D83C093742A9A
:10510000D093752A81E012C010926A2A10926B2AFD
:1051100010926C2A10926D2AE0E4F1E0D1CFEC837A
:10512000FD831496CD93DC93159780E0DF91CF91AA
:105130001F910F91FF90EF90DF90CF90BF90AF90B5
:105140009F908F9008950F931F93E0E4F1E0828188
:105150008E7F8283E091742AF091752A309719F43A
:105160000E94AF275EC040916E2A50916F2A6091D5
:10517000702A7091712A86819781A085B185841BE0
:10518000950BA60BB70B009701E0A007B10500F146
:1051900040916E2A50916F2A6091702A7091712A05
:1051A000A4E8B8E2415051096F4F7F4F16964D93D6
:1051B0005D936D937C9319971496ED93FC931597DB
:1051C000A093742AB093752A8FEF9FEFA0E0B0E010
:1051D0004FEF5FEF60E070E08A019B01081B190B45
:1051E0002A0B3B0B00936A2A10936B2A20936C2A9C
:1051F00030936D2AE0E4F1E0818181FDFDCF809163
:105200006A2A90916B2AA0916C2AB0916D2AE0E4F1
:10521000F1E08087918782818160828381E0809341
:10522000692A1F910F910895FC0180819181892B3A
:1052300009F440C0A0E4B1E012968C9112978E7FE1
:1052400012968C93808191818617970761F4A081D3
:10525000B18114968D919C911597808391830E94C2
:10526000A32881E00895A081B1811097E1F06A1729
:105270007B0789F404C06E177F0761F403C0FD014A
:10528000A0E0B0E08481958114968D939C9315974E
:1052900081E00AC0DF011496ED91FC9115973097DB
:1052A00051F780E001C080E0E0E4F1E0928191609C
:1052B0009283089580E00895CF93DF93EC01BC01C1
:1052C00084E79AE20E941429811105C0BE0182E799
:1052D0009AE20E9414291C821D82DF91CF910895C9
:1052E000CF92DF92EF92FF92CF93DF93EC016A01AE
:1052F0007B010E945C29E0E4F1E082818E7F828361
:1053000040916E2A50916F2A6091702A7091712A93
:105310004C0D5D1D6E1D7F1D8091692A8823E1F073
:1053200080859185238120FD03C0A0E0B0E004C00A
:105330008FEF9FEFA0E0B0E0C0906A2AD0906B2A78
:10534000E0906C2AF0906D2A4C195D096E097F0976
:10535000480F591F6A1F7B1F4E835F8368877987B9
:10536000CE010E94BF27882319F00E94A32809C0FC
:105370008091692A882329F0E0E4F1E0828181604C
:105380008283DF91CF91FF90EF90DF90CF900895CF
:10539000CF93DF938091722A9091732A892B61F1C8
:1053A000E0E4F1E0928182818E7F8283C091722A53
:1053B000D091732AE091722AF091732A2481358169
:1053C0002093722A3093732A1C821D8290FF05C09D
:1053D000E0E4F1E0828181608283E881F9818A8161
:1053E0009B810995611571058105910529F0AB0136
:1053F000BC01CE010E947029DF91CF9108951F92C8
:105400000F920FB60F9211242F933F934F935F93F8
:105410006F937F938F939F93AF93BF93EF93FF937C
:10542000A091742AB091752A14962D913C911597EC
:1054300016964D915D916D917C91199740936E2ACE
:1054400050936F2A6093702A7093712A10926A2A7F
:1054500010926B2A10926C2A10926D2A88E2A4385E
:10546000B807D9F014961D921C9215978091722A54
:105470009091732A892B29F4A093722AB093732AEE
:105480000CC0E091722AF091732A01C0FC01848162
:1054900095810097D9F7A483B5832093742A30931C
:1054A000752A0E94A32881E080934301FF91EF9128
:1054B000BF91AF919F918F917F916F915F914F912C
:1054C0003F912F910F900FBE0F901F901895EF9264
:1054D000FF920F931F93CF93DF93CDB7DEB7C75CD7
:1054E000D109CDBFDEBFA0915129B0915229ED90D5
:1054F000FC90982F93708C836D837E83923048F458
:1055000084E1FA01DE01179601900D928A95E1F788
:1055100015C09330B1F585FF09C080E4FA01DE01C2
:10552000179601900D928A95E1F708C080E2FA0182
:10553000DE01179601900D928A95E1F78901BE016F
:105540006F5F7F4FC7010E94861681111FC0609157
:10555000512970915229CE0101960E940C1381119C
:1055600015C00115110579F08F81833270F080E24A
:10557000FE013896D80101900D928A95E1F780E0FE
:1055800005C082EE03C080E001C080E0C953DF4F58
:10559000CDBFDEBFDF91CF911F910F91FF90EF90B4
:1055A0000895807C4032510511F4836004C040347A
:1055B000510549F48362AB0120E030E060E070E027
:1055C0000E94672A089582EE089565986D98E5E730
:1055D000F4E08081877F808380818F7780838081E2
:1055E000887F84608083029A0A98E2E1F4E08081F7
:1055F000877F808380818F7780838081887F80838D
:10560000019A0998E1E1F4E08081877F80838081BD
:105610008F7780838081887F8083A698AE98E6EB21
:10562000F4E080818860808380818F7780838081AF
:10563000887F8083049A0C98E4E1F4E08081877F7E
:10564000808380818F7780838081887F8083039AA5
:105650000B98E3E1F4E08081877F808380818F77FE
:1056600080838081887F8083069A0E98E6E1F4E04B
:105670008081877F808380818F7780838081887F0E
:10568000808305980D98E5E1F4E08081877F808331
:1056900080818F7780838081887F8083079A0F98AD
:1056A000E7E1F4E08081877F808380818F7780834A
:1056B0008081887F8083A198A998E1EBF4E08081C4
:1056C000877F808380818F7780838081887F8083BC
:1056D000A09AA898E0EBF4E08081877F80838081A6
:1056E0008F7780838081887F8083A398AB98E3EB5A
:1056F000F4E08081877F808380818F7780838081C1
:10570000887F8083619A699AE1E7F4E08081877FEE
:10571000808380818F7780838081887F8083A29837
:10572000AA98E2EBF4E08081877F808380818F7785
:1057300080838081887F8083609A689AE0E7F4E0C4
:105740008081877F808380818F7780838081887F3D
:105750008083639A6B9AE3E7F4E08081877F80839C
:1057600080818F7780838081887F8083A598AD98A2
:10577000E5EBF4E080818860808380818F7780838F
:105780008081887F8083A498AC98E4EBF4E08081EA
:10579000877F808380818F7780838081887F8083EB
:1057A000629A6A9AE2E7F4E08081877F8083808151
:1057B0008F7780838081887F8083E0EEF5E012829E
:1057C00010821482118215821382089580E0089558
:1057D00081E38093C0081092762A80E00895E0EC7F
:1057E000F8E080818160808308959091762A9230DC
:1057F000F1F38093C408E0ECF8E083818823ECF7B0
:105800008091C40808950F931F93CF93DF93CDB772
:10581000DEB7C75CD109CDBFDEBF4115510551F1DF
:105820008A01282FE0915129F0915229808191819C
:105830002C836D837E83BE016F5F7F4F0E94B51600
:1058400081111BC06091512970915229CE0101969E
:105850000E940C13811111C04F81453068F050E057
:1058600043505109BE01685F7F4FC8010E944A4DF5
:1058700080E003C082EE01C080E0C953DF4FCDBF9E
:10588000DEBFDF91CF911F910F910895DF92EF92CC
:10589000FF920F931F93CF93DF938C01EB017A015B
:1058A00080E090E00E94334781111EC0E0915129B1
:1058B000F09152290190F081E02D8081833029F40C
:1058C0006894DD24D5F880E402C0D12C80E040E269
:1058D00050E0BE010E94D12A811106C0A701B80183
:1058E0008D2D80680E94032CDF91CF911F910F9125
:1058F000FF90EF90DF900895699A60E070E0CB012F
:105900000895882301F16B9A2FE986E891E02150F0
:1059100080409040E1F700C000006A9A2FE986E8D5
:1059200091E0215080409040E1F700C00000699A6A
:105930002FE986E891E0215080409040E1F700C0D7
:105940000000689A1FC06B982FE986E891E021500B
:1059500080409040E1F700C000006A982FE986E897
:1059600091E0215080409040E1F700C0000069982C
:105970002FE986E891E0215080409040E1F700C097
:10598000000068982FE986E891E02150804090401F
:10599000E1F700C00000089580E00E94812C81E0C2
:1059A0000E94812C80E00E94812C81E00E94812C49
:1059B0000895699848EC50E060E070E08EE898E265
:1059C0000E94702908958093772A089544E150E059
:1059D000BC0188E998E20E94804D08950E94E62C5F
:1059E0001092772A0895E0E0F6E081E0868B93E15B
:1059F000928395E09683808380E0089580910B06E2
:105A000081700895E0E0F6E0868381E080870E945F
:105A1000FE2C8823E1F3E0E0F6E0208931899385CC
:105A200091609387C90108951F920F920FB60F924C
:105A300011242F933F934F935F936F937F938F9393
:105A40009F93AF93BF93EF93FF93E0E0F6E08385DE
:105A500081608387E091782AF091792A309709F064
:105A60000995FF91EF91BF91AF919F918F917F9198
:105A70006F915F914F913F912F910F900FBE0F90BB
:105A80001F90189581E08093812A60E070E0CB013F
:105A9000089581E08093802A2091B22A3091B32A20
:105AA00032272327322721503109A8EEB3E00E9484
:105AB000F94C089581E080937F2A60E375E780E0E8
:105AC00090E008959C0180E0922F9F77220F232F72
:105AD000221F330B31952115310539F0FB01E80FF9
