:100000000C94DE000C94FB000C941A4A0C942028EB
:100010000C94FB000C94FB000C94FB000C94FB0074
:100020000C94FB000C94FB000C94FB000C94FB0064
:100030000C94FB000C94FB000C94FB000C949108B6
:100040000C94FB000C94FB000C94FB000C94FB0044
:100050000C94FB000C94FB000C94992B0C94FB006B
:100060000C94FB000C94FB000C94FB000C94FB0024
:100070000C94FB000C9439450C94FB000C94F42474
:100080000C941D250C9446250C94FB000C94FB004D
:10009000E316E316F116D016DA16DA16EA16EA16A1
:1000A000FF16CC161817181718171817DD16CE23B9
:1000B000C923D823D323E723DD23E2230009121B1E
:1000C000242D363F48415A536C657E7719100B0238
:1000D0003D342F265158434A757C676E323B2029A8
:1000E000161F040D7A7368615E574C452B22393018
:1000F0000F061D14636A7178474E555C646D767FF8
:100100004049525B2C253E3708011A137D746F66F7
:1001100059504B42353C272E1118030A565F444D67
:10012000727B60691E170C053A3328214F465D54D7
:100130006B627970070E151C232A31384148535AD7
:10014000656C777E09001B122D243F3658514A43B7
:100150007C756E671019020B343D262F737A616827
:10016000575E454C3B3229201F160D046A63787197
:100170004E475C55222B3039060F141D252C373E77
:100180000108131A6D647F7649405B523C352E2777
:1001900018110A03747D666F5059424B171E050CE7
:1001A000333A21285F564D447B7269600E071C1557
:1001B0002A233831464F545D626B707911241FBE7B
:1001C000CFEFCDBFDFE3DEBF19E2A0E0B8E2E0E8A9
:1001D000FAEA02C005900D92A435B107D9F721E3E0
:1001E000A4E5B9E201C01D92A133B207E1F70E9474
:1001F00065240C94F14E0C940000621B730B840B6D
:10020000950B0895A4E0B0E0E8E0F1E00C94CA4E4C
:100210008C010E94BC0169837A838B839C83F801E3
:100220008285938597FF0EC0E0912F31F091303198
:10023000309741F06BE271E3CE0101960995F80128
:1002400082879387F801828593851816190694F49E
:10025000092E000CAA0BBB0B49815A816B817C8152
:100260006A017B01C81AD90AEA0AFB0AC982DA8242
:10027000EB82FC8289819A81AB81BC8140912B31D8
:1002800050912C3160912D3170912E31841B950B42
:10029000A60BB70B89839A83AB83BC83B801CE01CD
:1002A00001960E947A0169817A818B819C812496D2
:1002B000E8E00C94E34E0FB6F89460932731709306
:1002C00028318093293190932A310FBE0895FC0183
:1002D0000FB6F894609127317091283180912931BF
:1002E00090912A310FBE309721F060837183828311
:1002F00093830895A4E0B0E0E0E8F1E00C94CA4EE6
:100300006C017B01E0912F31F0913031309729F071
:100310006BE271E309958C0102C00FEF1FEFF6014C
:10032000408151816281738180912B3190912C3178
:10033000A0912D31B0912E31840F951FA61FB71FAC
:10034000101611064CF4A801012E000C660B770B59
:10035000840F951FA61FB71F89839A83AB83BC8325
:10036000B701CE0101960E946702F7010287138749
:100370002496E8E00C94E34EA0E0B0E0E2ECF1E07B
:100380000C94C64EEC01EE81FF818F0104561109D9
:10039000B9F0CF01855691096C0197FF03C023E0A6
:1003A000C20ED11CD594C794D594C7946CE97FEF45
:1003B0000E943D4AC60ED71E8FEFC81AD80A02C047
:1003C000C12CD12C2DE631E0D8010E94A74A0D2C7A
:1003D000000CEE08FF08C60ED71EE81EF91E8B8122
:1003E000082E000C990B8C01015011092D8122302F
:1003F0002CF4222379F1015E1F4F2CC0CF018459C8
:10040000984F0E942E03282F30E0255C3F4F200F8D
:10041000311F8D81082E000C990B029785309105B4
:1004200014F027563F4F65E070E00E943D4AAC0152
:1004300097FF02C04F5F5F4F559547959DE3949F8F
:100440008001959F100D1124020F131F80FF02C021
:10045000015E1F4FC801110FAA0BBB0B9C01AD0120
:100460002C0D3D1D4E1D5F1D60E871E581E090E0A3
:100470000E94B04E4B015C01AA810A2E000CBB0BFE
:1004800020E13EE00E94A74A6B017C01A9810A2E6F
:10049000000CBB0B2CE330E00E94A74AC60ED71E0F
:1004A000E81EF91E6881862F660F990BAA0BBB0BFD
:1004B0008C0D9D1DAE1DBF1DBC01CD01680D791DAC
:1004C0008A1D9B1DCDB7DEB7ECE00C94DF4EA8E093
:1004D000B0E0EDE6F2E00C94CA4E8B01FC016081C5
:1004E00071818281938120E831E541E050E00E94F2
:1004F000514A69017A012CE330E040E050E00E946B
:10050000734A29833A834B835C8389819A81AB81C7
:10051000BC81F80160836CE370E00E943D4ADC011D
:10052000CB01F801A1838283C601069667E070E0E3
:100530000E94294A84832DEA3EE840E050E0C7014A
:10054000B6010E94734A29833A836D837E838F8329
:10055000988789819A8124E6289F6001299FD00C81
:1005600011246D817E818F81988525EB35E040E0F7
:1005700050E00E94734A29833A836D837E83E98029
:10058000FA80EE0CFF1CEE0CFF1CEC0CFD1C8D81A8
:100590009E81F5E6EF16F10410F0019604C024E602
:1005A000E216F10419F021E030E002C020E030E072
:1005B000A90144595E4F4817590768F46DE671E088
:1005C000821B930B0E943D4ADC01CB01E80EF91E11
:1005D000CD0120E030E044E6E40EF11CF801E682B3
:1005E000F78280879187255C3F4F8217930748F4F5
:1005F0006FE170E00E943D4ADC01CB01F801858388
:1006000022C069E970E0821B930B0E943D4ADC0125
:10061000CB01F82EFF0CFF0CF80E6DE370E0CD015E
:100620000E943D4ADC01CB01E82EEE0C6FE170E048
:10063000CD010E943D4ADC01CB0122E0280FF20EE1
:10064000FE0CF801F582A383F801128613868381DC
:100650008F5F83832896E8E00C94E34E9C0123701F
:100660003327232B59F464E670E00E943D4A892B1E
:1006700039F46370772781E0672B19F080E00895E3
:1006800081E0089541E068ED81E690E00E94E9365E
:1006900080E0089580931D2D90931E2D08958091E4
:1006A0001D2D90911E2D08950E94B31F0E94D828E1
:1006B0000E94E6440E94124A0E94A2120E94420333
:1006C0000E9494250E94E2070E94762B0E94B62584
:1006D0000E94D9290C94DB290F931F93CF93DF93AA
:1006E00000D000D0CDB7DEB7082F0E944A2CDC0125
:1006F000CB019F70AA27BB27803A9340A105B10583
:1007000008F4AAC0AE014F5F5F4F60E174E180E082
:1007100090E00E94BA45182F81119FC089819A816B
:10072000AB81BC819F78A878B87F9C01AD01306116
:100730004161516029833A834B835C8360E174E1BA
:1007400080E090E00E94BC4520E030E0A90168E034
:1007500072E081E090E0002309F449C00E94BC45AA
:100760002BEA30E040E050E06CE072E081E090E0A5
:100770000E94BC4521E030E040E050E064E172E0DE
:1007800081E090E00E94BC4520E030E0A9016CE1EE
:1007900072E081E090E00E94BC4521E830E040E05A
:1007A00050E064E072E081E090E00E94BC4568E1C6
:1007B00072E081E090E00E94B845613071058105EA
:1007C0009105A9F789819A81AB81BC819F78A8782E
:1007D000B87F9C01AD01416029833A834B835C83E0
:1007E00060E174E180E090E00E94BC4536C00E9468
:1007F000BC4529EB30E040E050E06CE072E081E085
:1008000090E00E94BC4521E030E040E050E064E12F
:1008100072E081E090E00E94BC4520E030E0A90158
:100820006CE172E081E090E00E94BC4521E830E09C
:1008300040E050E064E072E081E090E00E94BC455E
:1008400068E172E081E090E00E94B8456130710596
:1008500081059105A9F7B6CF10E0812F2496CDBF71
:10086000DEBFDF91CF911F910F91089521153105C2
:100870004105510551F0FB016191DC016D93CD0102
:100880002150310941095109B9F708952115310560
:100890004105510541F0FC016193CF01215031091F
:1008A00041095109F3CF0895FC019F01281B390B21
:1008B00041914111FACFC90108958091222D8D7F78
:1008C00084608E7F8093222D60E070E0CB010895DC
:1008D0000F931F93CF93DF93CDB7DEB72C97CDBF88
:1008E000DEBF8B018B3109F467C020F4893009F435
:1008F00081C0B0C08C3221F0823309F444C0AAC058
:10090000DB018C91813009F580915829882399F079
:1009100086E298E20E9481271092582980E00E9486
:10092000022B44EF51E060E070E08CE198E20E941D
:10093000B1270E9492098091222D82608093222DFE
:100940000E9488110E941C2B0FC081110DC042E330
:1009500050E060E070E088E098E20E94B12780916A
:10096000222D81608093222DE0915629F091572904
:10097000309709F46FC08091222D80FD6BC0D801A3
:100980008C91099567C088E29EED0E949D4281117D
:1009900061C08091222D80FF09C088E098E20E940A
:1009A00081278091222D8E7F8093222D8091222D70
:1009B0008B7F8093222D4EC0FB0180819181009717
:1009C00009F448C024812B8325812A832681298329
:1009D0008C5697408F839887828181508E83838144
:1009E0008C831B861C86CE0101960E9402010E9408
:1009F0005B0130C0FB01ED59FF4F808181112AC09E
:100A0000319780811F928F938CE39EED9F938F93FC
:100A100081E69DE29F938F930E94F44BB80183E29D
:100A20009DE20E941F4BB8016F5D7F4F82E49DE203
:100A30000E941F4B81E08093582940E050E0BA01AA
:100A400086E298E20E94B1270F900F900F900F90CE
:100A50000F900F902C96CDBFDEBFDF91CF911F91ED
:100A60000F9108950E94E33B64EF71E080E090E015
:100A7000089580E090E00E947D3A62E370E080E0BB
:100A800090E008950F931F93CF93DF93CDB7DEB718
:100A90002E97CDBFDEBF8E010F5F1F4F8EE0F80196
:100AA00011928A95E9F788E694E089839A830E94F7
:100AB000414080E090E00E946B200E94664580915A
:100AC0001F2D9091202D80935629909357290E9495
:100AD0008F45C8010E94413A0E9427402E96CDBF03
:100AE000DEBFDF91CF911F910F9108950F931F9358
:100AF000813079F481E69DE20E94B94A0FEF10E05F
:100B000022E43DE2482F6FE183E29DE20E94673BD1
:100B100002C00E947F3A882339F08091222D8460A0
:100B20008093222D80E001C081E01F910F910895F4
:100B300081E00E94760568EE73E080E090E0089521
:100B40008091222D81FF07C00E94713B91E0882394
:100B500019F090E001C091E0892F08950F931F9341
:100B6000CF93DF93CDB7DEB7C858D109CDBFDEBF75
:100B70008E010F5F1F4F88E8D8011D928A95E9F713
:100B800088E0E6EEFDEDD80101900D928A95E1F73F
:100B9000FE01399689E1DF011D928A95E9F781E02E
:100BA0008AA39AE09CA39BE0E7E0FEEDDE01959628
:100BB00001900D929A95E1F7FE01F09690E1DF0128
:100BC0001D929A95E9F721968FAF219790EC239685
:100BD0009FAF239798EA24969FAF249725968FAFCF
:100BE000259726968FAF26970E94022B41E060E062
:100BF00078E2C8010E948C3BC857DF4FCDBFDEBFF3
:100C0000DF91CF911F910F910895CF93C62F8093BD
:100C10001F2D9093202D0E944205C11103C00E94F8
:100C2000AE0508C044EF51E060E070E08CE198E26E
:100C30000E94B12742E350E060E070E082E198E278
:100C4000CF910C94B127E0EAF8E084818860848336
:100C5000858181608583E9E5F9E280818E7F8083EB
:100C600013868EE00895E9E5F9E280818E7F808326
:100C7000138680E00895E0EAF8E08481836084834D
:100C8000E9E5F9E280818E7F8083138680E0089514
:100C9000E9E5F9E28081886080838181880F816045
:100CA0008093A70884E008950C944806E9E5F9E2EA
:100CB0008081886080838181880F8093A70883E08A
:100CC00008950C94560680915929877F809359295D
:100CD00082E080936429E0916929F0916A298091EA
:100CE0007529909176290995823021F0833021F47D
:100CF0000C9456060C9448060C943B06E0EAF8E087
:100D000084818B7F848384E00895E0EAF8E0848125
:100D10008B7F848383E00895E0EAF8E08481846037
:100D20008483848183608483E9E5F9E280818E7F16
:100D30008083138680E00895E0EAF8E0848184608F
:100D4000848388E008958091A50888608093A50831
:100D500082E080936429E0916729F091682980916D
:100D60007329909174290995823021F0833021F400
:100D70000C9456060C9448060C942306E0EAF8E01E
:100D8000848188608483858181608583E9E5F9E2D7
:100D900080818E7F808382E083878EE008958091BA
:100DA000A508806C8093A5088091592983FF07C00E
:100DB0008091A50884FF03C08FE080936329809110
:100DC000A50883FF03C080E1809363298091A50873
:100DD00082FF03C081E180936329E0916329F0E001
:100DE000EE0FFF1FE05DF74D0190F081E02D0995BA
:100DF00080936329089581E0089585E0089590E047
:100E0000FC01EE0FFF1FEB59F64D6115710551F016
:100E100060837183880F991FFC01EF58F64D408362
:100E2000518308952BEF36E020833183880F991F7B
:100E3000FC01EF58F64D1082118208958091A508AB
:100E400084FF13C0E0916B29F0916C298091772980
:100E5000909178290995823021F0833021F40C9407
:100E600056060C9448060C943B0680915929877FBE
:100E700080935929E0915B29F0915C29CF0101967B
:100E800080935B2990935C2980818093A80880914E
:100E90005D2990915E29019780935D2990935E2949
:100EA000892B11F485E0089583E0089580915929F4
:100EB000877F8093592980915D2990915E292091A7
:100EC000A4088130910511F4246001C02B7F209388
:100ED000A408019780935D2990935E29E0915B2996
:100EE000F0915C29892B09F58091A8088083809175
:100EF0005B2990915C29019680935B2990935C29F2
:100F000080915929846080935929E0916529F09155
:100F100066298091712990917229099582508230B9
:100F200010F40C949C060C948C068091A808808385
:100F300080915B2990915C29019680935B29909325
:100F40005C298091A40882608093A40884E00895BD
:100F50008091A50884FF0EC0E0916B29F0916C2967
:100F6000809177299091782909958230B9F0833062
:100F7000B9F01AC080915929846080935929E09171
:100F80006529F091662980917129909172290995BE
:100F9000833031F0843031F0823031F40C944806E3
:100FA0000C9456060C941E070C943B060C944806B1
:100FB000AB01BC0180E00C94FF06AB01BC0182E0F8
:100FC0000C94FF06E0EAF8E08DE2868381EC8383EF
:100FD00080E008959091592991FD53C080935A293A
:100FE000892F847F9EE09093632924EF31E0209342
:100FF00061293093622982608460809359298BEF44
:1010000096E0809365299093662910927129109239
:1010100072298093672990936829109273291092FE
:1010200074298093692990936A29109275291092E6
:10103000762980936B2990936C29109277291092CE
:1010400078298DEF96E080936D2990936E29109208
:10105000792910927A298091A40888608093A40845
:101060008091A50881608093A5088091A508806C77
:101070008093A5088091A308806C8093A30880E0EA
:10108000089581E008958091A50882FF08C08091AD
:1010900059298E7F8093592982E080936429809119
:1010A000592980FD13C08D7F809359298FEF80933C
:1010B0005A298091A508806C8093A5088091A30887
:1010C0008F738093A30880916429089581E0089527
:1010D0009C019091592992FF0CC020935B29309379
:1010E0005C2960935D2970935E29892F8B7F8093A3
:1010F000592908959091592990FD0EC091609093BF
:101100005929882311F081E001C082E0809363298E
:101110000E94CF0680E0089581E0089580E00C945D
:101120007A081F920F920FB60F9211242F933F93BC
:101130004F935F936F937F938F939F93AF93BF93DF
:10114000EF93FF930E94CF06FF91EF91BF91AF9174
:101150009F918F917F916F915F914F913F912F91CF
:101160000F900FBE0F901F901895813011F00C94C6
:10117000E7470895CF92DF92EF92FF9280E090E0F0
:101180000E9467016B017C010E94084A8823D9F004
:1011900020917D2930917E2940917F29509180298D
:1011A000C701B6010E94FD0016161706180619069B
:1011B00054F4C0927D29D0927E29E0927F29F0924A
:1011C00080290E9427248091222D81FD02C06B9AE4
:1011D00001C06B9882FD02C0689A01C068980E94A5
:1011E000272B811107C00E94084A811102C06A9A08
:1011F00001C06A9864E670E080E090E0FF90EF90B4
:10120000DF90CF9008950F931F93CF9388EDA8950B
:1012100084BF80910001807F809300010E9454036D
:101220000E94DE2A0E942D1D8EE598E20E94401D3C
:101230008EE598E20E94342B78940E94B8468EE5A1
:1012400098E20E94EB438093212D8EE598E20E9464
:10125000401D8EE598E20E942D2B00E217E426E166
:1012600030E080E090E0DC0140E050E0BA01E6B31D
:10127000E6FBEE27E0F94E0F511D611D711DE6B32F
:10128000E5FBEE27E0F98E0F911DA11DB11D015068
:1012900011092109310959F7403953426B40710551
:1012A00030F580399342AB40B10518F56FE37EED20
:1012B00083E29DE20E941F4B66E47EED82E49DE2A4
:1012C0000E941F4B1F9282E08F938CE39EED9F93B1
:1012D0008F9381E69DE29F938F930E94F44B0E942F
:1012E000102B0F900F900F900F900F900F90C1E068
:1012F00001C0C0E06C2F85EB98E00E940506C1306C
:1013000061F48EE598E20E94EA4744E650E060E02E
:1013100070E084E598E20E94B127CF911F910F9170
:101320000C94DE2A8EE598E20E94EA4744E650E0FB
:1013300060E070E084E598E20C94B1270C94E62715
:10134000611571058105910559F0E3ECF9E03197DC
:10135000F1F700C000006150710981099109F0CFD7
:101360000895E0918129F0918229309759F0A08168
:10137000B1812C91022E000C330B482F50E0241722
:10138000350789F09F012B5F3F4F79F00580F6818B
:10139000E02D4081042E000C550B90E048175907B2
:1013A00021F4C9010895CF01089580E090E00895E7
:1013B000823049F477276130710539F06230710568
:1013C00011F462E003C08FE20CC061E0423040F4EF
:1013D00082E090E00E94634087FF08C08DE001C07A
:1013E00086E1809383298FEF9FEF0895082E000CEC
:1013F000990B0895AF92BF92CF92DF92EF92FF9236
:101400000F931F93CF93DF93CDB7DEB76097CDBF18
:10141000DEBF8C015B016A010E94B1097C01892B4E
:10142000A9F1F5018191919189839A832EE0DE01E2
:10143000139601900D922A95E1F78230910519F5E6
:1014400089839A834C2DBE016F5F7F4F802F0E944E
:101450000941882391F0873F71F08A3FB9F417FF63
:1014600002C086E211C0AB2811F481E30DC0CD2883
:10147000C1F786E109C085E007C082E0F7018483F7
:1014800080E090E005C08FE2809383298FEF9FEF8B
:101490006096CDBFDEBFDF91CF911F910F91FF907E
:1014A000EF90DF90CF90BF90AF9008958093812907
:1014B000909382290895CF92DF92EF92FF920F933B
:1014C0001F93CF93DF93232B11F086E11BC0EA011A
:1014D0007B016C0100E010E098010E94D24188235A
:1014E000A1F0823F71F08A3F99F4D7FE02C086E2F4
:1014F00009C0EF2811F48EE005C0CD2B31F788E24A
:1015000001C087E38093832903C080E090E002C09C
:101510008FEF9FEFDF91CF911F910F91FF90EF9091
:10152000DF90CF900895CF93C82F0E94B109009704
:1015300011F0FC0114828C2F0E944142882351F04B
:10154000873F21F08A3F49F489E001C085E080931C
:10155000832903C080E090E002C08FEF9FEFCF911E
:10156000089598278927982708950E94B109009720
:1015700019F0FC018481089580E00895EF92FF92B4
:101580000F931F93CF93DF93232B11F086E11BC0A2
:10159000EA018B017C0120E030E00E946C4188234D
:1015A000A9F0823F79F08A3F99F4F7FE02C086E203
:1015B0000AC0012B11F48EE006C0C937D54030F3C4
:1015C00088E201C087E38093832902C0CE0102C074
:1015D0008FEF9FEFDF91CF911F910F91FF90EF90D1
:1015E0000895EF92FF920F931F93CF93DF93E82E0E
:1015F000F62EEA010E94B1098C01892B09F448C03A
:1016000086E0F81641F18F1520F0A5E0FA1641F0BA
:101610003FC0B7E0FB16C9F1E9E0FE1659F038C04B
:101620002097B1F1898187FD0BC083E0D801149622
:101630008C932EC0209761F1888199810097D1F415
:101640008E2DEE0C990BDF91CF911F910F91FF9092
:10165000EF900C94930A2097D9F06A817B8116163B
:10166000170674F7D8011296ED91FC9113978881B3
:1016700099810AC06A817B816115710509F3D801DE
:101680001296ED91FC911397099583E0F8018483FC
:10169000DF91CF911F910F91FF90EF90089585E01A
:1016A0000C94852B65E088E10E94A711A0E0B0E0D2
:1016B00023E1880F991FAA1FBB1F2A95D1F79C0110
:1016C000AD0163E155954795379527956A95D1F713
:1016D000A4E6B0E00E94AE4A20E130E040E050E0F5
:1016E0000E94734AC90108952F923F924F925F92D0
:1016F0006F927F928F929F92AF92BF92CF92DF9222
:10170000EF92FF920F931F93CF93DF93CDB7DEB786
:10171000C455D140CDBFDEBFC55BDE4F8883998302
:10172000CB54D140C15BDE4F288339834A835B832E
:10173000CF54D140CB5CDE4F6883C553D140CA5CE7
:10174000DE4F7883C653D140CF5BDE4F18821982BB
:101750001A821B82C154D1409E012F5B3F4FCF5D47
:10176000DE4F28833983C152D140AE014F535F4FC2
:10177000CD5DDE4F48835983C352D14088559F4F7A
:10178000C35BDE4F88839983CD54D140CF5BDE4F5E
:10179000688179818A819B81C154D140C15BDE4FD0
:1017A000488059806A807B80CF54D140641575058C
:1017B0008605970509F4CCC3BE016F5F7F4FC95CF6
:1017C000DE4F68837983C753D140FB01CB5CDE4F8A
:1017D000A881B981C553D1408C91838311968C9196
:1017E0001197828312968C911297818313968C9114
:1017F0001397808314963496CF5DDE4F888199814C
:10180000C152D140E817F90739F7C95CDE4F28808B
:101810003980C753D1403101D10114964D915D916A
:101820006D917C911797D8968D919D910D90BC915B
:10183000A02DE4E02E0E311C6A017B0117E0F69426
:10184000E794D794C7941A95D1F78A019B01E9E1EF
:10185000000F111F221F331FEA95D1F7C02AD12A8A
:10186000E22AF32A4A015B01FEE0880C991CAA1CBB
:10187000BB1CFA95D1F78A019B01E2E136952795C9
:1018800017950795EA95D1F7082919292A293B299F
:101890000C251D252E253F256A017B01F3E0F694DA
:1018A000E794D794C794FA95D1F70C251D252E25DA
:1018B0003F25F301C080D180E280F380F10140A197
:1018C00051A162A173A1C40ED51EE61EF71EC00E63
:1018D000D11EE21EF31E8C019D014FE0000F111F6F
:1018E000221F331F4A95D1F7AC01BD01E1E1769586
:1018F000679557954795EA95D1F7042B152B262B1D
:10190000372BAC01BD01FDE0440F551F661F771F4B
:10191000FA95D1F72C013D01E3E176946794579451
:101920004794EA95D1F7442A552A662A772A402611
:10193000512662267326FAE0B695A7959795879566
:10194000FA95D1F7482659266A267B264C0C5D1C51
:101950006E1C7F1CD101DC964D925D926D927C9243
:10196000DF97CD5DDE4FE881F981C352D1402E165D
:101970003F0609F050CFC55BDE4F28803980CB543D
:10198000D140F8E82F0E311C9E012F5F3E4FCD5AFB
:10199000DE4F28833983C355D140C901F1014191FC
:1019A000519161917191DC014D935D936D937D93A4
:1019B000CD01C35BDE4F48805980CD54D140E41542
:1019C000F50569F7CD5ADE4FA881B981C355D140DD
:1019D0005C966D907D908D909C905F97C95BDE4F7B
:1019E000688279828A829B82C754D14058964D90F2
:1019F0005D906D907C905B97C35CDE4F488259820E
:101A00006A827B82CD53D14054964D905D906D900B
:101A10007C905797C75CDE4F488259826A827B82EE
:101A2000C953D14050968D919D910D90BC91A02DA0
:101A3000CD5ADE4FE881F981C355D14044845584A5
:101A400066847784CB5DDE4F488259826A827B82CE
:101A5000C552D1404084518462847384CF5CDE4F90
:101A6000488259826A827B82C153D140448055802A
:101A700066807780C35DDE4F488259826A827B82AE
:101A8000CD52D140008111812281338143E55EED49
:101A9000CB5BDE4F48835983C554D140CB5BDE4FCF
:101AA000E881F981C554D140419151916191719181
:101AB000CB5BDE4FE883F983C554D1404C015D0117
:101AC000EAE1880C991CAA1CBB1CEA95D1F76C01B1
:101AD0007D01F6E0F694E794D794C794FA95D1F790
:101AE000C828D928EA28FB282C013D01E5E1440C4F
:101AF000551C661C771CEA95D1F74C015D01FBE093
:101B0000B694A79497948794FA95D1F7842895284A
:101B1000A628B7288C249D24AE24BF246C017D0107
:101B2000E9E1F694E794D794C794EA95D1F72C01AC
:101B30003D01F7E0440C551C661C771CFA95D1F763
:101B4000C428D528E628F728C824D924EA24FB2469
:101B5000C95CDE4FE881F981C753D14081909190F3
:101B6000A190B190C95CDE4FE883F983C753D1409F
:101B7000480D591D6A1D7B1D4C0D5D1D6E1D7F1D81
:101B80002C013D014094509460947094C35CDE4FEE
:101B900088809980AA80BB80CD53D14048205920AD
:101BA0006A207B20C75CDE4FC880D980EA80FB803A
:101BB000C953D140C822D922EA22FB22C424D52409
:101BC000E624F7244C0D5D1D6E1D7F1DC95BDE4FA5
:101BD000A880B980CA80DB80C754D1404A0D5B1D04
:101BE0006C1D7D1DCB5DDE4FC880D980EA80FB80F7
:101BF000C552D140C40ED51EE61EF71EC75DDE4F8E
:101C0000C882D982EA82FB82C952D1404801590177
:101C1000EEE1880C991CAA1CBB1CEA95D1F768015F
:101C20007901F2E0F694E794D794C794FA95D1F746
:101C3000C828D928EA28FB2828013901E3E1440C07
:101C4000551C661C771CEA95D1F748015901FDE047
:101C5000B694A79497948794FA95D1F74828592871
:101C60006A287B28C424D524E624F72428013901D6
:101C7000E6E17694679457944794EA95D1F7480142
:101C80005901FAE0880C991CAA1CBB1CFA95D1F7E3
:101C900084289528A628B728240135014C245D24E2
:101CA0006E247F24CB5DDE4F488259826A827B821C
:101CB000C552D140C35DDE4F488059806A807B8029
:101CC000CD52D140CF5CDE4F88809980AA80BB8006
:101CD000C153D140482459246A247B2440225122F4
:101CE00062227322C35DDE4FC880D980EA80FB8008
:101CF000CD52D140C820D920EA20FB20C424D524CD
:101D0000E624F724CB5DDE4F488059806A807B80D3
:101D1000C552D140C40CD51CE61CF71CC40ED51E00
:101D2000E61EF71EC35CDE4F688079808A809B8048
:101D3000CD53D140C95BDE4F688279828A829B8213
:101D4000C754D140CF5CDE4F88809980AA80BB8089
:101D5000C153D140CB5DDE4F88829982AA82BB827B
:101D6000C552D140CB5BDE4F48815981C554D1402B
:101D700043555F4DD9F1C75CDE4F488059806A807A
:101D80007B80C953D140C35CDE4F488259826A824E
:101D90007B82CD53D140C75CDE4F88839983AA8371
:101DA000BB83C953D140C75DDE4F88819981AA8129
:101DB000BB81C952D140C35DDE4F688079808A8083
:101DC0009B80CD52D140CF5CDE4F688279828A827F
:101DD0009B82C153D140C35DDE4F088319832A83A0
:101DE0003B83CD52D1409701860158CECF5FDE4F65
:101DF000C882D982EA82FB82C150D140CB5FDE4FDC
:101E0000088319832A833B83C550D140C35DDE4FCD
:101E1000488059806A807B80CD52D140C75FDE4FB9
:101E2000488259826A827B82C950D140C75DDE4FA9
:101E3000688079808A809B80C952D140CF5EDE4F16
:101E4000688279828A829B82C151D140CB5EDE4F0B
:101E500088839983AA83BB83C551D140C75CDE4F79
:101E600088809980AA80BB80C953D140C75EDE4F6D
:101E700088829982AA82BB82C951D140C35CDE4F5D
:101E8000A880B980CA80DB80CD53D140C35EDE4FCD
:101E9000A882B982CA82DB82CD51D140CF5CDE4FAD
:101EA000C880D980EA80FB80C153D140C35FDE4F38
:101EB000C882D982EA82FB82CD50D140CD5ADE4F12
:101EC000E881F981C355D14081919191A191B1915E
:101ED000CD5ADE4FE883F983C355D140F1014081EB
:101EE000518162817381840F951FA61FB71F819353
:101EF0009193A193B1931F01C35BDE4F488059803A
:101F0000CD54D1404E165F06C9F6CF5BDE4F288117
:101F100039814A815B81C154D1402F5F3F4F4F4F80
:101F20005F4FCF5BDE4F288339834A835B83C15485
:101F3000D140CB5CDE4F48815981C553D140405CD4
:101F40005F4FCB5CDE4F48835983C553D1401ECCD5
:101F5000CC5ADE4FCDBFDEBFDF91CF911F910F91E5
:101F6000FF90EF90DF90CF90BF90AF909F908F90B9
:101F70007F906F905F904F903F902F90089528EA48
:101F8000FC0111922A95E9F7A3E5BFEDFC01E857A2
:101F9000FF4F88559F4F4D915D916D917D9141937C
:101FA000519361937193E817F907A9F708952F9258
:101FB0003F924F925F926F927F928F929F92AF92D9
:101FC000BF92CF92DF92EF92FF920F931F93CF9326
:101FD000DF93EC018B0149015A018C819D81AE8117
:101FE000BF8140E4C42ED12CE12CF12CC81AD90AAF
:101FF000EA0AFB0A8C149D04AE04BF0410F47501B8
:1020000064010896A601B8018C0F9D1F0E94E94A41
:102010008C819D81AE81BF81880D991DAA1DBB1D3C
:1020200080349105A105B105B8F48C839D83AE83FE
:10203000BF83DF91CF911F910F91FF90EF90DF90C1
:10204000CF90BF90AF909F908F907F906F905F9058
:102050004F903F902F9008951E0188E0280E311C6C
:1020600021E030E040E050E0B101CE010E94740B6D
:102070008C189D08AE08BF082401350186E07694CF
:102080006794579447948A95D1F7B8016C0D7D1DDC
:10209000A3019201CE010E94740BD301C2010196EB
:1020A000A11DB11D26E0880F991FAA1FBB1F2A95ED
:1020B000D1F7488159816A817B81840F951FA61FC2
:1020C000B71F88839983AA83BB83B501A4014F738B
:1020D0005527662777274C835D836E837F8336E0A1
:1020E000440C551C3A95E1F7C40CD51CC8018C0D65
:1020F0009D1DBC01C101DF91CF911F910F91FF90F8
:10210000EF90DF90CF90BF90AF909F908F907F9097
:102110006F905F904F903F902F900C94E94A8F9270
:102120009F92AF92BF92CF92DF92EF92FF920F9366
:102130001F93CF93DF93EC018B014C815D816E8106
:102140007F81C880D980EA80FB80C40ED51EE61E40
:10215000F71EC882D982EA82FB8283E0CC0CDD1CA8
:10216000EE1CFF1C8A95D1F787EF9FEFAFEFBFEF13
:10217000841B950BA60BB70B4C015D012FE382224C
:102180009924AA24BB24DB01CA010196A11DB11D1B
:102190008C839D83AE83BF83FE01E40FF51F20E88F
:1021A0002087A4014C5F5F4F089660E070E08C0FC1
:1021B0009D1F0E94044B8C819D81AE81BF81880D43
:1021C000991DAA1DBB1DAC01BD014C5F5F4F6F4F38
:1021D0007F4FFE01E40FF51FF086AC01BD014B5FA0
:1021E0005F4F6F4F7F4FFE01E40FF51FE086AC019C
:1021F000BD014A5F5F4F6F4F7F4FFE01E40FF51F38
:10220000D086AC01BD01485F5F4F6F4F7F4F4C835D
:102210005D836E837F830796A11DB11DFE01E80FCC
:10222000F91FC0869A01AB0196E056954795379500
:1022300027959A95D1F7BE01685F7F4FCE010E9426
:10224000740BC801FE01E857FF4FC855DF4F9C01D2
:102250002C5F3F4FD90140814E9340815181628173
:102260007381452F562F672F7727408351836283D1
:102270007383A817B90779F73496C901EC17FD07DE
:1022800031F7DF91CF911F910F91FF90EF90DF9089
:10229000CF90BF90AF909F908F9008950F931F9312
:1022A000CF93DF93FB010097E1F03097D1F060818D
:1022B000718161157105A9F022813381232B89F089
:1022C000EF018C01FC0181810E94EF1481110AC091
:1022D0006A817B81C801DF91CF911F910F910C948E
:1022E0009C3C82EEDF91CF911F910F910895FC01EC
:1022F000808191810895FC018281938108950097E6
:1023000029F0FC01828193810C94323C82EE089585
:102310008FE1E3E2FDE2DF01982F1D929A95E9F744
:10232000E2E4FDE2DF011D928A95E9F71092612D4A
:102330001092622D089562E070E00E94680860E0EB
:1023400070E080E090E00E94D80782E008951F933B
:10235000CF93DF9300D01F92CDB7DEB7182F6B83DA
:10236000812F0E94EA078823D9F3BE016F5F7F4F58
:102370008BE991E10E94D80761E070E0CE010396FD
:102380000E94680860E070E081EF93E20E94DD0740
:102390000E948E080E9443088130E1F389819A816E
:1023A0009827892798272396CDBFDEBFDF91CF914D
:1023B0001F910895CF93DF93FB019081913031F00D
:1023C000D0F0923039F0933049F011C093E125E715
:1023D00030EE1CC094E129E330EE18C091819832B0
:1023E00071F0983681F096E127EF3FED0FC090E055
:1023F00020E030E00BC09EE02EEA30EE07C096E110
:1024000025EB3FED03C096E123E73FED4FEF5FEF94
:102410004283538340E0491789F0D9012D5F3F4F34
:10242000E90123975881581307C011968D919C910B
:1024300012978283938302C04F5FEDCF8281938195
:10244000019611F482EF01C080E0DF91CF910895F1
:10245000AF92BF92CF92DF92EF92FF921F93CF93F2
:10246000DF9300D0CDB7DEB77C016B01DB016D914E
:102470007C91FC0182810E94DA11811157C0D60142
:10248000ED91FC911197A280B38012968D919C9151
:1024900013970E940A3C182F811142C0F701418115
:1024A00050E0B701D60112968D919C9113970E942E
:1024B000FE3B182F811134C0B50180E090E00E94EE
:1024C000A009B6E0EB0EF11C80ECF70111928A95A1
:1024D000E9F780EC90E089839A83AE014F5F5F4F0C
:1024E000B701D60112968D919C9113970E94043CDE
:1024F000182F811115C089819A818430910520F4AB
:10250000892B69F417EE0CC0C7010E948215182FA1
:10251000811106C0C7010E94AF15182F01C016EE29
:10252000F601828193810E94213C812F0F900F90B0
:10253000DF91CF911F91FF90EF90DF90CF90BF90F0
:10254000AF90089580E00895809184299091852925
:102550000E947F11811104C0109284291092852954
:1025600008950F931F93CF93DF93EC0180918429FB
:1025700090918529892B11F00E94A4128AE79DE28F
:102580008093632D9093642D87E69DE28093652D63
:102590009093662D63E67DE2CE010E944E1181117B
:1025A00025C083E69DE280938429909385298981C3
:1025B0008330D9F42091632D3091642D2F5F3F4FEC
:1025C00001E010E043E150E060E070E080E00E9454
:1025D000291481110BC0E0918429F0918529019083
:1025E000F081E02D8181887F818380E0DF91CF9130
:1025F0001F910F910895CF93DF930097D1F0EC01D5
:102600000E947711892B11F481EE14C0CE010E9433
:102610007B11892BC9F38091842990918529892B7D
:1026200011F00E94A412C0938429D093852980E0E0
:1026300001C082EEDF91CF9108950F931F93F801AF
:10264000309719F18370833001F110821182922F3B
:10265000977050E0292F30E0823041F063E0440F62
:10266000551F6A95E1F7242B352B0BC0542F4427B7
:10267000242B352B93E0660F771F9A95E1F7262BD5
:10268000372B2083318380E001C082EE1F910F91B0
:102690000895FA013097E1F1A0918429B09185293C
:1026A00012960D90BC91A02D11960D90BC91A02D6D
:1026B00011969C9191110BC0813091F028F08230DD
:1026C00039F580E290E01AC088E590E017C08130CB
:1026D00039F018F0823039F01BC080E890E00EC06D
:1026E00080E490E00BC06830710518F484E290E05B
:1026F00005C06830710531F480EA91E080839183F0
:1027000080E008956031710518F488E490E0F6CF18
:1027100082EE0895AF92BF92CF92DF92EF92FF9236
:102720000F931F93CF93DF93CDB7DEB7C95CD10969
:10273000CDBFDEBFF82E6801012B09F43FC084E055
:10274000E81619F080E2E81239C0E0918429F0918E
:102750008529A080B1808E0108531F4F8F2D0E94C4
:102760001D1381112CC080E2E81203C08F2D8068F8
:10277000F82EFC82C853DF4F88819981C85CD04015
:102780008D839E83BE016F5F7F4FC5010E946E15D2
:10279000811115C06091842970918529CE0101961F
:1027A0000E94281281110BC04E2D50E0BE01685FBF
:1027B0007F4FC6010E94E94A80E001C082EEC75304
:1027C000DF4FCDBFDEBFDF91CF911F910F91FF9003
:1027D000EF90DF90CF90BF90AF900895CF92DF92AF
:1027E000EF920F931F93CF93DF93CDB7DEB7A097F0
:1027F000CDBFDEBF009709F16C0180E2E82E8E01AB
:102800000F5F1F4F20E040E060E070E080E00E943A
:102810008A13811113C084E0F801D60101900D9252
:102820008A95E1F7D601149685E0FE01399601906C
:102830000D928A95E1F780E001C082EEA096CDBFAF
:10284000DEBFDF91CF911F910F91EF90DF90CF907E
:1028500008952F923F924F925F926F927F928F9244
:102860009F92AF92BF92CF92DF92EF92FF920F931F
:102870001F93CF93DF93CDB7DEB7A597CDBFDEBF54
:1028800019A21AA2833010F082EE93C0823019F49C
:1028900060317105C8F70115110511F480E089C098
:1028A0002115310589F328012CA33DA35A011B01F1
:1028B000F82EAE014F5D5F4F0E944913811179C020
:1028C00029A13AA1C8018A0D9B1D28173907E0F2FA
:1028D000350165E0769467946A95E1F720E22BA3D1
:1028E000C12CD12C812C912C84149504B8F68BA189
:1028F0008032C1F489A19AA1930155E0220F331FC0
:102900005A95E1F7821B930B809760F46401CA0C1F
:10291000DB1CD694C794D694C79497E0C922DD24D3
:1029200024E02BA3EBA08E010F5F1F4F2C2D462D13
:10293000B1018F2D0E948A1381113BC0C30123E096
:10294000880F991F2A95E1F78C0D9D1D880F991FFF
:10295000880F991F8A159B0520F4B501681B790B18
:1029600002C060E070E02BA1822F90E0861B970BE5
:102970008201081919098017910708F48C0181E078
:1029800090E08C0F9D1F680F791FA8018CA19DA15D
:10299000880D991D0E94E94A800E911E9BA19032DC
:1029A00021F42FEF621A720A9FCF8FEFC81AD80A4C
:1029B0009BCFA596CDBFDEBFDF91CF911F910F9129
:1029C000FF90EF90DF90CF90BF90AF909F908F904F
:1029D0007F906F905F904F903F902F90089561157A
:1029E000710529F0FB018083118280E0089582EE59
:1029F00008950F931F93CF93DA01FB018B01080F0A
:102A0000191F20E030E00E171F07C9F0C19168E0E0
:102A100070E091E0832F881F8827881F220F331FC3
:102A200041E05C2F592309F440E0481719F085E094
:102A300028273058990F6150710961F7E4CF2C9322
:102A400011963C93CF911F910F910895BC016F5F38
:102A50007F4FFC018181825090E0AB01480F591FEC
:102A60000C94F914FB0180E48283838184FF02C00B
:102A70008AE001C087E08183CF010E94261580E0B3
:102A80000895CB0127E1FB01228327E021830E94E7
:102A9000261580E00895FB018381982F937026E12D
:102AA0002283923010F48BE107C0933059F485FFF4
:102AB00002C087E401C087E28183CF010E9426150E
:102AC00080E0089582EE0895CB012BE1FB01228383
:102AD00027E021830E94261580E00895CB0122E0A3
:102AE000FB01228327E021830E94261580E00895C0
:102AF000CB0121E4FB01228327E021830E942615DC
:102B000080E00895EF92FF920F931F93CF93DF938E
:102B100000D0CDB7DEB77C01FC0180818250082F48
:102B200010E0AE014F5F5F4FB701C8010E94F9147A
:102B3000F701E00FF11F99818081981306C09A81F7
:102B40008181981302C080E001C085EE0F900F9044
:102B5000DF91CF911F910F91FF90EF900895FC01AD
:102B60002081243031F581818730D9F048F48130DB
:102B7000A1F0F8F0833099F08530C9F486ED08951E
:102B80008F3089F020F4883091F48AEF08958131F4
:102B900061F08F3F61F484ED089581ED089582ED39
:102BA000089587ED089584EF089583EF089581EEE9
:102BB000089580E00895CF93DF93CDB7DEB72697D1
:102BC000CDBFDEBF89839A831B821C826D837E8387
:102BD000BE016F5F7F4F83E00E94D9422696CDBF32
:102BE000DEBFDF91CF910895CF93DF93CDB7DEB7EE
:102BF0002697CDBFDEBF19821A828B839C836D839B
:102C00007E83BE016F5F7F4F83E00E94D94226968C
:102C1000CDBFDEBFDF91CF9108950F931F93CF9368
:102C2000DF931F92CDB7DEB7082F8F3C31F08BE3D7
:102C3000800F823010F01BE00FC061E070E0CE0129
:102C400001960E94F4158823B1F380E01DC08981AC
:102C5000081759F0115049F061E070E0CE0101967B
:102C60000E94F415882399F3F0CF1BE061E070E037
:102C7000CE0101960E94F4158111E7CF8981882346
:102C800011F0115099F781E00F90DF91CF911F91D2
:102C90000F9108957F928F929F92AF92BF92CF92A1
:102CA000DF92EF92FF920F931F93CF93DF9300D0A9
:102CB0001F92CDB7DEB74C018B01742EA12CB12C25
:102CC000013080E2180710F4680103C0C12C90E2C3
:102CD000D92E8AE0E82EF12C61E070E0CE01039657
:102CE0000E94F415882311F080E02AC08B81829520
:102CF0008F708F3029F081E0E81AF10868F7F4CF7F
:102D0000EF2891F3B601C4018A0D9B1D0E94F415B2
:102D10008111EACF772039F0AC0CBD1C0C191D09CC
:102D200079F681E00DC0809186298111F5CF62E0AE
:102D300070E0CE0101960E94F415882369F3D4CF88
:102D40002396CDBFDEBFDF91CF911F910F91FF90F2
:102D5000EF90DF90CF90BF90AF909F908F907F903B
:102D60000895AF92CF92DF92EF92FF920F931F934D
:102D7000CF93DF93CDB7DEB72997CDBFDEBF898371
:102D800090E0FC01E15CF109EF30F10508F050C082
:102D9000E85BFF4F0C94924A6A835B834C8311C0BB
:102DA000BB27A72F962F852FA11080688A834B837E
:102DB0001C8207C01A821B82FBCF8FEF8A838B8312
:102DC0008C8365E037C06A835B834C83DD82CE826F
:102DD00067E030C06A835B834C83ED82DE82CF8202
:102DE0000CC0BB27A72F962F852FA11080688A8340
:102DF0004B833C832D831E830F8368E01BC06A8353
:102E00005B834C833D832E831F83088769E012C058
:102E1000A1E0B0E0AC0FBD1FA80FB91FEE0FEC93FF
:102E200070E0CE0101960E94DB1591E0882309F144
:102E300090E01FC080918629811119C0862F90E0F3
:102E400001978C01092E000C220B330BDE01119629
:102E5000EFE70150110921093109D0F24D91F0E05D
:102E6000EE0FFF1FE427E454FF4FE491F2CF6150CF
:102E7000D7CF892F2996CDBFDEBFDF91CF911F918C
:102E80000F91FF90EF90DF90CF90AF9008954F9209
:102E90005F926F927F929F92AF92BF92CF92DF929A
:102EA000EF92FF920F931F93CF93DF93CDB7DEB7CF
:102EB0002697CDBFDEBF2B013C0129833A834B838C
:102EC0005C8381E3481651046104710418F423EC17
:102ED000B22E02C099ECB92E81E348165104610468
:102EE000710418F49924939401C0912C8AE08E8384
:102EF000A92C84E0C82ED12CE12CF12C09811A8157
:102F00002B813C81B301A2018B2D0E94B1168D83D0
:102F1000813031F48B2D0E940D168D83813009F1A3
:102F200061E070E080E090E00E946845A12CC12C37
:102F3000D12C760100E010E0980140E050E0BA01A9
:102F40008FEC0E94B1168FEC0E940D1661E070E0CC
:102F500080E090E00E9468458E8181508E838111CF
:102F6000C7CF8D812696CDBFDEBFDF91CF911F9158
:102F70000F91FF90EF90DF90CF90BF90AF909F9018
:102F80007F906F905F904F9008952F923F924F9255
:102F90005F926F927F928F929F92AF92BF92CF92E9
:102FA000DF92EF92FF920F931F93CF93DF93CDB7F2
:102FB000DEB72597CDBFDEBF1B012C013A018FEF95
:102FC000281631044104510409F018F4E4ECED83AF
:102FD00002C0FAECFD838FEF28163104410451043E
:102FE00009F018F48824839401C0812C9AE0992E6A
:102FF000A82C84E0C82ED12CE12CF12C00E010E0AC
:103000009801B201A1018D810E94B116B82EE1E0B4
:103010008E131CC08D810E940D16B82EF1E08F1307
:1030200015C0482D64E070E0CE0101960E944A165A
:10303000B82E81E0B8120AC089819A81AB81BC8127
:10304000F30180839183A283B3831FC061E070E0AA
:1030500080E090E00E946845A12CC12CD12C760123
:1030600000E010E0980140E050E0BA018FEC0E94CF
:10307000B1168FEC0E940D1661E070E080E090E0E8
:103080000E9468459A949110B3CF8B2D2596CDBFA1
:10309000DEBFDF91CF911F910F91FF90EF90DF90F6
:1030A000CF90BF90AF909F908F907F906F905F90E8
:1030B0004F903F902F900895AF92CF92DF92EF9272
:1030C000FF920F931F93A12CC12CD12C760100E00D
:1030D00010E0980140E050E0BA018FEC0E94B11678
:1030E0008FEC0E940D1680E01F910F91FF90EF90E2
:1030F000DF90CF90AF9008951092862980E00895D8
:10310000CF93DF9300D000D0CDB7DEB7AE014F5FD5
:103110005F4F0E94C51769817A818B819C812496BB
:10312000CDBFDEBFDF91CF9108950E94C5178130DA
:1031300011F08AEF089580E008950E9447178130CA
:1031400011F08AEF089580E00895CF93DF93CDB713
:10315000DEB72897CDBFDEBF19821A821B821C8280
:1031600010928629AE014F5F5F4F64E278EE80E0F7
:1031700090E00E94C517882329F080918629882332
:1031800081F026C081E080938629AE014F5F5F4FBA
:1031900064E278EE80E090E00E94C5178111EDCFE7
:1031A00034C089819A81AB81BC8183789C01AD0157
:1031B000206529833A834B835C8364E278EE80E068
:1031C00090E00E944717882301F181E080938629CF
:1031D000AE014B5F5F4F60E070E180E090E00E94E5
:1031E000C5178823A1F064E278EE80E090E00E94A9
:1031F0008018DC01CB018F789C01AD01206564E271
:1032000078EE80E090E00E949D1880E001C08AEF97
:103210002896CDBFDEBFDF91CF9108952F923F92C8
:103220004F925F926F927F928F929F92AF92BF92D6
:10323000CF92DF92EF92FF920F931F93CF93DF9382
:1032400000D000D0CDB7DEB71B012C013A014901F7
:103250008AE08B831C82E1E08E16910429F4F1E070
:10326000FC8382E0882E912C6401E12CF12CA12CAE
:1032700000E010E09801B201A10188EC0E94B116B3
:10328000B82E81E0B8121CC088EC0E940D16B82E32
:10329000E1E08E1315C0FC8140E0B401FF2349F04A
:1032A000CE0101960E944A16B82E8981F3018083CF
:1032B00004C0C3010E944A16B82EF1E0BF1631F1D6
:1032C00061E070E080E090E00E946845A12CC12C94
:1032D000D12C760100E010E0980140E050E0BA0106
:1032E0008FEC0E94B1168FEC0E940D1661E070E029
:1032F00080E090E00E9468458B8181508B83811132
:10330000AACFE1E0BE1611F08AEF01C080E024965A
:10331000CDBFDEBFDF91CF911F910F91FF90EF9056
:10332000DF90CF90BF90AF909F908F907F906F90E5
:103330005F904F903F902F9008952F923F924F9221
:103340005F926F927F928F929F92AF92BF92CF9235
:10335000DF92EF92FF920F931F93CF93DF9300D0F2
:1033600000D0CDB7DEB72B013C011A0149012AE09C
:10337000B22E81E08816910419F492E0892E912CE6
:103380006401E12CF12CA12C00E010E09801B301C4
:10339000A20187EC0E94B116813009F069C087EC68
:1033A0000E940D16813009F063C019821A828401CF
:1033B000E12CF12C6801013080E2180718F0C12CD3
:1033C00080E2D82EE114F10429F4013080E21807DC
:1033D00038F404C0013080E2180720F483E003C011
:1033E00081E001C082E0806F8C8361E070E0CE01FB
:1033F00004960E94DB1581113BC0B601C1018E0D00
:103400009F1D0E94DB15811133C08091862988237E
:1034100031F0EC0CFD1C0C191D0961F609C062E0CD
:1034200070E0CE0101960E94DB15882391F320C045
:1034300080918629882311F003E001C002E010E0AA
:10344000B801CE0101960E94F415811111C0FE0150
:10345000E00FF11F808181110BC0EFEFFFEFEC0F48
:10346000FD1FE00FF11F8081833C11F480E020C03C
:1034700061E070E080E090E00E946845A12CC12CE2
:10348000D12C760100E010E0980140E050E0BA0154
:103490008FEC0E94B1168FEC0E940D1661E070E077
:1034A00080E090E00E946845BA94B11062CF8AEF44
:1034B0002496CDBFDEBFDF91CF911F910F91FF907A
:1034C000EF90DF90CF90BF90AF909F908F907F90C4
:1034D0006F905F904F903F902F9008950E94E20769
:1034E00080E0089580E00895CF93DF931F92CDB7D9
:1034F000DEB7898389810E94EA078823D9F360E0D7
:1035000070E08FEE93E20E94D80761E070E0CE0198
:1035100001960E94680880E00E947A080E94430891
:103520008130E1F30F90DF91CF91089580E008950D
:10353000FF920F931F93CF93DF93F82EEB018A0135
:103540008F2D0E94EA078823D9F3B801CE010E948B
:10355000680860E070E081EF93E20E94DD0780E0A0
:103560000E947A080E9443088130E1F3DF91CF91F5
:103570001F910F91FF90089583E0FB0180834F5FBF
:103580005F4F88E50E94981A80E00895CF93DF93FB
:103590001F92CDB7DEB782E0898341E050E0BE01E3
:1035A0006F5F7F4F88E50E94981A80E00F90DF914F
:1035B000CF910895CF93DF931F92CDB7DEB781E00F
:1035C000898341E050E0BE016F5F7F4F88E50E9434
:1035D000981A80E00F90DF91CF910895FF920F939A
:1035E0001F93CF93DF93F82EEB018A018F2D0E945A
:1035F000EA078823D9F3B801CE010E94680881E068
:103600000E947A080E9443088130E1F3DF91CF9154
:103610001F910F91FF900895FA014081518188E533
:103620000E94EE1A80E00895CF93DF93CDB7DEB706
:103630002897CDBFDEBF41E060E070E080E00E94EF
:10364000741A87E893E10197F1F700C000008091B8
:1036500022DE909123DEA09124DEB09125DE8983C5
:103660009A83AB83BC8344E050E0BE016B5F7F4F25
:1036700088E50E94EE1AFE013596DE0111969E0144
:10368000275F3F4F81E041919D91491380E0E21710
:10369000F307C9F7811102C080EF01C080E02896CE
:1036A000CDBFDEBFDF91CF91089588EDA89584BF8F
:1036B000809100018160809300018091010181FD72
:1036C000FCCFFFCFFC0180818053853028F40E941D
:1036D0002A2B88ED90EE02C08CED90EE0C94944B6A
:1036E00085E191EE9F938F938BE191EE9F938F9362
:1036F0000E947E4B0F900F900F900F90089582E2E2
:1037000091EE9F938F938BE191EE9F938F930E9405
:103710007E4B0F900F900F900F9008958091882905
:1037200090918929009769F09F938F938CE191EE96
:103730009F938F930E947E4B0F900F900F900F904E
:10374000089586E291EE9F938F930E947E4B0F9097
:103750000F9008950F931F93CF93DF93CDB7DEB7EC
:10376000C85CD109CDBFDEBF8E010F5F1F4FC801FE
:103770000E948743811103C01F930F9304C082E30B
:1037800091EE9F938F930E947E4B0F900F90C853A2
:10379000DF4FCDBFDEBFDF91CF911F910F91089515
:1037A000EF92FF921F93CF93DF93CDB7DEB72697AB
:1037B000CDBFDEBF1B821C821D821E8268E471EEBB
:1037C0000E94D74A89839A839E012F5F3F4F7901D8
:1037D00010E0009771F0133061F0F701819391933D
:1037E0007F011F5F68E471EE80E090E00E94D74A9D
:1037F000F0CFE980FA80E114F104D9F02B813C810B
:103800008D819E812115310519F4009779F417C037
:10381000009761F4C9010E94B94A9EEF980F923057
:1038200008F443C0813059F012E01DC00E94B94A2B
:10383000182F113021F0C8F11430A8F036C04EE135
:1038400050E0B70183E29DE20E94264B66E27EEDE6
:1038500082E49DE20E941F4B69E171EE81E69DE2E8
:103860000E941F4B33C04EE150E0B70183E29DE25E
:103870000E94264B6B817C814EE150E082E49DE208
:103880000E94264B1F921F938CE39EED9F938F9374
:1038900081E69DE29F938F930E94F44B0F900F90CF
:1038A0000F900F900F900F9011C08AE491EE9F93AC
:1038B0008F930E947E4B0F900F902696CDBFDEBF58
:1038C000DF91CF911F91FF90EF9008958CE891EEDA
:1038D0009F938F930E947E4B0E94084A0F900F90F7
:1038E000882321F00E946A440E9484442696CDBF1A
:1038F000DEBFDF91CF911F91FF90EF900C94A00558
:103900000E946A440E94AA3188ED90EE0C94944B78
:103910008F929F92AF92BF92DF92EF92FF920F939E
:103920001F93CF93DF93F12C01EE12EEC2E9D1EE9B
:103930000E945025882309F480C00E945725E091F9
:103940008B298D3019F08A3009F068C0F0E0E45717
:10395000F64D108290918A29911153C091E08A30DE
:1039600029F4209187292D3009F490E0809387294C
:10397000992309F446C0F11044C060E270E08CE87D
:1039800099E20E940B4B7C01009719F0DC011D921B
:103990007D01ECE8F9E201900020E9F73197EC585D
:1039A000F942DE2E81ECA82E82EEB82EF501808041
:1039B0009180B4018CE899E20E94164BF4010190C9
:1039C0000020E9F73197E819F90981110CC0DE12DE
:1039D0000AC0D5011296ED91FC911397309719F01A
:1039E000C70109950CC0B4E0AB0EB11C0A151B054C
:1039F000E9F6DF93CF930E947E4B0F900F90FF2448
:103A0000F39480918A29882321F08BE792EE0E941B
:103A1000944B10928B2910928A298ACFE43648F46D
:103A200091E09E0F90938B29F0E0E457F64D808350
:103A30007FCF81E080938A297BCF62E370E080E0D2
:103A400090E0DF91CF911F910F91FF90EF90DF9069
:103A5000BF90AF909F908F90089580914008809183
:103A6000440887FDFACF8091450880688093450817
:103A700042E350E060E070E082E798E20C94B12706
:103A800080938829909389290895CF93DF93DC014F
:103A9000892B69F1ED91FC911197309741F11496C2
:103AA0002D913C9115972115310509F112968D91B3
:103AB0009C911397019728173907C8F4E20FF31F59
:103AC000EF01219788818E3241F42F5F3F4F14968A
:103AD0002D933C9315978BE709C08B3741F02F5FEF
:103AE0003F4F14962D933C9315978CE28083DF9182
:103AF000CF910895EF92FF920F931F93CF93DF938F
:103B000000D0CDB7DEB70097E1F161157105C9F1BD
:103B100041155105B1F19A01AB017C01FC016083B3
:103B20007183228333831482158229833A830CEFB5
:103B300018E29E012F5F3F4F6BE170E084EF92EE41
:103B40000E940C37811120C0F701448155812981E1
:103B50003A81240F351F248335834281538141509C
:103B600051092417350778F440815181B9016F5FFD
:103B70007F4F64837583FA01E20FF31F9EE2908307
:103B800003C082EE01C084EE0F900F90DF91CF91C1
:103B90001F910F91FF90EF9008958F929F92AF9297
:103BA000BF92CF92DF92EF92FF920F931F93CF932A
:103BB000DF9300D0CDB7DEB7FC015B01892B09F4A0
:103BC000EEC0A081B181109709F4E9C08281938190
:103BD000892B09F4E4C084819581009709F4DFC042
:103BE000AD01480F591F9A0121503109D9012C917B
:103BF0002D3731F00196848395838DE7DA018C931C
:103C00002481358160E070E06217730759F0A0816C
:103C1000B181A60FB71F8C916F5F7F4F8E32A1F7D6
:103C20006B0101C0690149018C189D08C401805CC9
:103C30009F4F880F991F880F991F63E070E00E94C3
:103C4000294A82819381821B930B6D5F7F4F861778
:103C5000970710F484EEA4C07F0120813181B9015F
:103C60006C0D7D1DA401820F931F0E94F24AF70183
:103C70002281338129833A830190F081E02DAF01C5
:103C80004C0D5D1DD70114968D919C911597B9012E
:103C9000681B790BCB010CEF18E29E012F5F3F4FA1
:103CA000B4018E0F9F1F0E940C37811179C069816A
:103CB0007A816C0D7D1DD70114966D937C931597B9
:103CC00012964D915C911397CA0188559109681716
:103CD000790708F0BFCF8D919C9140525109480F50
:103CE000591F0E94AC3C81115BC0F701608171815A
:103CF00082819381AC0140545109460F571F809730
:103D0000680F791FC5010E94382A811149C0D70167
:103D10002D913C91119714968D919C911597AC0122
:103D20004F5F5F4F14964D935C931597F901E80F21
:103D3000F91F2EE2208312962D913C911397149631
:103D40004D915C911597C901841B950B89839A83CA
:103D5000ED91FC914E0F5F1FC901805491099E01A6
:103D60002F5F3F4F60E470E08E0F9F1F0E940C3763
:103D7000F7012481358189819A81820F931F848381
:103D80009583228133818217930708F063CF2081C6
:103D90003181F901E80FF91F108280E001C082EE45
:103DA0000F900F90DF91CF911F910F91FF90EF90A7
:103DB000DF90CF90BF90AF909F908F900895CF925B
:103DC000DF92EF92FF920F931F93CF93DF93EC015B
:103DD000892B09F44FC088819981892B09F44AC045
:103DE0008A819B81892B09F445C06115710509F40D
:103DF00041C041155105F1F16A017B01CE010E94DC
:103E0000451D8C819D814A815B818A01081B190BAC
:103E1000DF92CF92FF92EF9221EE32EE3F932F93FB
:103E20001F930F9328813981820F931F9F938F9344
:103E30000E94C44B6C01092E000CEE08FF082DB740
:103E40003EB7265F3F4F2DBF3EBF1C141D041E040E
:103E50001F0494F4A80160E070E0C416D506E606DD
:103E6000F70654F42C813D81820F931F8C839D8330
:103E700080E003C082EE01C081EEDF91CF911F91FF
:103E80000F91FF90EF90DF90CF900895AF92BF9287
:103E9000CF92DF92EF92FF920F931F93CF93DF9316
:103EA000EC01892B09F451C088819981892B09F48F
:103EB0004CC08A819B81892B09F447C0611571052B
:103EC00009F443C0A52EB42EC32ED22E7B01CE0101
:103ED0000E94451D8C819D814A815B818A01081B5E
:103EE000190BAF92BF92CF92DF92FF92EF922BEE1F
:103EF00032EE3F932F931F930F9328813981820FC6
:103F0000931F9F938F930E94C44B6C01092E000C4A
:103F1000EE08FF082DB73EB7245F3F4F2DBF3EBFD1
:103F20001C141D041E041F0494F4A80160E070E03A
:103F3000C416D506E606F70654F42C813D81820F9F
:103F4000931F8C839D8380E003C082EE01C081EECD
:103F5000DF91CF911F910F91FF90EF90DF90CF9065
:103F6000BF90AF900895E0E9F4E08081886081938C
:103F7000E83984E0F807C9F7E0EBF4E08081886075
:103F80008193E83B84E0F807C9F7E0E1F4E0808141
:103F900088608193E83184E0F807C9F7E0E3F4E052
:103FA000808188608193E83384E0F807C9F7E0E511
:103FB000F4E0808188608193E83584E0F807C9F7F0
:103FC000E0E7F4E0808188608193E83784E0F807D7
:103FD000C9F70895EEE7FDE283818F5F838308953B
:103FE0000895CF93DF9300D000D0CDB7DEB7109205
:103FF000802D81E00E94AB45AE014F5F5F4F60E7CF
:1040000070E180E090E00E94BA45811111C0898181
:104010009A81AB81BC819C01AD01226029833A83E6
:104020004B835C8360E770E180E090E00E94BC45D8
:104030002496CDBFDEBFDF91CF9108958091802D72
:10404000811113C080917F2D882331F080917F2DC5
:104050008F5F80937F2D09C080917E2D8823B1F3DF
:104060000E94512D882391F3089580E00895809156
:104070007F2D882329F080917F2D815080937F2D83
:1040800080E0089580917F2D882329F080917F2DF5
:10409000815080937F2D80917F2D811105C080916B
:1040A0007E2D81110C94F72C80E008952AE130E0F8
:1040B00040E050E060E08EE79DE20E9446048AEE18
:1040C0009FE10E949B4580EF9FE18093922D90930A
:1040D000932D80E00895CF930E941E20C82F2AE1DF
:1040E00030E040E050E060E08EE79DE20E94460450
:1040F0008C2FCF9108952F923F924F925F926F92A3
:104100007F928F929F92AF92BF92CF92DF92EF9267
:10411000FF920F931F93CF93DF93CDB7DEB76297D4
:10412000CDBFDEBF482E562E3A0149015801862FD9
:104130008F778E874D8688E090E08F87988B8F856C
:104140009889012B29F08E0D9F1D8C0D9D1D02C09D
:10415000820F931F8F87988B0E941E20811140C170
:104160001D821E821F821886198A1A8A19861A864B
:104170001B861C8689859A85AB85BC8584298987A1
:104180009A87AB87BC8789859A85AB85BC8595293D
:1041900089879A87AB87BC872F85388949855A8557
:1041A0006B857C85C901A0E0B0E0DC0199278827F8
:1041B000842B952BA62BB72B89879A87AB87BC8737
:1041C00029853A854B855C856CE870E180E090E05C
:1041D0000E94BC45182F811100C119861A861B86C2
:1041E0001C8689859A85AB85BC85826089879A877C
:1041F000AB87BC8729853A854B855C8568E770E18C
:1042000080E090E00E94BC45182F8111E6C01D821D
:104210001E821F821886198A1A8A89899A89883E7D
:10422000934058F4AE01475F5F4F68E770E180E06C
:1042300090E00E94BA45882349F08D819E81AF812C
:10424000B885892B8A2B8B2B59F5C3C089899A890C
:10425000843F914040F089899A8961E070E080E074
:1042600090E00E94684589859A85AB85BC8581FD73
:1042700011C0AE014B5F5F4F60E074E085E190E0FC
:104280000E94BA45182F8823C1F21D821E821F8208
:104290001886A3C089899A890196898B9A8BBDCF8C
:1042A0008D819E81AF81B88589839A83AB83BC83DE
:1042B0008F8598898F87988B69817A818B819C8182
:1042C00008E010E020E030E0AE01435F5F4F0E9465
:1042D0003B46182F811181C089819A81AB81BC81B5
:1042E0000896A11DB11D89839A83AB83BC83611499
:1042F0007104D9F01401412C512C69817A818B8190
:104300009C8192018101A3010E943B46182F8111DB
:1043100064C089819A81AB81BC81820D931DA41DEB
:10432000B51D89839A83AB83BC83A114B10449F181
:1043300089819A81AB81BC81C818D9088C0D9D1DDB
:10434000A11DB11D89839A83AB83BC832701612C96
:10435000712C69817A818B819C8193018201A501F5
:104360000E943B46182F811138C089819A81AB8108
:10437000BC81840D951DA61DB71D89839A83AB83CF
:10438000BC838D819E81AF81B88522E0880F991F03
:10439000AA1FBB1F2A95D1F789879A87AB87BC874D
:1043A00089859A85AB85BC85826089879A87AB872A
:1043B000BC8729853A854B855C856CE670E180E099
:1043C00090E00E94BC45182F811107C00E94422036
:1043D00007C00E9442208DEF03C00E943720812F2A
:1043E0006296CDBFDEBFDF91CF911F910F91FF90FD
:1043F000EF90DF90CF90BF90AF909F908F907F9085
:104400006F905F904F903F902F900895CF92DF92E2
:10441000FF920F931F93CF93DF93CDB7DEB72C9707
:10442000CDBFDEBFFF24F3948091812D882309F452
:10443000FEC08091812D81508093812DAE01475F18
:104440005F4F60E770E180E090E00E94BA45182F6E
:104450008111EAC0898580FFF1CF80E00E94AB45E1
:1044600089859A85AB85BC859C01AD012E7F298706
:104470003A874B875C8760E770E180E090E00E94BC
:10448000BC45182F8111D0C0F092802D89859A8566
:10449000AB85BC8522E0B695A795979587952A951B
:1044A000D1F76C012FE0D222C114D10439F2198264
:1044B0001A821B821C82AE014F5F5F4F64E870E17D
:1044C00080E090E00E94BA45182F811127C06981D1
:1044D0007A818B819C816093822D7093832D809350
:1044E000842D9093852D860120E030E00093862D69
:1044F0001093872D2093882D3093892D04E010E0B0
:1045000020E030E0AE014B5F5F4F0E94BE45182FA8
:104510008F8198858F839887112321F081E00E94F5
:10452000AB4582C08F819885C816D90661F08F810E
:1045300098859601281B390B2530310520F081E044
:104540000E94AB4570C08D81813061F480918A2DCD
:1045500090918B2D892B09F45BC0E0918A2DF0910D
:104560008B2D46C08D81823061F480918C2D90918D
:104570008D2D892B09F44CC0E0918C2DF0918D2D5F
:1045800037C08D81843059F480918E2D90918F2D7C
:10459000892BF1F1E0918E2DF0918F2D29C08D8125
:1045A000863059F48091942D9091952D892B81F12D
:1045B000E091942DF091952D1BC08D81873059F499
:1045C0008091902D9091912D892B11F1E091902D5A
:1045D000F091912D0DC08D81853029F58091962D1A
:1045E0009091972D892BA1F0E091962DF091972D28
:1045F0006F8178858E8109811A812B813C81A90187
:104600009801285F3F4F4F4F5F4F685071090995E0
:104610008091802D882309F407CF0E94F11F182F65
:10462000811102C001CF1AEF111108CFFDCE2C96D7
:10463000CDBFDEBFDF91CF911F910F91FF90DF9033
:10464000CF9008954F925F926F927F928F929F9238
:10465000AF92BF92CF92DF92EF92FF920F931F9390
:10466000CF93C02F611571058105910531F041157A
:10467000510519F02115310519F4C1115EC06EC044
:10468000890120E030E0C090862DD090872DE09009
:10469000882DF090892DC016D106E206F30608F4A5
:1046A0005DC0C090822DD090832DE090842DF0903D
:1046B000852D6C157D058E059F0508F44FC06B0197
:1046C0007C01C00ED11EE21EF31E4090822D509040
:1046D000832D6090842D7090852D8090862D9090F4
:1046E000872DA090882DB090892D840C951CA61C38
:1046F000B71C8C149D04AE04BF0480F10E94BE451B
:1047000081112DC00091822D1091832D2091842D37
:104710003091852D4091862D5091872D6091882D67
:104720007091892D400F511F621F731FC416D5064B
:10473000E606F70611F0CC2391F0CF911F910F916F
:10474000FF90EF90DF90CF90BF90AF909F908F90B1
:104750007F906F905F904F900C94F11F84EFCF91FA
:104760001F910F91FF90EF90DF90CF90BF90AF908F
:104770009F908F907F906F905F904F90089590E002
:10478000FC013197E730F10540F5E95AFF4F0C94F1
:10479000924A60938C2D70938D2D1DC060938A2D4D
:1047A00070938B2D18C060938E2D70938F2D13C036
:1047B0006093922D7093932D0EC06093942D7093FF
:1047C000952D09C06093902D7093912D04C0609336
:1047D000962D7093972D80E0089584EF089581E0E1
:1047E000089583E008950F931F93CF93DF93182FBD
:1047F000092FEB0160E173EECE010E94354BFC0105
:10480000892B39F081E09185913309F080E00E9495
:10481000F22A0F931F938AE193EE9F938F931F9237
:104820001F920E94392BDF93CF9384E293EE9F93E4
:104830008F931F921F920E94392B8DB79EB70C96B3
:104840008DBF9EBFDF91CF911F910F910895CF93A0
:10485000DF930E94520BEC010E944F0B482FE92F6F
:10486000CE01D7FF04C0882799278C1B9D0B24E617
:1048700030E0B9010E943D4A9F938F93CE01B90168
:104880000E943D4A7F936F93EF934F9380E393EEA3
:104890009F938F9380EF99E29F938F930E94F44BA5
:1048A0002DB73EB7265F3F4F2DBF3EBF18161906E6
:1048B0004CF4BC0180EF99E20E94104ADF91CF9145
:1048C0000C94E42ADF91CF9108950E9403090E947D
:1048D0009E09FDCFEF92FF921F93CF93DF93CDB749
:1048E000DEB7C75CD109CDBFDEBF7901E091842975
:1048F000F0918529208131818C836D837E834115E0
:10490000510541F083E0FA01DE01179601900D9206
:104910008A95E1F7BE016F5F7F4FC9010E94321592
:10492000182F81111AC06091842970918529CE01B8
:1049300001960E942812182F81110FC0E114F10472
:1049400061F04F81453048F050E043505109BE01BD
:10495000685F7F4FC7010E94E94A812FC953DF4F2B
:10496000CDBFDEBFDF91CF911F91FF90EF900895F3
:104970009B0140E050E0BC0180E00C946A248091EF
:104980004008E0915B2AEF5FEF7390915A2AE91794
:1049900059F0E0935B2AF0E0E45AF54D8083809172
:1049A000592A8F5F8093592A08958091362A882347
:1049B00089F0E091372AEF5FEF71E093372AF0E05A
:1049C000E75CF54D8081809342088091362A8150C2
:1049D0008093362A8091362A811105C0809145083E
:1049E0008F7D8093450808951F920F920FB60F9206
:1049F00011242F933F934F935F936F937F938F93E4
:104A00009F93AF93BF93EF93FF93E0917E28F09134
:104A10007F28309709F00995FF91EF91BF91AF91F1
:104A20009F918F917F916F915F914F913F912F91C6
:104A30000F900FBE0F901F9018951F920F920FB6F8
:104A40000F9211242F933F934F935F936F937F9314
:104A50008F939F93AF93BF93EF93FF93E0917C2845
:104A6000F0917D28309709F00995FF91EF91BF9162
:104A7000AF919F918F917F916F915F914F913F91F6
:104A80002F910F900FBE0F901F9018951F920F92AD
:104A90000FB60F9211240F900FBE0F901F90189514
:104AA0009091592A81E0911101C080E00895809190
:104AB000592A8823E1F3E0915A2AEF5FEF73E093DC
:104AC0005A2A0FB6F8940F928091592A81508093F8
:104AD000592A0F900FBEF0E0E45AF54D80810895F9
:104AE0009091382A9F5F9F712091362A2032E1F3FE
:104AF000E92FF0E0E75CF54D80839093382A0FB6FC
:104B0000F8940F928091362A8F5F8093362A0F9007
:104B10000FBE8091450880628093450808950E94E9
:104B2000702580E090E00895E0E4F8E086E490E10C
:104B30008087918780EC868383E0878310925A2A4E
:104B400010925B2A1092592A1092372A1092382A12
:104B50001092362A80E898E2809323319093243192
:104B600080E0089560E070E0CB01089580914101FC
:104B70008111FCCF81E080934001809347018093B5
:104B800042010895E0E4F1E082818E7F82831092F9
:104B9000A12A1092A22A1092A32A1092A42A10925B
:104BA0009C2A0895CF92DF92EF92FF920F931F936A
:104BB0000FEF1FEF20E030E068017901C61AD70A35
:104BC000E80AF90AC0929D2AD0929E2AE0929F2A72
:104BD000F092A02A8091410181FDFCCF80919D2A15
:104BE00090919E2AA0919F2AB091A02A809348017B
:104BF000909349011F910F91FF90EF90DF90CF901C
:104C00000895CF92DF92EF92FF920F931F9300913E
:104C1000A12A1091A22A2091A32A3091A42A600FE0
:104C2000711F821F931F20919C2A222319F100914A
:104C30004801109149012091430120FD03C020E06B
:104C400030E004C00FEF1FEF20E030E0C0909D2A5D
:104C5000D0909E2AE0909F2AF090A02ADC01CB0100
:104C60008C199D09AE09BF09BC01CD01600F711FF0
:104C7000821F931F1F910F91FF90EF90DF90CF90B5
:104C800008950F931F93CF93DF93C091A72AD091DC
:104C9000A82A60E070E0CB010E940126209781F0F5
:104CA0000E811F8128853985061B170B280B390BB0
:104CB0000E831F83288739870C80DD81C02DEECFBE
:104CC0000091A12A1091A22A2091A32A3091A42A0E
:104CD000061B170B280B390B0093A12A1093A22A4D
:104CE0002093A32A3093A42ADF91CF911F910F9193
:104CF0000895BF92CF92DF92EF92FF920F931F938E
:104D0000CF93DF93EC01CE80DF80E884F9840091BB
:104D1000A72A1091A82A1C821D828091A12A909115
:104D2000A22AA091A32AB091A42AC816D906EA06FD
:104D3000FB0668F40E9441262FEFE21AF20AC61A17
:104D4000D70AE80AF90ACE82DF82E886F986E0E02F
:104D5000F0E0BB24B3940115110561F0D80116965B
:104D60004D915D916D917C911997C416D506E6061B
:104D7000F70620F4B1E0BB1221C005C0B12CF80148
:104D800004811581E8CF6FEF7FEF80E090E00E9413
:104D9000D225B0924301E091A72AF091A82A28E2F7
:104DA000EE38F20719F40480F581E02DEC83FD83E1
:104DB000C093A72AD093A82A81E007C08481958157
:104DC0008C839D83C483D58380E0DF91CF911F9135
:104DD0000F91FF90EF90DF90CF90BF9008950F93C9
:104DE0001F93809142018E7F80934201E091A72A18
:104DF000F091A82A309721F41F910F910C94C225AD
:104E00000091A12A1091A22A2091A32A3091A42ACC
:104E100086819781A085B185BC01CD01601B710B96
:104E2000820B930B6115710521E08207910508F152
:104E30008091A12A9091A22AA091A32AB091A42A9C
:104E40000197AF4FBF4F8093942890939528A093DC
:104E50009628B0939728E0939228F09393288EE8B1
:104E600098E28093A72A9093A82A6FEF7FEF80E0C3
:104E700090E00E94D225809142018160809342019E
:104E800081E080939C2A1F910F910895FC018081FD
:104E90009181892BA1F1809142018E7F8093420103
:104EA000808191818617970761F4A081B181149662
:104EB0008D919C911597808391830E94EF2681E0CC
:104EC00008950190F081E02DA0E0B0E0309781F0EE
:104ED000E617F70741F48481958114968D939C938E
:104EE000159781E006C0DF010480F581E02DEECF4B
:104EF00080E090914201916090934201089580E09A
:104F00000895CF93DF93EC01BC0187EA9AE20E94F7
:104F10004627811105C0BE0185EA9AE20E94462714
:104F20001C821D82DF91CF910895FC0114821582AD
:104F30002091A52A3091A62A232B29F48093A52A13
:104F40009093A62A0895E091A52AF091A62A24819B
:104F500035812115310511F0F901F9CF848395834D
:104F60000895CF92DF92EF92FF92CF93DF93EC01FF
:104F70006A017B010E948127809142018E7F80938C
:104F80004201C701B6010E9401266E837F83888794
:104F90009987CE010E947926882341F0DF91CF9135
:104FA000FF90EF90DF90CF900C94EF2680919C2A99
:104FB000882329F080914201816080934201DF9132
:104FC000CF91FF90EF90DF90CF900895CF93DF9334
:104FD0008091A52A9091A62A892B79F1909142017E
:104FE000809142018E7F80934201C091A52AD09189
:104FF000A62AE091A52AF091A62A24813581209342
:10500000A52A3093A62A1C821D8290FF05C080919C
:105010004201816080934201E881F9818A819B810C
:105020000995AB01BC01411551056105710529F0D8
:10503000CE01DF91CF910C94B127DF91CF910895EC
:105040001F920F920FB60F9211242F933F934F93FD
:105050005F936F937F938F939F93AF93BF93CF9300
:10506000DF93EF93FF938091A72A9091A82AFC01E8
:10507000C481D58146815781608571854093A12A7D
:105080005093A22A6093A32A7093A42A10929D2A77
:1050900010929E2A10929F2A1092A02AF8E28E382F
:1050A0009F0711F00E949527C093A72AD093A82AA2
:1050B0000E94EF2681E080934301FF91EF91DF9101
:1050C000CF91BF91AF919F918F917F916F915F91A0
:1050D0004F913F912F910F900FBE0F901F901895F9
:1050E0000F931F93CF93DF93CDB7DEB7C75CD10982
:1050F000CDBFDEBFFA01A0918429B09185294D91E1
:105100005C91982F93708C836D837E83923010F422
:1051100094E107C0933069F585FF02C090E401C0B7
:1051200090E2DE01179601900D929A95E1F78901C0
:10513000BE016F5F7F4FCA010E944B1581111CC0D9
:105140006091842970918529CE0101960E942812D0
:10515000811112C00115110571F08F81833258F051
:1051600080E2FE013896D80101900D928A95E1F710
:1051700002C082EE01C080E0C953DF4FCDBFDEBF69
:10518000DF91CF911F910F910895807C403251059E
:1051900011F4836004C04034510541F4836220E07F
:1051A00030E0AB0160E070E00C94702882EE08956E
:1051B00065986D98E5E7F4E08081877F8083808142
:1051C0008F7780838081887F84608083029A0A98A9
:1051D000E2E1F4E08081877F808380818F77808324
:1051E0008081887F8083019A0998E1E1F4E08081E1
:1051F000877F808380818F7780838081887F808391
:10520000A698AE98E6EBF4E0808188608083808188
:105210008F7780838081887F8083049A0C98E4E173
:10522000F4E08081877F808380818F778083808195
:10523000887F8083039A0B98E3E1F4E08081877F85
:10524000808380818F7780838081887F8083069AA6
:105250000E98E6E1F4E08081877F808380818F77FC
:1052600080838081887F808305980D98E5E1F4E054
:105270008081877F808380818F7780838081887F12
:105280008083079A0F98E7E1F4E08081877F80832D
:1052900080818F7780838081887F8083A198A9987F
:1052A000E1EBF4E08081877F808380818F7780834A
:1052B0008081887F8083A09AA898E0EBF4E08081C9
:1052C000877F808380818F7780838081887F8083C0
:1052D000A398AB98E3EBF4E08081877F80838081A3
:1052E0008F7780838081887F8083619A699AE1E7E4
:1052F000F4E08081877F808380818F7780838081C5
:10530000887F8083A298AA98E2EBF4E08081877F6F
:10531000808380818F7780838081887F8083609A7B
:10532000689AE0E7F4E08081877F808380818F77CF
:1053300080838081887F8083639A6B9AE3E7F4E0BF
:105340008081877F808380818F7780838081887F41
:105350008083A598AD98E5EBF4E080818860808338
:1053600080818F7780838081887F8083A498AC98A8
:10537000E4EBF4E08081877F808380818F77808376
:105380008081887F8083629A6A9AE2E7F4E0808174
:10539000877F808380818F7780838081887F8083EF
:1053A000E0EEF5E0128210821482118215821382DF
:1053B000089580E0089581E38093C0081092A92A9F
:1053C00080E00895E0ECF8E08081816080830895BA
:1053D0009091A92A923009F4FFCF8093C40880915C
:1053E000C30887FFFCCF8091C40808950F931F93D3
:1053F000CF93DF93CDB7DEB7C75CD109CDBFDEBF9A
:105400004115510549F18A01E0918429F0918529DE
:10541000208131818C836D837E83BE016F5F7F4FDE
:10542000C9010E94781581111AC060918429709178
:105430008529CE0101960E942812811110C04F814A
:10544000453060F050E043505109BE01685F7F4F26
:10545000C8010E94E94A02C082EE01C080E0C9533F
:10546000DF4FCDBFDEBFDF91CF911F910F91089528
:10547000CF92DF92EF92FF920F931F93CF938C0105
:105480006B017A0180E090E00E94A844811123C062
:10549000E0918429F09185290190F081E02D8081AF
:1054A000833019F4C0E280E402C0C0E080E040E252
:1054B00050E0B6010E94C52881110DC0A701B801B6
:1054C0008C2F8068CF911F910F91FF90EF90DF900C
:1054D000CF900C94F629CF911F910F91FF90EF90F0
:1054E000DF90CF90089588E08093670468EC70E0C7
:1054F00080E090E0089584E08093670468EC70E0B9
:1055000080E090E008954DB121E030E0662349F05D
:10551000B90102C0660F771F8A95E2F7CB01842B91
:1055200009C0B90102C0660F771F8A95E2F7CB0167
:10553000809584238DB90895699A1092AA2A60E013
:1055400070E0CB010895CF93C1E0811101C0C0E0AC
:105550006C2F83E00E94832A2FE986E891E0215096
:1055600080409040E1F700C000006C2F82E00E9474
:10557000832A2FE986E891E0215080409040E1F7AE
:1055800000C000006C2F81E00E94832A2FE986E88A
:1055900091E0215080409040E1F700C000006C2F66
:1055A00080E00E94832A2FE986E891E02150804024
:1055B0009040E1F700C00000CF91089580E00E9484
:1055C000A32A81E00C94A32A8091AA2A811109C000
:1055D000699848EC50E060E070E08CEA98E20C9446
:1055E000B1270895882311F0699801C0699A81E074
:1055F0008093AA2A40ED57E060E070E08CEA98E2E0
:105600000C94B127882341F048EC50E060E070E052
:1056100088E998E20C94B12788E998E20C948127F4
:1056200048EC50E060E070E082EA98E20E94B12726
:1056300081E08093AB2A08958091AB2A882331F0D2
:1056400082EA98E20E9481271092AB2A0895809105
:10565000AB2A08958093AC2A089544E150E0BC0140
:1056600086EB98E20C94264B0E942D2B1092AC2ACC
:105670000895CF93DF93CDB7DEB7ED81E53098F590
:105680008091AC2A8E1778F1AE81A43008F0A3E0A7
:10569000B0E0AA0FBB1FA55FBB4111968C9111977B
:1056A0008F938C918F93F0E0EE0FFF1FED5EFB4127
:1056B00081818F9380818F9386EB98E29F938F9364
:1056C0008EE493EE9F938F930E947E4BBE01675FA3
:1056D0007F4F8F8198850E94164C89E593EE0E943A
:1056E000944BCDBFDEBFDF91CF910895E0E0F6E0AF
:1056F00081E0868B93E1928395E09683808380E0BE
:10570000089580910B06817008958093060681E0CC
:10571000809308060E94812B8823E1F320911006D4
:105720003091110690910B06916090930B06C90180
:1057300008951F920F920FB60F9211242F933F934B
:105740004F935F936F937F938F939F93AF93BF9389
:10575000EF93FF9380910B06816080930B06E0919D
:10576000AD2AF091AE2A309709F00995FF91EF919B
:10577000BF91AF919F918F917F916F915F914F9169
:105780003F912F910F900FBE0F901F901895CF92C1
:10579000DF92EF92FF92CF93DF9300D000D0CDB78E
:1057A000DEB76B017C016894D0F8A701960160EA2E
:1057B00074E180E090E00E94BC4519821A821B824D
:1057C0001C82AE014F5F5F4F60EA74E180E090E0C1
:1057D0000E94BA458111E9CF89819A81AB81BC8150
:1057E000C816D906EA06FB0601F780E02496CDBF6D
:1057F000DEBFDF91CF91FF90EF90DF90CF900895C3
:10580000CF93DF9300D000D0CDB7DEB719821A82D4
:105810001B821C82AE014F5F5F4F68E074E180E045
:1058200090E00E94BA4581112FC089819A81AB8195
:10583000BC819C01AD01316029833A834B835C8339
:1058400068E074E180E090E00E94BC4581111CC0DA
:10585000AE014F5F5F4F60E07AE180E090E00E9430
:10586000BA45811111C089819A81AB81BC819C01AB
:10587000AD01416029833A834B835C8360E07AE128
:1058800080E090E00E94BC452496CDBFDEBFDF9152
:10589000CF910895CF92DF92EF92FF92CF93DF9353
:1058A00000D000D0CDB7DEB7C090AF2AD090B02ADC
:1058B000E090B12AF090B22AC114D104E104F104BD
:1058C00009F081C04FEA5AE260E070E180E090E0C8
:1058D0000E94BA45882349F01092AF2A1092B02A4C
:1058E0001092B12A1092B22A76C0AE014F5F5F4F7C
:1058F00064EF73E180E090E00E94BA458111ECCF43
:105900008091AF2A9091B02AA091B12AB091B22A89
:10591000803A22E0920720E1A207B10569F489816B
:105920009A81AB81BC810197A105B105D1F181EAD2
:1059300092E0A0E1B0E018C0803B22E0920720E1B5
:10594000A207B105F9F489819A81AB81BC818330CA
:105950009105A105B10529F10497A105B10569F4E7
:1059600081EB92E0A0E1B0E08093AF2A9093B02A5F
:10597000A093B12AB093B22A14C082EB92E0A0E1C6
:10598000B0E0F2CF803F9105A041B10551F44FEA5C
:105990005AE260E070E08BE390E00E94BA4581112A
:1059A0009BCF8091AF2A9091B02AA091B12AB0915B
:1059B000B22AA07FA5608093AF2A9093B02AA093CB
:1059C000B12AB093B22AC090AF2AD090B02AE0900A
:1059D000B12AF090B22AC701B6012496CDBFDEBF2E
:1059E000DF91CF91FF90EF90DF90CF900895CF930C
:1059F000DF9300D000D0CDB7DEB7AE014F5F5F4F71
:105A000060E170E080E090E00E94BA45811143C0FF
:105A1000898180FDF2CFAE014F5F5F4F61E070E0A2
:105A200080E090E00E94BA45811135C089819A8159
:105A3000AB81BC8181FD0CC0AE014F5F5F4F6BE05D
:105A400070E080E090E00E94BA45882389F023C08E
:105A50009C01AD012D7F29833A834B835C8361E0F8
:105A600070E080E090E00E94BC45882329F313C0D9
:105A700049815A816B817C8140FF0DC09A01AB0145
:105A80002E7F29833A834B835C836BE070E080E058
:105A900090E00E94BC452496CDBFDEBFDF91CF9140
:105AA0000895EF92FF921F93CF93DF93CDB7DEB7A8
:105AB0002897CDBFDEBF1D821E821F8218861982E5
:105AC0001A821B821C82AE014B5F5F4F6BE070E05D
:105AD00080E090E00E94BA45182F811156C08D8158
